:100000000C94D2000C94FA000C94FA000C94FA00B0
:100010000C94FA000C94FA000C94FA000C94FA0078
:100020000C94FA000C94FA000C94C1060C9430075E
:100030000C94FA000C94FA000C94FA000C94FA0058
:100040000C94FA000C94FA000C94FA000C94FA0048
:100050000C94FA000C94FA000C94FA000C947706B5
:100060000C94FA000C94FA000C94FA000C94FA0028
:100070000C94FA000C94FA000C94FA000C94FA0018
:100080000C9462090C94FA000C94FA000C94FA0097
:100090000C94FA000C94FA000C94FA000C94FA00F8
:1000A0000C94FA000C94FA000C94FA000000000280
:1000B00000090F0000030401000C00000000000014
:1000C00000000000000000000000004B454E44000E
:1000D0004B3A62757A7A65720003080B00020202DD
:1000E00000000904000001020200000524001001C4
:1000F0000524010101042402060524060001070568
:10010000810310004009040100020A0000000705F5
:1001100002024000000705830240000004030904B6
:1001200012010002EF020140412337800001010269
:100130000301556E6B6E6F776E0041726475696E68
:100140006F204D6963726F000000000025002800D9
:100150002B002E00310000000000240027002A00A0
:100160002D0030000404040404030405020202020A
:100170000403020202020606060606060404020240
:100180000204040408020110408040102040804016
:1001900080080204018040201002011080102040DD
:1001A0004020790B11241FBECFEFDAE0DEBFCDBFB8
:1001B00011E0A0E0B1E0E8EFF7E102C005900D9298
:1001C000AA32B107D9F721E0AAE2B1E001C01D923D
:1001D000AB3FB207E1F710E0C2EDD0E004C02197D9
:1001E000FE010E94CF0BC13DD107C9F70E94BD0996
:1001F0000C94FA0B0C940000EBE8F1E02491ECE68F
:10020000F1E08491882399F090E0880F991FFC0118
:10021000EA5AFE4FA591B491FC01E85BFE4F85912F
:1002200094918FB7F894EC91E22BEC938FBF0895E3
:10023000FC018091AA01882311F13FB7F89482E074
:100240008093E9002091F200822F90E018161906A1
:1002500014F481E090E0882339F0289A44E6409332
:10026000A9014091F1004083222339F02091F2004E
:10027000211103C02BE62093E8003FBF08958FEFC4
:100280009FEF08952FB7F89483E08093E900909151
:10029000E800892F807295FF04C09091F20080E4FD
:1002A000891B2FBF08958091A10181110DC082E0AB
:1002B00080939D0184E080939E011092A001109292
:1002C0009F0181E08093A1018DE991E008953FB7FE
:1002D000F8948091990190919A01A0919B01B0911D
:1002E0009C0126B5A89B05C02F3F19F00196A11DC2
:1002F000B11D3FBFBA2FA92F982F8827BC01CD0170
:10030000620F711D811D911D42E0660F771F881FCE
:10031000991F4A95D1F70895CF92DF92EF92FF92FD
:100320000E9467016B017C010E9467016C197D09C5
:100330008E099F09683E734081059105A8F3FF90DF
:10034000EF90DF90CF900895409147015091480180
:10035000209145013091460142175307B4F4909122
:10036000E8009570E1F39091E80092FD19C0809348
:10037000F100809147019091480101968F73992770
:10038000892B19F48EEF8093E800809147019091BA
:1003900048010196909348018093470181E00895B8
:1003A00080E00895EF92FF920F931F93CF93DF9316
:1003B000F82E192FE62E042F81E0860F880F0E9459
:1003C000A40183E00E94A401CF2DD12FEC0EFD2EBD
:1003D000F11CCE15DF05B9F007FF13C0FE018491B3
:1003E0000E94A401182F80E00E94A401812321967D
:1003F0008111EFCFDF91CF911F910F91FF90EF907F
:1004000008958881EDCF81E0F5CFDF92EF92FF92E2
:100410000F931F93CF93DF93D82E8A01EB017B01BB
:10042000E40EF51ECE15DF0559F0D7FE12C0FE0111
:1004300084910E94A40121968111F4CF0FEF1FEF48
:10044000C801DF91CF911F910F91FF90EF90DF9046
:1004500008958881EECF0F931F93CF93DF931F9260
:10046000CDB7DEB782E0898342E450E06AED70E008
:1004700080E80E9405020E945301DC0112960D9152
:100480001C910115110589F0D801ED91FC910280B4
:10049000F381E02DBE016F5F7F4FC801099597FD85
:1004A00004C0F80100851185ECCF89810F90DF91A0
:1004B000CF911F910F910895615030F02091F1007C
:1004C000FC0120830196F8CF289A84E68093A90145
:1004D00008958F929F92AF92BF92CF92DF92EF9248
:1004E000FF920F931F93CF93DF936C017B018A01DF
:1004F00080910C01882309F458C08091AA018823B7
:1005000009F453C080914B0180FF05C08091E00049
:1005100082608093E000E801B12C8AEFA82E93E07E
:10052000892E2AE3922E209711F4BB20B9F10E9464
:100530004201811106C0AA94AA20B9F10E948C013F
:10054000F2CF8C171D0611F00CF08C2F9FB7F8948A
:100550008092E9002091E80025FD02C09FBFE3CF13
:10056000282F30E0C21BD30BF701815020F04191BE
:100570004093F100FACFE20EF31EBB2021F09092DF
:10058000E800B12CEBCF8091E80085FDE7CF909299
:10059000E800BB24B394209709F3F3CF5D9A84E677
:1005A00080934A01101611063CF081E090E0F601BC
:1005B0009383828310E000E0C801DF91CF911F9107
:1005C0000F91FF90EF90DF90CF90BF90AF909F90F2
:1005D0008F900895CF93DF931F92CDB7DEB76983D5
:1005E000DC01ED91FC910280F381E02D41E050E0CF
:1005F000BE016F5F7F4F09950F90DF91CF910895F6
:100600000F931F93CF93DF938C01D0E0C0E0F801EC
:10061000EC0FFD1F6491662341F08BEA91E00E948C
:10062000EA02892B11F02196F2CF42E050E066E217
:1006300071E08BEA91E00E9469028C0F9D1FDF91AF
:10064000CF911F910F91089583E08093E9008091ED
:10065000F200882319F08AE38093E80008950E944D
:10066000420190E00895CF93DF931F92CDB7DEB79C
:10067000FC018485958597FD08C02FEF3FEF3587F6
:1006800024870F90DF91CF910895CE0101960E94AB
:100690001801019719F4898190E0F3CF8FEF9FEF54
:1006A000F0CF0F931F93CF93DF931F92CDB7DEB799
:1006B0008C01FC018485958597FF0BC0CE010196C6
:1006C0000E941801019771F4898190E0F8019587E3
:1006D0008487F801848595850F90DF91CF911F91D4
:1006E0000F9108958FEF9FEFF1CFFC0184859585E1
:1006F00097FD0BC09FB7F89482E08093E90080914A
:10070000F2009FBF90E0019608959FB7F89482E0B1
:100710008093E9008091F2009FBF90E008954F928E
:100720005F926F927F928F929F92AF92BF92CF9281
:10073000DF92EF92FF92CF936B017C0181E2C816AA
:100740008EE4D806E104F10430F070E2C72E7EE4B6
:10075000D72EE12CF12C49015A0181E688168AEE48
:100760009806A104B10430F060E6862E6AEE962E5B
:10077000A12CB12C80910001883051F18F3FB1F153
:1007800081E0809393012FB7F89480919501909127
:100790009601A0919701B09198012FBF880D991DE6
:1007A000AA1DBB1D80938F0190939001A09391018E
:1007B000B0939201CF91FF90EF90DF90CF90BF90D8
:1007C000AF909F908F907F906F905F904F90089523
:1007D000E9EDF0E0C491C7FDD3CF0E94FC00CC232B
:1007E00009F436C0C23009F433C09AC088E080935F
:1007F0000001E9EDF0E0C491CF3F09F4C1CFC13071
:1008000009F46FC058F0C33009F4C8C0C43009F40B
:10081000E7C0C7FDB5CF0E94FC00E4CF14BC15BCF7
:1008200084B5826084BD85B5816085BDECE6F1E06C
:10083000E491F0E0EE0FFF1FE85BFE4F859194918D
:10084000EBE8F1E0E491E09331010E94FC00C0E0AC
:1008500060E072E18AE790E0A70196010E94B00B88
:1008600029013A0160E472E48FE090E0A70196016B
:100870000E94B00B2150310941095109C23009F0E1
:10088000CDC02F3F31054105510509F00CF478CF5B
:1008900060E970ED83E090E0A70196010E94B00B43
:1008A00021303140410551050CF46ACF68E478EEFF
:1008B00081E090E0A70196010E94B00B2130314009
:1008C000410551050CF45CCF64E274EF80E090E0E8
:1008D000A70196010E94B00B21503109410951092D
:1008E000B2C01092800010928100809181008860D7
:1008F0008093810080918100816080938100ECE68B
:10090000F1E0E491F0E0EE0FFF1FE85BFE4F859110
:100910009491EBE8F1E0E491E09330010E94FC0057
:1009200060E072E18AE790E0A70196010E94B00BB7
:10093000215031094109510991E02115310581E02A
:10094000480751056CF068E478EE81E090E0A7017B
:1009500096010E94B00B215031094109510993E0E1
:10096000C13009F0B6C080918100887F892B8093C7
:10097000810030938900209388008FEF9FEFDC0186
:100980008093360190933701A0933801B0933901D9
:1009900080916F00826080936F00F2CE1092900081
:1009A00010929100809191008860809391008091D5
:1009B0009100816080939100ECE6F1E0E491F0E039
:1009C000EE0FFF1FE85BFE4F8591949190933F01DE
:1009D00080933E01EBE8F1E0E491E09340019ECF8B
:1009E0001092C0001092C1008091C1008860809375
:1009F000C1008091C10081608093C100ECE6F1E00C
:100A0000E491F0E0EE0FFF1FE85BFE4F85919491BB
:100A1000EBE8F1E0E491E0932F0180CF2F3F310527
:100A200041055105E9F1E4F168E478EE81E090E0F8
:100A3000A70196010E94B00B2150310941095109CB
:100A4000CC2309F484C02F3F31054105510501F144
:100A5000F8F062E17AE780E090E0A70196010E9459
:100A6000B00B21503109410951092F3F3105410592
:100A7000510571F06CF09AE075946794579447941F
:100A80009A95D1F7A30192012150310941095109E9
:100A9000C13009F46ECF0CF055C0C11171CE07C042
:100AA000C11167CF92E085B5887F892B85BD27BDB1
:100AB0008FEF9FEFDC0180933A0190933B01A0936D
:100AC0003C01B0933D0180916E00826080936E0086
:100AD00057CEC330D9F480919100887F892B8093C1
:100AE000910030939900209398008FEF9FEFDC01E5
:100AF0008093410190934201A0934301B09344013C
:100B0000809171008260809371003ACEC43009F008
:100B1000BFCF8091C100887F892B8093C100209333
:100B2000CF008FEF9FEFDC01809332019093330170
:100B3000A0933401B093350180917200806480935A
:100B400072001ECEC33069F2C43049F319CE93E06F
:100B50002F3F31054105510509F00CF4A4CF62E1A6
:100B60007AE780E090E0A70196010E94B00B215047
:100B700031094109510994E02F3F310541055105E3
:100B800009F00CF490CF8AE07594679457944794D9
:100B90008A95D1F7A30192012150310941095109E8
:100BA00095E081CF80ED90E00E9400038BEC90E017
:100BB0000C94000380910001883089F4E9EDF0E0A5
:100BC000E4918FEF80930001E13009F432C008F422
:100BD0002DC0E33009F433C0E43009F436C0E4EB4F
:100BE000F0E09491EBE8F1E02491ECE6F1E08491FF
:100BF000882309F444C0992309F432C091509F30EE
:100C000078F5E92FF0E0E95FF94F0C94CF0B52062D
:100C100056062B064A064E063006300630065906A2
:100C20005F06630667066D063006710610926E0059
:100C3000D6CF80916F008D7F80936F00D0CF809151
:100C400071008D7F80937100CACF809172008F7B7D
:100C500080937200C4CF909180009F779093800022
:100C6000E82FF0E0EE0FFF1FE85BFE4FA591B49177
:100C70008FB7F894EC9120952E232C938FBF109270
:100C8000930110928F011092900110929101109295
:100C900092010895909180009F7DE0CF9091800017
:100CA000977FDCCF94B59F7794BDDACF94B59F7DC5
:100CB000FBCF909190009F7790939000D1CF90912F
:100CC00090009F7DF9CF90919000977FF5CF909104
:100CD000C0009F779093C000C3CF9091C0009F7DCC
:100CE000F9CF9091C200977F9093C200B9CF1F9225
:100CF0000F920FB60F9211242F933F938F939F93D0
:100D0000AF93BF938091950190919601A091970127
:100D1000B09198013091940123E0230F2D3758F5BD
:100D20000196A11DB11D209394018093950190938C
:100D30009601A0939701B0939801809199019091A9
:100D40009A01A0919B01B0919C010196A11DB11D3A
:100D50008093990190939A01A0939B01B0939C0179
:100D6000BF91AF919F918F913F912F910F900FBEA7
:100D70000F901F90189526E8230F0296A11DB11D14
:100D8000D2CF1F920F920FB60F9211248F939F9381
:100D90008091E1009091E100937F9093E10083FFC7
:100DA0000FC01092E90091E09093EB001092EC00DC
:100DB00092E39093ED001092AA0198E09093F000D6
:100DC00082FF22C093E09093E9009091F200992372
:100DD00019F09AE39093E80090914A01992341F029
:100DE00090914A01915090934A01911101C05D98F0
:100DF0009091A901992341F09091A901915090936C
:100E0000A901911101C0289884FF18C08091E200C7
:100E10008E7E81608093E2008091E1008F7E8093DE
:100E2000E10080914B018E7E806180934B019F9108
:100E30008F910F900FBE0F901F90189580FFF7CFE6
:100E40008091E2008E7E80618093E2008091E100DB
:100E50008E7E8093E10080914B018E7E8160E5CF94
:100E60001F920F920FB60F921124CF92DF92EF9242
:100E7000FF920F931F932F933F934F935F936F9323
:100E80007F938F939F93AF93BF93EF93FF93CF93F2
:100E9000DF93CDB7DEB76C97DEBFCDBF1092E90010
:100EA0008091E80083FF25C068E0CE0145960E944E
:100EB0005C0282EF8093E8008D8987FF39C09091B2
:100EC000E80090FFFCCF982F907609F034C19E89FE
:100ED0004F89588D2F89F88C911131C0803861F578
:100EE00080914C018093F1001092F1008EEF80937D
:100EF000E8006C960FB6F894DEBF0FBECDBFDF9151
:100F0000CF91FF91EF91BF91AF919F918F917F9181
:100F10006F915F914F913F912F911F910F91FF9092
:100F2000EF90DF90CF900F900FBE0F901F9018950D
:100F30009EEF9093E800C7CF1092F100D5CF91308B
:100F400059F48111D3CF4130510581F680914C0184
:100F50008D7F80934C01CACF933049F48111C6CF65
:100F60004130510519F680914C018260F2CF9530E5
:100F700041F48091E80080FFFCCF20682093E300DB
:100F8000B5CF963009F0A9C00B8D1C8D22E01092D0
:100F9000E9001092480110924701F2122EC01092FF
:100FA0004601109245010E942B021F8299E099830D
:100FB000FA8291E09E8390EA98879AEF9987209130
:100FC000470130914801275F3F4F3C832B838D833E
:100FD0001092E900109248011092470110934601C7
:100FE0000093450149E050E0BE016F5F7F4F80E014
:100FF0000E9405020E942B0279CF109346010093B4
:1010000045010E945301DC0112960D911C910115BE
:10101000110509F451C1D801ED91FC910480F581CD
:10102000E02DBE016B5E7F4FC8010995009709F066
:101030003EC1F80100851185EACFF3E0FF120EC032
:101040008F89882309F440C0823061F440E86DE064
:101050008AE391E00E94D201811148CF81E280931E
:10106000EB0047CF813029F440E867E082E391E06C
:10107000F1CF833099F70E945301DC011296ED9075
:10108000FC908E010F5F1F4F6801E114F10479F0AD
:10109000D701ED91FC910680F781E02DB801C701E1
:1010A0000995080F111DF701E084F184EECFD801F6
:1010B0001C92F60101900020E9F73197BF016C19ED
:1010C0007D0940E0C601C6CF6CE171E0FB014491AF
:1010D00050E080E80E94050209CF973009F4BECFA6
:1010E000983021F481E08093F10000CF993009F02D
:1010F000FDCE837009F0B2CFE0E2F1E081E031E0B3
:1011000096E32191222371F08093E9003093EB0064
:10111000DF0111972C912093EC009093ED008F5FED
:10112000873079F78EE78093EA001092EA008F8982
:101130008093AA01DBCE8B8D9C8D1092E9001092DA
:101140004801109247019093460180934501898D93
:10115000811192C08E899D89913A49F4813209F0BA
:101160007DCF47E050E065E071E080E0B3CF9132A1
:1011700009F074CF833269F48F89988DB0E0A0E0D4
:101180008093010190930201A0930301B0930401A5
:10119000ADCE803269F48091E80082FFFCCF67E039
:1011A00085E091E00E945C028BEF8093E8009ECE88
:1011B000823209F09BCE8F8980930C01EEEFFFE71E
:1011C000859194918B3F9C4D51F1E0E0F8E0809146
:1011D000050190910601A0910701B0910801803BA3
:1011E0009440A105B105F1F480910C0180FD1AC075
:1011F000EE3F8AE0F80789F587E797E791838083D8
:10120000809160008093490188E19BE00FB6F894DB
:10121000A895809360000FBE9093600067CEEEEFBC
:10122000FAE0D5CF808191818737974709F05ECE6C
:10123000A895809160008861809360008091490149
:1012400080936000EE3F2AE0F20789F08091FE0A69
:101250009091FF0A9183808349CE80819181873765
:10126000980751F29093FF0A8093FE0AC5CF10921F
:10127000FF0A1092FE0A3ACE0E945301DC01129638
:101280000D911C910115110509F4E8CED801ED91DD
:10129000FC910190F081E02DBE016B5E7F4FC80193
:1012A0000995811123CEF80100851185EBCF181621
:1012B00019060CF41BCED2CEF1E0FF12BECE60E2D6
:1012C00071E004CF1F920F920FB60F9211248F93EB
:1012D0009F93AF93BF93EF93FF93809141019091C0
:1012E0004201A0914301B0914401892B8A2B8B2BA1
:1012F000A1F190914001E0913E01F0913F01808188
:10130000892780838091410190914201A0914301FE
:10131000B0914401181619061A061B069CF4809118
:10132000410190914201A0914301B0914401019784
:10133000A109B1098093410190934201A093430117
:10134000B0934401FF91EF91BF91AF919F918F9125
:101350000F900FBE0F901F901895809171008D7F98
:101360008093710080914001E0913E01F0913F0136
:101370009081809589238083E5CF789484B58260BD
:1013800084BD84B5816084BD85B5826085BD85B529
:10139000816085BD80916E00816080936E001092A7
:1013A0008100809181008260809381008091810022
:1013B00081608093810080918000816080938000B3
:1013C0008091910082608093910080919100816072
:1013D0008093910080919000816080939000809133
:1013E000C10084608093C1008091C10082608093BD
:1013F000C1008091C10081608093C1008091C300D1
:1014000081608093C3008091C00082608093C0009F
:101410008091C20081608093C20080917A008460D4
:1014200080937A0080917A00826080937A00809124
:101430007A00816080937A0080917A00806880933E
:101440007A001092AA0110924C0110924B018091E7
:10145000D70081608093D70080EA8093D80089B557
:10146000806189BD89B5826089BD09B400FEFDCF68
:101470000E948C018091D8008F7C80618093D8007D
:101480008091E000807F8093E0008091E1008E7E7B
:101490008093E1008DE08093E200559A209A5D9858
:1014A00028980E94FC000E94DA058FEF9FEF90932E
:1014B000B8018093B7010E94D2052DE230E040E0F0
:1014C00050E068E077E080E090E00E948F0311E058
:1014D0008BEA91E00E947503892B09F4E4C08BEA42
:1014E00091E00E94330390918E018A3019F08D3083
:1014F00009F0C7C09111C0C0E0918D01EE2309F43D
:10150000BBC0F0E0E35BFE4F108280914D0183345D
:1015100009F49BC08A3531F08F3309F0ADC00E94C9
:10152000D205AAC06AE370E08EE491E00E94EF0B5E
:101530007C01892B09F4A0C08EE4E81681E0F8064E
:1015400009F008F499C0CEE4D1E0412C512C3201CD
:10155000899190ED980F9A3008F08EC0082E000CFB
:10156000990BC0974C01990FAA08BB0860E27EE472
:1015700080E090E0681979098A099B092AE030E047
:1015800040E050E00E948E0B2415350546055705B6
:1015900008F45EC0AAE0B0E0A30192010E94D50B5E
:1015A00024013501460E571E681E791ECE15DF0533
:1015B00079F6EEE4F1E001900020E9F7CF01019720
:1015C0001C012196812C912C5401C817D90708F0D1
:1015D00053C0C99080ED8C0D8A3008F04DC00C2CA2
:1015E000000CDD0890E3C91AD1080D2C000CEE08A0
:1015F000FF0860E67AEE80E090E06C197D098E09C4
:101600009F092AE030E040E050E00E948E0B281550
:1016100039054A055B0518F1AAE0B0E0A50194017F
:101620000E94D50B46015701860E971EA81EB91EB3
:101630002C163D0671F6411451046104710429F021
:1016400081149104A104B10489F40E94DA0514C044
:1016500090E2492E9EE4592E612C712CA7CF80E692
:10166000882E8AEE982EA12CB12CE2CFA5019401F0
:10167000C301B2010E948F0310928D0110928E015E
:1016800027CF911125CFE0918D01EF3348F491E000
:101690009E0F90938D01F0E0E35BFE4F808318CFA7
:1016A00010938E0115CF809193018823D1F02FB72D
:1016B000F8948091950190919601A0919701B09135
:1016C00098012FBF40918F0150919001609191013D
:1016D00070919201841B950BA60BB70BB7FF0E946C
:1016E000DA0580E090E0892B09F4F2CE0E94000038
:1016F000EECEEBEAF1E01382128288EE93E0A0E0F6
:10170000B0E084839583A683B78381E191E09183E0
:1017100080838FEF9FEF958784870895A1E21A2E2B
:10172000AA1BBB1BFD010DC0AA1FBB1FEE1FFF1F85
:10173000A217B307E407F50720F0A21BB30BE40BD5
:10174000F50B661F771F881F991F1A9469F760951C
:101750007095809590959B01AC01BD01CF010895D6
:10176000052E97FB1EF400940E94C70B57FD07D06F
:101770000E948E0B07FC03D04EF40C94C70B5095BF
:101780004095309521953F4F4F4F5F4F089590956D
:101790008095709561957F4F8F4F9F4F0895EE0F05
:1017A000FF1F0590F491E02D09940E94E00BA59F86
:1017B000900DB49F900DA49F800D911D112408954C
:1017C000A29FB001B39FC001A39F700D811D112482
:1017D000911DB29F700D811D1124911D0895FC0172
:1017E0008191861721F08823D9F799270895319799
:0817F000CF010895F894FFCF2A
:1017F800FFFFFFFFFF00E100000000000000000005
:1018080000EA0269022F032403750333035103001E
:0A181800C180810000000D0A0000ED
:00000001FF
