:100000000C9465000C948D000C948D000C948D0064
:100010000C948D000C948D000C948D000C94C104F4
:100020000C948D000C948D000C948D000C948D001C
:100030000C948D000C948D000C948D000C948D000C
:100040000C9477040C948D000C9443050C941D05BE
:100050000C948D000C948D000C948D000C948D00EC
:100060000C948D000C948D004B454E44004B3A622D
:10007000757A7A6572000000000800020100000332
:10008000040700000000000000000200000000253E
:100090000028002B0000000000240027002A000494
:1000A000040404040404040202020202020303031F
:1000B0000303030102040810204080010204081019
:1000C0002001020408102000140711241FBECFEFE6
:1000D000D8E0DEBFCDBF11E0A0E0B1E0EEE5FFE08B
:1000E00002C005900D92A631B107D9F722E0A6E132
:1000F000B1E001C01D92A431B207E1F710E0C5E6FE
:10010000D0E004C02197FE010E948D07C436D107BC
:10011000C9F70E9475050C94AD070C940000EBEB39
:10012000F0E02491E7EAF0E08491882399F090E0F0
:10013000880F991FFC01EB56FF4FA591B491FC016C
:10014000E557FF4F859194918FB7F894EC91E22B8E
:10015000EC938FBF08959091000189130DC0EAE8D8
:10016000F0E0E4919FEF90930001E13009F431C099
:1001700068F1E23009F433C090E0FC01EA58FF4F27
:100180002491FC01ED54FF4F3491FC01E156FF4FE7
:10019000E491EE23D1F0222351F0233009F43AC048
:1001A00078F5213009F43CC0223009F43DC0F0E07C
:1001B000EE0FFF1FE557FF4FA591B4918FB7F8944D
:1001C000EC9130953E233C938FBF089510926E00C2
:1001D000D3CF90916F009D7F90936F00CDCF909182
:1001E00070009D7F9093700091E09093B00090918B
:1001F000B100987F94609093B1001092B300BCCF8F
:100200002730A9F02830C9F0243089F68091800089
:100210008F7D03C0809180008F7780938000C7CF4F
:1002200084B58F7784BDC3CF84B58F7DFBCF80919C
:10023000B0008F778093B000BACF8091B0008F7DEF
:10024000F9CFAF92BF92CF92DF92EF92FF920F93CE
:100250001F93CF93DF936C017B018B01040F151F5C
:10026000EB015E01AE18BF08C017D10759F06991C4
:10027000D601ED91FC910190F081E02DC601099528
:10028000892B79F7C501DF91CF911F910F91FF90D5
:10029000EF90DF90CF90BF90AF900895FC01538D09
:1002A000448D252F30E0842F90E0821B930B541750
:1002B00010F0CF96089501970895FC01918D828DDD
:1002C000981761F0A28DAE0FBF2FB11D5D968C9176
:1002D000928D9F5F9F73928F90E008958FEF9FEFB5
:1002E0000895FC01918D828D981731F0828DE80F71
:1002F000F11D858D90E008958FEF9FEF0895FC012B
:10030000918D228D892F90E0805C9F4F821B9109F7
:100310008F739927089587E791E00E947F0121E07C
:10032000892B09F420E0822F089580E090E0892B4A
:1003300029F00E948B0181110C9400000895FC01AA
:10034000A48DA80FB92FB11DA35ABF4F2C91848D36
:1003500090E001968F739927848FA689B7892C9393
:10036000A089B1898C91837080648C93938D848DE6
:10037000981306C00288F389E02D80818F7D8083E9
:100380000895EF92FF920F931F93CF93DF93EC01A9
:1003900081E0888F9B8D8C8D98131AC0E889F9892C
:1003A000808185FF15C09FB7F894EE89FF8960832F
:1003B000E889F98980818370806480839FBF81E0B0
:1003C00090E0DF91CF911F910F91FF90EF900895F2
:1003D000F62E0B8D10E00F5F1F4F0F731127E02ECD
:1003E0008C8D8E110CC00FB607FCFACFE889F98905
:1003F000808185FFF5CFCE010E949F01F1CFEB8D6B
:10040000EC0FFD2FF11DE35AFF4FF0829FB7F894D8
:100410000B8FEA89FB8980818062CFCF0F931F9376
:10042000CF93DF938C01D0E0C0E0F801EC0FFD1F0B
:100430006491662341F087E791E00E94C101892B16
:1004400011F02196F2CF42E050E063E171E087E7DE
:1004500091E00E9421018C0F9D1FDF91CF911F9190
:100460000F910895CF93DF93EC01888D8823B9F025
:10047000AA89BB89E889F9898C9185FD03C08081AF
:1004800086FD0DC00FB607FCF7CF8C9185FFF2CF2C
:10049000808185FFEDCFCE010E949F01E9CFDF91E2
:1004A000CF9108954F925F926F927F928F929F9219
:1004B000AF92BF92CF92DF92EF92FF92CF936B01F8
:1004C0007C0181E2C8168EE4D806E104F10430F024
:1004D00060E2C62E6EE4D62EE12CF12C49015A01C1
:1004E00081E688168AEE9806A104B10430F050E641
:1004F000852E5AEE952EA12CB12C809100018830CA
:1005000051F18F3FB1F181E080936D012FB7F894E5
:100510008091730190917401A0917501B091760161
:100520002FBF880D991DAA1DBB1D80936901909353
:100530006A01A0936B01B0936C01CF91FF90EF9093
:10054000DF90CF90BF90AF909F908F907F906F90F3
:100550005F904F900895EAE8F0E0C491C7FDD3CFD3
:100560000E948F00CC2309F433C0C23009F0CEC002
:100570002FC088E080930001EAE8F0E0C491CF3F0B
:1005800009F4C1CFC13009F4A2C040F0C23009F46F
:10059000FBC0C7FDB8CF0E948F00E7CF14BC15BCCD
:1005A00084B5826084BD85B5816085BDE7EAF0E0F1
:1005B000E491F0E0EE0FFF1FE557FF4F8591949116
:1005C000EBEBF0E0E491E09317010E948F00C0E0B4
:1005D00060E072E18AE790E0A70196010E9463075C
:1005E00029013A0160E472E48FE090E0A7019601EE
:1005F0000E9463072150310941095109C23009F0B5
:10060000E7C02F3F31054105510509F00CF437C112
:1006100060E970ED83E090E0A70196010E94630716
:10062000215031094109510983E02F3F310541052E
:10063000510509F00CF424C168E478EE81E090E003
:10064000A70196010E946307215031094109510910
:1006500084E02F3F31054105510509F00CF410C12C
:1006600064E274EF80E090E0A70196010E946307C6
:10067000215031094109510985E02F3F31054105DC
:10068000510509F008F4FCC062E17AE780E090E0EF
:10069000A70196010E9463072150310941095109C0
:1006A00086E02F3F31054105510509F00CF4E8C003
:1006B0008AE075946794579447948A95D1F7A3017B
:1006C0009201215031094109510987E0D9C01092A6
:1006D0008000109281008091810088608093810069
:1006E00080918100816080938100E7EAF0E0E491ED
:1006F000F0E0EE0FFF1FE557FF4F85919491EBEB74
:10070000F0E0E491E09316010E948F0060E072E156
:100710008AE790E0A70196010E9463072150310902
:100720004109510991E02115310581E04807510542
:100730006CF068E478EE81E090E0A70196010E94F9
:100740006307215031094109510993E0C13009F093
:100750009DC080918100887F892B80938100309398
:100760008900209388008FEF9FEFDC0180931801B0
:1007700090931901A0931A01B0931B0180916F000F
:10078000826080936F00BFCE1092B0001092B100D3
:100790008091B00082608093B0008091B100816050
:1007A0008093B100E7EAF0E0E491F0E0EE0FFF1F84
:1007B000E557FF4F859194919093210180932001FB
:1007C000EBEBF0E0E491E09322010E948F0000CF78
:1007D0002F3F310541055105C9F1C4F168E478EEB8
:1007E00081E090E0A70196010E9463072150310942
:1007F0004109510984E0C11140CF93E02F3F3105F9
:100800004105510531F12CF162E17AE780E090E099
:10081000A70196010E94630721503109410951093E
:1008200094E02F3F31054105510599F094F09AE08D
:1008300075946794579447949A95D1F7A3019201C0
:10084000215031094109510995E003C0C11117C078
:1008500092E085B5887F892B85BD27BD8FEF9FEFFF
:10086000DC0180931C0190931D01A0931E01B093A5
:100870001F0180916E00826080936E0044CE82E002
:100880009091B100987F892B8093B100C13009F419
:1008900066CFC23019F0C11136CEDFCF2093B3003E
:1008A0008FEF9FEFDC018093230190932401A093AD
:1008B0002501B093260180917000826080937000C2
:1008C00022CE8DE690E00E940E0288E690E00C9425
:1008D0000E0288E00E94AB0010926D011092690137
:1008E00010926A0110926B0110926C0108951F9290
:1008F0000F920FB60F9211242F933F938F939F93D4
:10090000AF93BF938091730190917401A091750191
:10091000B09176013091720123E0230F2D3758F505
:100920000196A11DB11D20937201809373019093D4
:100930007401A0937501B093760180916E0190913E
:100940006F01A0917001B09171010196A11DB11DBF
:1009500080936E0190936F01A0937001B093710129
:10096000BF91AF919F918F913F912F910F900FBEAB
:100970000F901F90189526E8230F0296A11DB11D18
:10098000D2CF1F920F920FB60F9211242F933F9345
:100990004F935F936F937F938F939F93AF93BF9387
:1009A000EF93FF938091230190912401A091250161
:1009B000B0912601892B8A2B8B2BD1F190912201AA
:1009C000E0912001F091210180818927808380912D
:1009D000230190912401A0912501B09126011816C0
:1009E00019061A061B069CF480912301909124019C
:1009F000A0912501B09126010197A109B109809329
:100A0000230190932401A0932501B0932601FF9127
:100A1000EF91BF91AF919F918F917F916F915F9176
:100A20004F913F912F910F900FBE0F901F901895EF
:100A3000809100010E94AB00EACF1F920F920FB687
:100A40000F9211242F933F934F935F936F937F9354
:100A50008F939F93AF93BF93EF93FF9387E791E0BB
:100A60000E949F01FF91EF91BF91AF919F918F9154
:100A70007F916F915F914F913F912F910F900FBE9A
:100A80000F901F9018951F920F920FB60F9211247E
:100A90002F938F939F93EF93FF93E0918701F091B2
:100AA00088018081E0918D01F0918E0182FD1BC053
:100AB0009081809190018F5F8F73209191018217B7
:100AC00041F0E0919001F0E0E958FE4F958F80935E
:100AD0009001FF91EF919F918F912F910F900FBEF9
:100AE0000F901F9018958081F4CF789484B5826020
:100AF00084BD84B5816084BD85B5826085BD85B5C2
:100B0000816085BD80916E00816080936E0010923F
:100B100081008091810082608093810080918100BA
:100B2000816080938100809180008160809380004B
:100B30008091B10084608093B1008091B0008160A9
:100B40008093B00080917A00846080937A008091D5
:100B50007A00826080937A0080917A00816080932D
:100B60007A0080917A00806880937A001092C100A8
:100B70000E948F000E946904E0918701F091880132
:100B800082E08083E0918301F09184011082E09102
:100B90008501F091860180E1808310928F01E091C0
:100BA0008B01F0918C0186E08083E0918901F091C6
:100BB0008A01808180618083E0918901F0918A01BE
:100BC000808188608083E0918901F0918A01808131
:100BD00080688083E0918901F0918A0180818F7D16
:100BE00080830E9461042DE230E040E050E068E044
:100BF00077E080E090E00E94520211E087E791E008
:100C00000E947F01892B09F4E4C087E791E00E94EC
:100C10005D01909168018A3019F08D3009F0C7C0EC
:100C20009111C0C0E0916701EE2309F4BBC0F0E070
:100C3000E95DFE4F108280912701833409F49BC047
:100C40008A3531F08F3309F0ADC00E946104AAC02B
:100C50006AE370E088E291E00E94A2077C01892BA0
:100C600009F4A0C088E2E81681E0F80609F008F46B
:100C700099C0C8E2D1E0412C512C3201899190ED0C
:100C8000980F9A3008F08EC0082E000C990BC09770
:100C90004C01990FAA08BB0860E27EE480E090E076
:100CA000681979098A099B092AE030E040E050E0A0
:100CB0000E944107241535054605570508F45EC016
:100CC000AAE0B0E0A30192010E948207240135014D
:100CD000460E571E681E791ECE15DF0579F6E8E22E
:100CE000F1E001900020E9F7CF0101971C01219666
:100CF000812C912C5401C817D90708F053C0C99012
:100D000080ED8C0D8A3008F04DC00C2C000CDD08F5
:100D100090E3C91AD1080D2C000CEE08FF0860E61C
:100D20007AEE80E090E06C197D098E099F092AE037
:100D300030E040E050E00E944107281539054A059F
:100D40005B0518F1AAE0B0E0A50194010E948207BA
:100D500046015701860E971EA81EB91E2C163D0689
:100D600071F6411451046104710429F08114910455
:100D7000A104B10489F40E94690414C090E2492ED0
:100D80009EE4592E612C712CA7CF80E6882E8AEE26
:100D9000982EA12CB12CE2CFA5019401C301B20180
:100DA0000E945202109267011092680127CF9111A0
:100DB00025CFE0916701EF3348F491E09E0F9093C7
:100DC0006701F0E0E95DFE4F808318CF1093680162
:100DD00015CF80916D018823D1F02FB7F8948091C1
:100DE000730190917401A0917501B09176012FBFAC
:100DF0004091690150916A0160916B0170916C01A1
:100E0000841B950BA60BB70BB7FF0E94690480E00B
:100E100090E0892B09F4F2CE0E948B01882309F41B
:100E2000ECCE0E940000E9CEE7E7F1E013821282E7
:100E300088EE93E0A0E0B0E084839583A683B78337
:100E400085E091E09183808385EC90E095878487AD
:100E500084EC90E09787868780EC90E0918B808B84
:100E600081EC90E0938B828B82EC90E0958B848B6D
:100E700086EC90E0978B868B118E128E138E148EDB
:100E80000895A1E21A2EAA1BBB1BFD010DC0AA1FCB
:100E9000BB1FEE1FFF1FA217B307E407F50720F0E3
:100EA000A21BB30BE40BF50B661F771F881F991F5E
:100EB0001A9469F760957095809590959B01AC01A7
:100EC000BD01CF010895052E97FB1EF400940E94EA
:100ED0007A0757FD07D00E94410707FC03D04EF464
:100EE0000C947A0750954095309521953F4F4F4F80
:100EF0005F4F089590958095709561957F4F8F4FC6
:100F00009F4F08950E949307A59F900DB49F900D49
:100F1000A49F800D911D11240895EE0FFF1F0590D1
:100F2000F491E02D0994A29FB001B39FC001A39F4B
:100F3000700D811D1124911DB29F700D811D112412
:100F4000911D0895FC018191861721F08823D9F71E
:0E0F5000992708953197CF010895F894FFCFA7
:100F5E00FF00000000C10121014E0132027F015D40
:060F6E000171010D0A00F3
:00000001FF
