:100000000C94E2000C940A010C940A010C940A016D
:100010000C940A010C940A010C940A010C940A0134
:100020000C940A010C940A010C946A090C94D909E5
:100030000C940A010C940A010C940A010C940A0114
:100040000C940A010C940A010C940A010C940A0104
:100050000C940A010C940A010C940A010C942009D6
:100060000C940A010C940A010C940A010C940A01E4
:100070000C940A010C940A010C940A010C940A01D4
:100080000C940A010C940A010C940A010C940A01C4
:100090000C940A010C940A010C940A010C940A01B4
:1000A0000C940A010C940A010C940A014B454E442D
:1000B000004B3A636F6E74726F6C002D31002B3100
:1000C000003A004500080B0002020200000904008B
:1000D00000010202000005240010010524010101B5
:1000E00004240206052406000107058103100040D0
:1000F00009040100020A0000000705020240000096
:10010000070583024000000403090412010002EF06
:1001100002014041233780000101020301556E6B4B
:100120006E6F776E0041726475696E6F204D696302
:10013000726F00300031003A0042000000000023DE
:1001400000260029002C002F000000000200090FEB
:100150000000030401000C0000000000000000008B
:100160000000000000000000000000002500280042
:100170002B002E00310000000000240027002A0080
:100180002D003000040404040403040502020202EA
:100190000403020202020606060606060404020220
:1001A00002040404080201104080401020408040F6
:1001B00080080204018040201002011080102040BD
:1001C00040200B0C11241FBECFEFDAE0DEBFCDBF05
:1001D00011E0A0E0B1E0E4E2F4E202C005900D928B
:1001E000AE35B107D9F722E0AEE5B1E001C01D920E
:1001F000A43CB207E1F710E0C2EED0E004C02197C2
:10020000FE010E94C810C13ED107C9F70E940D0E21
:100210000C9410120C9400004F925F926F927F9298
:100220008F929F92AF92BF92CF92DF92EF92FF9206
:100230000F931F93CF93DF93E5010C151D052E053A
:100240003F050CF051C028013901460157018823B0
:1002500009F44FC0CA01DB0184159505A605B70551
:1002600014F4D301C201B501A40188159905AA05AA
:10027000BB0514F4AC01BD01C016D106E206F306BD
:1002800064F4D501C401841B950BA60BB70BAC011C
:10029000BD01440D551D661D771D9A01AB01241942
:1002A000350946095709AFEFBFEF0E947810A50145
:1002B000940124193509460957090E9459102883C9
:1002C000398382E090E0DF91CF911F910F91FF90F1
:1002D000EF90DF90CF90BF90AF909F908F907F90E6
:1002E0006F905F904F9008952601370148015901A2
:1002F000AECF90E080E0E7CFCF93DF9390E0FC01BA
:10030000ED55FE4F24918C579E4FFC01849188231C
:10031000C1F090E0880F991FFC01EA58FE4FC5918B
:10032000D491FC01E859FE4FA591B4919FB7F89480
:100330003881822F809583238883EC91E22BEC9384
:100340009FBFDF91CF910895FC018091DD0188234B
:1003500011F13FB7F89482E08093E9002091F20018
:10036000822F90E01816190614F481E090E088239B
:1003700039F0289A44E64093DC014091F100408333
:10038000222339F02091F200211103C02BE62093A3
:10039000E8003FBF08958FEF9FEF0895282F30E0CA
:1003A000F901E75BFE4F9491F901ED55FE4F849101
:1003B0002C573E4FF9012491222309F45BC0992365
:1003C000E9F091509F30D0F4E92FF0E0E651FE4F74
:1003D0000C94C81015021902F9010D021102FE0158
:1003E000FE01FE011C02220226022A023002FE0148
:1003F0003402909180009F7790938000E22FF0E08C
:10040000EE0FFF1FE55CFE4FA591B491EC91E82340
:1004100081E090E089F580E00895909180009F7DD3
:10042000EBCF90918000977FE7CF94B59F7794BDF5
:10043000E5CF94B59F7DFBCF909190009F779093EF
:100440009000DCCF909190009F7DF9CF909190002B
:10045000977FF5CF9091C0009F779093C000CECF4B
:100460009091C0009F7DF9CF9091C200977F9093AB
:10047000C200C4CF80E090E008953FB7F894809127
:10048000D8019091D901A091DA01B091DB0126B594
:10049000A89B05C02F3F19F00196A11DB11D3FBFBC
:1004A000BA2FA92F982F8827BC01CD01620F711D8B
:1004B000811D911D42E0660F771F881F991F4A9585
:1004C000D1F70895CF92DF92EF92FF920E943D0202
:1004D0006B017C010E943D026C197D098E099F0908
:1004E000683E734081059105A8F3FF90EF90DF907F
:1004F000CF9008954091850150918601209183010C
:100500003091840142175307B4F49091E80095703C
:10051000E1F39091E80092FD19C08093F100809181
:1005200085019091860101968F739927892B19F483
:100530008EEF8093E800809185019091860101966D
:10054000909386018093850181E0089580E008956D
:10055000EF92FF920F931F93CF93DF93F82E192FF3
:10056000E62E042F81E0860F880F0E947A0283E036
:100570000E947A02CF2DD12FEC0EFD2EF11CCE154C
:10058000DF05B9F007FF13C0FE0184910E947A02D3
:10059000182F80E00E947A02812321968111EFCFEB
:1005A000DF91CF911F910F91FF90EF900895888177
:1005B000EDCF81E0F5CFDF92EF92FF920F931F9383
:1005C000CF93DF93D82E8A01EB017B01E40EF51E59
:1005D000CE15DF0559F0D7FE12C0FE0184910E94AE
:1005E0007A0221968111F4CF0FEF1FEFC801DF913E
:1005F000CF911F910F91FF90EF90DF900895888128
:10060000EECF2FB7F89487708093E9009091E800BF
:10061000892F807295FF04C09091F20080E4891BBD
:100620002FBF08957F928F929F92AF92BF92CF92E9
:10063000DF92EF92FF920F931F93CF93DF93C82E19
:100640008B017A018091DD01811110C08FEF9FEF46
:10065000DF91CF911F910F91FF90EF90DF90CF909E
:10066000BF90AF909F908F907F9008958091890167
:1006700080FF05C08091E00082608093E000CE2D75
:10068000DF2DD12C8AEFB82E8C2D8770982E8C2DD3
:100690008072882E8C2D8074782E9AE3A92E209754
:1006A00019F4DD2009F44EC08C2D0E940103811144
:1006B00006C0BA94BB2051F20E946202F0CF8C17A0
:1006C0001D0611F00CF08C2F9FB7F8949092E90062
:1006D0002091E80025FD02C09FBFE1CF282F30E028
:1006E000C21BD30B882029F08150A0F01092F1009A
:1006F000FBCFF801C7FC0AC0815050F041914093F4
:10070000F100FACF44914093F10031968150D0F737
:10071000020F131FDD2021F0A092E800D12CDCCFC6
:100720008091E80085FD07C0A092E800DD24D39405
:10073000209791F2F3CF209779F6772069F2A09273
:10074000E800CACF5D9A84E680938801C70180CF14
:10075000615030F02091F100FC0120830196F8CF28
:10076000289A84E68093DC01089580917B018111B1
:100770000DC082E08093770184E08093780110922D
:100780007A011092790181E080937B0187E791E003
:1007900008950F931F93CF93DF931F92CDB7DEB7CA
:1007A00082E0898342E450E065EC70E080E80E94DA
:1007B000DB020E94B503DC0112960D911C9101151C
:1007C000110589F0D801ED91FC910280F381E02DB3
:1007D000BE016F5F7F4FC801099597FD04C0F80106
:1007E00000851185ECCF89810F90DF91CF911F910A
:1007F0000F910895CF93DF93EC018091120188232C
:1008000031F083E00E9412031816190634F081E0DB
:1008100090E09B838A8380E090E0DF91CF91089500
:10082000CF93DF931F92CDB7DEB76983DC01ED91E3
:10083000FC910280F381E02D41E050E0BE016F5F4A
:100840007F4F09950F90DF91CF9108950F931F93DC
:10085000CF93DF938C01D0E0C0E0F801EC0FFD1FD7
:100860006491662341F08EED91E00E941004892B83
:1008700011F02196F2CFCE01DF91CF911F910F9110
:10088000089583E08093E9008091F200882319F0B5
:100890008AE38093E800089583E00E94010390E0DA
:1008A0000895CF93DF931F92CDB7DEB7FC01848507
:1008B000958597FD08C02FEF3FEF358724870F9070
:1008C000DF91CF910895CE0101960E94A401019776
:1008D00019F4898190E0F3CF8FEF9FEFF0CF0F9362
:1008E0001F93CF93DF931F92CDB7DEB78C01FC012E
:1008F0008485958597FF0BC0CE0101960E94A401C7
:10090000019771F4898190E0F80195878487F80157
:10091000848595850F90DF91CF911F910F91089558
:100920008FEF9FEFF1CFFC018485958597FD0BC07C
:100930009FB7F89482E08093E9008091F2009FBF16
:1009400090E0019608959FB7F89482E08093E900C3
:100950008091F2009FBF90E00895DC01FB011296A8
:100960002C911297848195812817190641F4918161
:100970008081813A31F49D7F81E0913009F080E0FF
:1009800008958132E1F79B3029F482811F968C9380
:1009900081E008959A3099F7828150968C93F8CF30
:1009A000DC01FB0188E4808389E4818384E4828321
:1009B0001D969C911D979F709F5B93831D968D91B3
:1009C0009C9124E0969587952A95E1F78F708F5B2F
:1009D000848385E00895EF92FF920F931F93CF9346
:1009E000DF93FB012081213889F52381223271F5C3
:1009F000DC0112964C91248135814217130631F5A2
:100A00008C01FC01C385D485F12CE12C209791F059
:100A10004C815D816A817B818E81811180E80E9499
:100A2000DB028F3F980759F0E80EF91E0990D88134
:100A3000C02DECCF81E0D8011F968C93C701DF91C8
:100A4000CF911F910F91FF90EF90089590E080E07B
:100A5000F6CFCF93DF93CDB7DEB769970FB6F89493
:100A6000DEBF0FBECDBFFC01DB018C918F5F8C938D
:100A70009E012D5F3F4F8DE0D9011D928A95E9F7C8
:100A800029E0298384E08A8391E09D8383E08E833B
:100A90002A8721E22B879C879D879F8722E2288BCC
:100AA00027E02B8B25E02C8B8E8B20E430E0388FD9
:100AB0002F8B998F82818B8395858685998B8A8BE5
:100AC000838180688D8B49E150E0BE016F5F7F4F6D
:100AD00080E00E94DB0269960FB6F894DEBF0FBE7D
:100AE000CDBFDF91CF910895CF93DF9380916F01B8
:100AF000811167C081E0809362018093630128E6E1
:100B000031E03093650120936401109267011092E7
:100B1000660125E331E030935F0120935E0110927E
:100B20006A011092690110926C0110926B0180931E
:100B30006D0180936E0181EC809368010E94B50382
:100B4000FC01818190916201482F490F5527551F63
:100B5000483051059CF5A281B381109709F52EE527
:100B600031E03383228320812093600180936101EF
:100B700080916301820F808320916401A22FB09144
:100B800065018A2F821B8917C8F481813D91C82F86
:100B9000D0E0C050DF4F38838F5F8183F2CFD9011F
:100BA00018962D913C91199721153105C1F72EE525
:100BB00031E019963C932E931897D5CF81E080931E
:100BC0006F018EE591E0DF91CF9108951F93CF9350
:100BD000DF93162F0E94CE01EC01812F0E94CE01DF
:100BE000AC0121E030E0219711F030E020E0220F4D
:100BF000331F81E04130510509F080E0822BDF9105
:100C0000CF911F9108958F929F92AF92BF920F93B1
:100C10001F93CF93DF93CDB7DEB7A1970FB6F894AC
:100C2000DEBF0FBECDBF19A2423008F44AE08E01EC
:100C30000F5D1F4F842E912CB12CA12CA501940186
:100C40000E948310E62FB901CA01EA3044F5E05D45
:100C5000D801EE938D01232B242B252B79F790E0DF
:100C600080E0109769F0FD0101900020E9F73197CD
:100C7000AF014A1B5B0BBD018EED91E00E94FA03B0
:100C8000A1960FB6F894DEBF0FBECDBFDF91CF9116
:100C90001F910F91BF90AF909F908F900895E95C46
:100CA000D7CFCF93DF930E942604EC0142E050E0BF
:100CB0006BE571E08EED91E00E94FA038C0F9D1FB1
:100CC000DF91CF91089581EB90E00E9451068CEA6C
:100CD00090E00C9451064F925F926F927F928F92A8
:100CE0009F92AF92BF92CF92DF92EF92FF920F93BB
:100CF0001F93CF93DF93CDB7DEB74DB65EB680912D
:100D0000BF022DB73EB7281B31090FB6F8943EBF7E
:100D10000FBE2DBF8DB79EB701963C018090620239
:100D2000912C80915E0290915F02D301FC019F01A2
:100D3000281B390B281539051CF421912D93F7CF69
:100D400080916302882359F180915A0290915B024D
:100D500028E097FD09C068E671E00E94B4106DE2DA
:100D600070E00E94B410262F80915C0290915D0289
:100D700068E097FD08C068E671E00E94B4106DE27B
:100D800070E00E94B410F301E80DF91D90E1699F35
:100D9000B0011124262B2083F40131964F01530119
:100DA000A80CB91CC0906A02D0906B02E0906C0253
:100DB000F0906D0200916602109167022091680226
:100DC0003091690240912E0250912F0260913002C1
:100DD000709131028091640281700E940C01880E32
:100DE000991E5301A80CB91CC0907202D0907302D6
:100DF000E0907402F090750200916E0210916F0203
:100E00002091700230917102409132025091330270
:100E100060913402709135028091640286958170F0
:100E20000E940C01880E991E5301A80CB91CC09099
:100E30007A02D0907B02E0907C02F0907D020091DB
:100E400076021091770220917802309179024091D8
:100E500036025091370260913802709139028091C8
:100E6000640282FB882780F90E940C01880E991E7B
:100E70005301A80CB91CC0908202D0908302E0906C
:100E80008402F090850200917E0210917F022091F1
:100E900080023091810240913A0250913B02609170
:100EA0003C0270913D028091640283FB882780F9A7
:100EB0000E940C01880E991E5301A80CB91CC09009
:100EC0008A02D0908B02E0908C02F0908D0200910B
:100ED0008602109187022091880230918902409108
:100EE0003E0250913F026091400270914102809118
:100EF0006402829581700E940C01880E991E530134
:100F0000A80CB91CC0909202D0909302E090940279
:100F1000F090950200918E0210918F022091900224
:100F200030919102409142025091430260914402FB
:100F3000709145028091640285FB882780F90E94A8
:100F40000C01880E991E5301A80CB91CC0909A027E
:100F5000D0909B02E0909C02F0909D02009196023E
:100F600010919702209198023091990240914A0283
:100F700050914B0260914C0270914D02809165023C
:100F800081700E940C01880E991E5301A80CB91C97
:100F9000C090A202D090A302E090A402F090A5021B
:100FA00000919E0210919F022091A0023091A10217
:100FB0004091460250914702609148027091490267
:100FC00080916502869581700E940C01880E991EA1
:100FD0005301A80CB91CC090AA02D090AB02E090BB
:100FE000AC02F090AD020091A6021091A7022091F0
:100FF000A8023091A90240914E0250914F02609197
:101000005002709151028091650282FB882780F91D
:101010000E940C01880E991E5301A80CB91CC090A7
:10102000B202D090B302E090B402F090B502009109
:10103000AE021091AF022091B0023091B102409106
:101040005202509153026091540270915502809166
:10105000650283FB882780F90E940C01880D991D89
:101060005301A80EB91EC090BA02D090BB02E09006
:10107000BC02F090BD020091B6021091B70220911F
:10108000B8023091B90240915602509157026091D6
:1010900058027091590280916502829581700E9478
:1010A0000C010E9474054C014091BF028091BE0268
:1010B00050E05A01FFEFAF1ABF0A2DB73EB72A1909
:1010C0003B090FB6F8943EBF0FBE2DBF0DB71EB73C
:1010D0000F5F1F4FEDB7FEB78183B301C8010196C3
:1010E0000E940712F4018381A501B80180640E9467
:1010F00012030FB6F8945EBE0FBE4DBEDF91CF91C6
:101100001F910F91FF90EF90DF90CF90BF90AF9025
:101110009F908F907F906F905F904F900895E82FF1
:10112000E695E695E69520915E0230915F02E20F2A
:10113000F32FF11D282F277081E090E0A0E0B0E0B0
:1011400004C0880F991FAA1FBB1F2A95D2F72081C0
:10115000822B80838091600281110C946B0608952C
:10116000E82FE695E695E69520915E0230915F02C4
:10117000E20FF32FF11D282F277081E090E0A0E00F
:10118000B0E004C0880F991FAA1FBB1F2A95D2F791
:1011900080959081892380838091600281110C94D5
:1011A0006B0608951F93CF93DF93D82F162FC1E0BE
:1011B000613009F4C0E086E08D0F880F8C0F9091AC
:1011C0006102891710F40E948F082FB7F89480915C
:1011D000D4019091D501A091D601B091D7012FBF34
:1011E0002D2F30E0F901EE0FFF1FE20FF31FEC0F80
:1011F000F11DEE0FFF1FEE0FFF1FED5EFE4F8396FA
:10120000A11DB11D83839483A583B68383EC90E0F5
:101210000E9426046D2F70E090E080E04AE00E947A
:10122000030681EC90E00E9426048BEB90E01130E5
:1012300011F48EEB90E0DF91CF911F910C94510649
:101240001F920F920FB60F9211242F933F938F93FB
:101250009F93AF93BF938091D4019091D501A091BA
:10126000D601B091D7013091D30123E0230F2D3760
:1012700058F50196A11DB11D2093D3018093D4018F
:101280009093D501A093D601B093D7018091D80156
:101290009091D901A091DA01B091DB010196A11DD5
:1012A000B11D8093D8019093D901A093DA01B09336
:1012B000DB01BF91AF919F918F913F912F910F9043
:1012C0000FBE0F901F90189526E8230F0296A11DC0
:1012D000B11DD2CF1F920F920FB60F9211248F9390
:1012E0009F938091E1009091E100937F9093E100C2
:1012F00083FF0FC01092E90091E09093EB001092F1
:10130000EC0092E39093ED001092DD0198E0909351
:10131000F00082FF22C093E09093E9009091F200E8
:10132000992319F09AE39093E8009091880199230A
:1013300041F090918801915090938801911101C0E2
:101340005D989091DC01992341F09091DC019150DE
:101350009093DC01911101C0289884FF18C08091FE
:10136000E2008E7E81608093E2008091E1008F7EBA
:101370008093E100809189018E7E80618093890154
:101380009F918F910F900FBE0F901F90189580FF27
:10139000F7CF8091E2008E7E80618093E2008091A1
:1013A000E1008E7E8093E100809189018E7E8160D4
:1013B000E5CF1F920F920FB60F921124CF92DF92BA
:1013C000EF92FF920F931F932F933F934F935F934F
:1013D0006F937F938F939F93AF93BF93EF93FF93FD
:1013E000CF93DF93CDB7DEB76C97DEBFCDBF109242
:1013F000E9008091E80083FF25C068E0CE014596B2
:101400000E94A80382EF8093E8008D8987FF39C08E
:101410009091E80090FFFCCF982F907609F034C1AE
:101420009E894F89588D2F89F88C911131C0803851
:1014300061F580918A018093F1001092F1008EEFA6
:101440008093E8006C960FB6F894DEBF0FBECDBF58
:10145000DF91CF91FF91EF91BF91AF919F918F91CC
:101460007F916F915F914F913F912F911F910F91BC
:10147000FF90EF90DF90CF900F900FBE0F901F90D6
:1014800018959EEF9093E800C7CF1092F100D5CF4A
:10149000913059F48111D3CF4130510581F68091BB
:1014A0008A018D7F80938A01CACF933049F48111DC
:1014B000C6CF4130510519F680918A018260F2CF82
:1014C000953041F48091E80080FFFCCF20682093A4
:1014D000E300B5CF963009F0A9C00B8D1C8D22E03A
:1014E0001092E9001092860110928501F2122EC02E
:1014F00010928401109283010E94C9031F8299E017
:101500009983FA8291E09E8390EA98879AEF99876F
:101510002091850130918601275F3F4F3C832B83CB
:101520008D831092E900109286011092850110932C
:1015300084010093830149E050E0BE016F5F7F4F5B
:1015400080E00E94DB020E94C90379CF10938401DE
:10155000009383010E94B503DC0112960D911C914A
:101560000115110509F451C1D801ED91FC910480D8
:10157000F581E02DBE016B5E7F4FC8010995009794
:1015800009F03EC1F80100851185EACFF3E0FF12B2
:101590000EC08F89882309F440C0823061F440E88E
:1015A0006DE085E291E00E94A802811148CF81E2BE
:1015B0008093EB0047CF813029F440E867E08DE16C
:1015C00091E0F1CF833099F70E94B503DC011296C8
:1015D000ED90FC908E010F5F1F4F6801E114F10444
:1015E00079F0D701ED91FC910680F781E02DB801EB
:1015F000C7010995080F111DF701E084F184EECFB2
:10160000D8011C92F60101900020E9F73197BF0143
:101610006C197D0940E0C601C6CF67E071E0FB01AF
:10162000449150E080E80E94DB0209CF973009F432
:10163000BECF983021F481E08093F10000CF993043
:1016400009F0FDCE837009F0B2CFE1E0F1E081E076
:1016500031E096E32191222371F08093E9003093E9
:10166000EB00DF0111972C912093EC009093ED009B
:101670008F5F873079F78EE78093EA001092EA0057
:101680008F898093DD01DBCE8B8D9C8D1092E900DC
:1016900010928601109285019093840180938301BA
:1016A000898D811192C08E899D89913A49F4813248
:1016B00009F07DCF47E050E06BE071E080E0B3CF10
:1016C000913209F074CF833269F48F89988DB0E03C
:1016D000A0E08093070190930801A0930901B093C3
:1016E0000A01ADCE803269F48091E80082FFFCCF20
:1016F00067E08BE091E00E94A8038BEF8093E80005
:101700009ECE823209F09BCE8F8980931201EEEF3C
:10171000FFE7859194918B3F9C4D51F1E0E0F8E01B
:1017200080910B0190910C01A0910D01B0910E01DF
:10173000803B9440A105B105F1F48091120180FD38
:101740001AC0EE3F8AE0F80789F587E797E79183AB
:101750008083809160008093870188E19BE00FB6D1
:10176000F894A895809360000FBE9093600067CEB8
:10177000EEEFFAE0D5CF808191818737974709F066
:101780005ECEA89580916000886180936000809112
:10179000870180936000EE3F2AE0F20789F0809194
:1017A000FE0A9091FF0A9183808349CE80819181C6
:1017B0008737980751F29093FF0A8093FE0AC5CFAE
:1017C0001092FF0A1092FE0A3ACE0E94B503DC0185
:1017D00012960D911C910115110509F4E8CED8015E
:1017E000ED91FC910190F081E02DBE016B5E7F4F89
:1017F000C8010995811123CEF80100851185EBCF31
:10180000181619060CF41BCED2CEF1E0FF12BECE94
:101810006BE071E004CFEF92FF920F931F93CF9391
:10182000DF93CDB7DEB7C659D1090FB6F894DEBF46
:101830000FBECDBF1092E1011092E00188EE93E05F
:10184000A0E0B0E08093E2019093E301A093E40173
:10185000B093E5018DE491E09093DF018093DE0188
:101860008FEF9FEF9093EB018093EA0110925F025C
:1018700010925E021092620210926602109267024B
:1018800010926802109269028FEF93E0A0E0B0E03E
:1018900080936A0290936B02A0936C02B0936D02E6
:1018A00010926E0210926F021092700210927102EA
:1018B0008093720290937302A0937402B0937502A6
:1018C00010927602109277021092780210927902AA
:1018D00080937A0290937B02A0937C02B0937D0266
:1018E00010927E0210927F0210928002109281026A
:1018F0008093820290938302A0938402B093850226
:101900001092860210928702109288021092890229
:1019100080938A0290938B02A0938C02B0938D02E5
:1019200010928E0210928F021092900210929102E9
:101930008093920290939302A0939402B0939502A5
:1019400010929602109297021092980210929902A9
:1019500080939A0290939B02A0939C02B0939D0265
:1019600010929E0210929F021092A0021092A10269
:101970008093A2029093A302A093A402B093A50225
:101980001092A6021092A7021092A8021092A90229
:101990008093AA029093AB02A093AC02B093AD02E5
:1019A0001092AE021092AF021092B0021092B102E9
:1019B0008093B2029093B302A093B402B093B502A5
:1019C0001092B6021092B7021092B8021092B902A9
:1019D0008093BA029093BB02A093BC02B093BD0265
:1019E00043E04093BE0290E1909361021092630243
:1019F000109264021092650225E0298381E08A83B7
:101A000039E03B832C8351EA5D838E8355E85F8305
:101A1000488729873A8729E12B878C8729E22D87F8
:101A20009E8725E12F87188A25E2298B8A8B25E757
:101A30002B8B8C8B85E98D8B9E8B85E58F8B188E00
:101A400085E6898F1A8E81E88B8F82E08C8F80ECFF
:101A50008D8F8DE190E00E94E2107C018DE1FE010E
:101A60003196D70101900D928A95E1F787E090E0D9
:101A70000E94E2108C01DC0111961C921E921396BA
:101A8000FC92EE9212978DE190E015969C938E93C6
:101A9000149716961C920E947405FC01A385B485C8
:101AA000109709F0A2C01487038785859685D80111
:101AB00014962D913C91820F931F96878587909164
:101AC0006102892F869586958695977009F095C055
:101AD0008093620210916202812F90E0009711F4CE
:101AE00081E090E00E94E21090935F0280935E029A
:101AF00081E090916302911101C080E0810F809399
:101B0000BF0210922E0210922F02109230021092F9
:101B1000310210923202109233021092340210926B
:101B2000350210923602109237021092380210924B
:101B3000390210923A0210923B0210923C0210922B
:101B40003D0210923E0210923F021092400210920B
:101B500041021092420210924302109244021092EB
:101B600045021092460210924702109248021092CB
:101B7000490210924A0210924B0210924C021092AB
:101B80004D0210924E0210924F021092500210928B
:101B9000510210925202109253021092540210926B
:101BA000550210925602109257021092580210924B
:101BB00059028FEF9FEF90935B0280935A029093AC
:101BC0005D0280935C0290E080E020916202281721
:101BD0001906A9F0A4F0E0915E02F0915F02E80F0F
:101BE000F91F10820196F1CFDC018D919C91119724
:101BF0000097D1F70D931C9358CF8F5F69CFCA56CA
:101C0000DF4F0FB6F894DEBF0FBECDBFDF91CF918F
:101C10001F910F91FF90EF900895CF93DF9300D025
:101C200000D000D0CDB7DEB7789484B5826084BD93
:101C300084B5816084BD85B5826085BD85B58160D0
:101C400085BD80916E00816080936E00109281004E
:101C50008091810082608093810080918100816009
:101C600080938100809180008160809380008091CA
:101C700091008260809391008091910081608093B7
:101C80009100809190008160809390008091C100CC
:101C900084608093C1008091C10082608093C10004
:101CA0008091C10081608093C1008091C3008160F8
:101CB0008093C3008091C00082608093C0008091B7
:101CC000C20081608093C20080917A00846080931A
:101CD0007A0080917A00826080937A0080917A0005
:101CE000816080937A0080917A00806880937A0086
:101CF0001092DD0110928A01109289018091D70023
:101D000081608093D70080EA8093D80089B5806194
:101D100089BD89B5826089BD09B400FEFDCF0E94EE
:101D200062028091D8008F7C80618093D80080917E
:101D3000E000807F8093E0008091E1008E7E8093C0
:101D4000E1008DE08093E200559A209A5D982898F2
:101D50008FEF9FEF9093EB018093EA012BE831E046
:101D60003A8329830DE311E0D801FD908D018F2D79
:101D70000E947C018F2D0E94CE0121E0892B09F069
:101D800020E0E981FA81208321832FB7F8948091A4
:101D9000D4019091D501A091D601B091D7012FBF68
:101DA000E981FA8182839383A483B5833696FA838B
:101DB000E983F1E009341F07B9F620911301298363
:101DC000822F0E947C01309114013D83832F0E9459
:101DD0007C016D8189810E94E60580931501409107
:101DE0001F014983842F0E947C01509120015D8353
:101DF000852F0E947C016D8189810E94E605809378
:101E0000210181E0809360020E946B060BE811E0E3
:101E1000198280916102D8019C91992301F1B981C5
:101E2000B81720F1F981FF5FF9830A5F1F4FFC307B
:101E300081F70E94630690E0892E90E0992E8EED46
:101E400091E00E94930418161906A4F48EED91E017
:101E50000E9451048F3399F70E946306F0CFE98105
:101E6000E81700F78E2F0E94B008DCCF89810E940E
:101E70008F08D8CF8FB7F8944090D4015090D501F7
:101E80006090D6017090D7018FBF2BE831E03E8380
:101E90002D838DE3A82E81E0B82EC12CD12C7601A4
:101EA0003C2CD5018D915D010E94CE018C0161E039
:101EB000892B09F060E0ED81FE819181691729F09D
:101EC00061834282538264827582AD81BE811296A3
:101ED0002D913D914D915C911597D301C201821BCB
:101EE000930BA40BB50B0597A105B10520F1AD81AE
:101EF000BE819C916917F9F06C9380916102011584
:101F0000110509F461C0381608F465C089E391E051
:101F10000E9426044AE0C701B6010E94030687E337
:101F200091E00E94260485E391E0012B11F083E308
:101F300091E00E945106ED81FE813696FE83ED838D
:101F4000FFEFCF1ADF0AEF0AFF0A2CE0C216D10416
:101F5000E104F10409F0A4CF8FB7F894C090D40144
:101F6000D090D501E090D601F090D7018FBF43E12A
:101F700051E05A83498310E0A981BA8111966C918E
:101F800011978C910E94E605E981FA812281F4E0A3
:101F90002F9F90011124282B2D3019F5A981BA818A
:101FA00012968C9381E0A981BA811B969C911B9714
:101FB000890F84300CF46EC084501B968C9361E0C2
:101FC000812F0E94D20828C0381608F09FCF832D99
:101FD0000E948F089BCF832D0E94B00897CF11E0FD
:101FE000CBCF243021F4E981FA818283DBCF223008
:101FF000A9F22B30C1F32E3031F099EF920F9230CD
:1020000010F0213031F4A981BA8112968C938FEFB0
:10201000CACFE981FA81828386E0810F782E770C1E
:10202000A980BA80B3E0AB0EB11C00E0F50181914C
:102030009191A191B1915F010097A105B105C1F006
:10204000A7019601281B390B4A0B5B0BDA01C9016A
:10205000B7FD0EC0872D800F90916102891710F493
:102060000E94B008F5013497108211821282138207
:102070000130E9F449815A81445F5F4F5A834983B3
:10208000113009F0ACCF8114910409F4D8CE0E942C
:102090000000D5CE8D3F24F0E981FA818387BCCF43
:1020A0008C5FA981BA811B968C936FEF89CF01E079
:1020B000BDCF052E97FB1EF400940E94701057FDB3
:1020C00007D00E94831007FC03D04EF40C947010CC
:1020D00050954095309521953F4F4F4F5F4F089554
:1020E00090958095709561957F4F8F4F9F4F089584
:1020F0000E94A510A59F900DB49F900DA49F800DE8
:10210000911D11240895A1E21A2EAA1BBB1BFD01EB
:102110000DC0AA1FBB1FEE1FFF1FA217B307E407C6
:10212000F50720F0A21BB30BE40BF50B661F771F1E
:10213000881F991F1A9469F76095709580959095FE
:102140009B01AC01BD01CF010895A29FB001B39FD7
:10215000C001A39F700D811D1124911DB29F700DB0
:10216000811D1124911D089597FB072E16F40094EC
:1021700007D077FD09D00E94CE1007FC05D03EF4B1
:10218000909581959F4F0895709561957F4F089523
:10219000EE0FFF1F0590F491E02D0994AA1BBB1BC5
:1021A00051E107C0AA1FBB1FA617B70710F0A61B57
:1021B000B70B881F991F5A95A9F780959095BC0178
:1021C000CD0108950F931F93CF93DF938230910534
:1021D00010F482E090E0E091C202F091C30230E09E
:1021E00020E0B0E0A0E0309799F42115310509F422
:1021F0004AC0281B390B24303105D8F58A819B81D0
:102200006115710589F1FB0193838283FE0111C081
:10221000408151810281138148175907E0F0481726
:10222000590799F4109761F012960C931297139630
:102230001C933296CF01DF91CF911F910F9108959A
:102240000093C2021093C302F4CF2115310551F05F
:102250004217530738F0A901DB019A01BD01DF01E4
:10226000F801C1CFEF01F9CF9093C3028093C2026E
:10227000CDCFFE01E20FF31F8193919322503109DC
:1022800039832883D7CF2091C0023091C102232BFC
:1022900041F420912D0130912E013093C102209301
:1022A000C00220912B0130912C012115310541F400
:1022B0002DB73EB740912F0150913001241B350BB3
:1022C000E091C002F091C102E217F307A0F42E1BC7
:1022D0003F0B2817390778F0AC014E5F5F4F24178A
:1022E000350748F04E0F5F1F5093C1024093C00264
:1022F000819391939FCFF0E0E0E09CCFCF93DF9369
:102300000097E9F0FC01329713821282A091C20279
:10231000B091C302ED0130E020E01097A1F42081DC
:102320003181820F931F2091C0023091C102281782
:10233000390709F061C0F093C102E093C002DF9158
:10234000CF910895EA01CE17DF07E8F54A815B8156
:102350009E0141155105B1F7E901FB83EA834991DB
:102360005991C40FD51FEC17FD0761F4808191814D
:102370000296840F951FE901998388838281938156
:102380009B838A83F0E0E0E012968D919C911397F5
:102390000097B9F52D913C911197CD010296820FCE
:1023A000931F2091C0023091C1022817390739F6D6
:1023B000309751F51092C3021092C202B093C1023D
:1023C000A093C002BCCFD383C28340815181840FCC
:1023D000951FC817D90761F44E5F5F4F88819981B7
:1023E000480F591F518340838A819B819383828345
:1023F0002115310509F0B0CFF093C302E093C2027A
:102400009ECFFD01DC01C0CF13821282D7CFFB012A
:10241000DC0102C001900D9241505040D8F7089560
:04242000F894FFCF5E
:1024240000C18081000000FFFFFFFF00E100000009
:10243400000000121300000000000000000000145F
:1024440015000000000000000000000000C402802D
:102454000000000000AD042905EB04D004020304CD
:1024640005060708090A100E0F000000001004FA00
:0E247400034C044104930451046F040D0A004C
:00000001FF
