:100000000C9465000C948D000C948D000C948D0064
:100010000C948D000C948D000C948D000C948D002C
:100020000C948D000C948D000C948D000C9419038D
:100030000C948D000C948D000C948D000C948D000C
:100040000C9477020C948D000C94E7020C94C1027E
:100050000C948D000C948D000C948D000C948D00EC
:100060000C948D000C948D004B454E44004B3A6728
:10007000617567653D340000000000240027002AF8
:100080000000000000250028002B000404040404E4
:100090000404040202020202020303030303030135
:1000A000020408102040800102040810200102040C
:1000B00008102000000008000201000003040700EF
:1000C0000000000000000000D50311241FBECFEF88
:1000D000D8E0DEBFCDBF11E0A0E0B1E0E2EFFFE08D
:1000E00002C005900D92AA31B107D9F722E0AAE12A
:1000F000B1E001C01D92AA33B207E1F710E0C5E6F6
:10010000D0E004C02197FE010E94E607C436D10763
:10011000C9F70E943A040C94F7070C94000090E091
:10012000FC01ED54FF4F2491FC01E156FF4F349147
:10013000FC01E557FF4FE491EE23C9F0222339F08B
:10014000233001F1A8F4213019F1223029F1F0E037
:10015000EE0FFF1FEF57FF4FA591B4918FB7F894A3
:10016000EC91611126C030953E233C938FBF0895DA
:100170002730A9F02830C9F0243049F78091800059
:100180008F7D03C0809180008F7780938000DFCFC8
:1001900084B58F7784BDDBCF84B58F7DFBCF809115
:1001A000B0008F778093B000D2CF8091B0008F7D68
:1001B000F9CF3E2BDACFAF92BF92CF92DF92EF9280
:1001C000FF920F931F93CF93DF936C017B018B0101
:1001D000040F151FEB015E01AE18BF08C017D10751
:1001E00059F06991D601ED91FC910190F081E02DDB
:1001F000C6010995892B79F7C501DF91CF911F9130
:100200000F91FF90EF90DF90CF90BF90AF90089547
:10021000FC01538D448D252F30E0842F90E0821B0C
:10022000930B541710F0CF96089501970895FC0191
:10023000918D828D981761F0A28DAE0FBF2FB11DE9
:100240005D968C91928D9F5F9F73928F90E0089541
:100250008FEF9FEF0895FC01918D828D981731F0FB
:10026000828DE80FF11D858D90E008958FEF9FEF4F
:100270000895FC01918D228D892F90E0805C9F4F25
:10028000821B91098F73992708958AE691E00E9455
:10029000390121E0892B09F420E0822F089580E0C4
:1002A00090E0892B29F00E94450181110C940000F7
:1002B0000895FC01A48DA80FB92FB11DA35ABF4FFB
:1002C0002C91848D90E001968F739927848FA68955
:1002D000B7892C93A089B1898C91837080648C93A9
:1002E000938D848D981306C00288F389E02D808158
:1002F0008F7D80830895EF92FF920F931F93CF938A
:10030000DF93EC0181E0888F9B8D8C8D98131AC050
:10031000E889F989808185FF15C09FB7F894EE8937
:10032000FF896083E889F989808183708064808394
:100330009FBF81E090E0DF91CF911F910F91FF90DF
:10034000EF900895F62E0B8D10E00F5F1F4F0F7387
:100350001127E02E8C8D8E110CC00FB607FCFACF42
:10036000E889F989808185FFF5CFCE010E94590186
:10037000F1CFEB8DEC0FFD2FF11DE35AFF4FF08213
:100380009FB7F8940B8FEA89FB8980818062CFCF79
:100390000F931F93CF93DF938C01D0E0C0E0F8015F
:1003A000EC0FFD1F6491662341F08AE691E00E9404
:1003B0007B01892B11F02196F2CF42E050E066E1FB
:1003C00071E08AE691E00E94DB008C0F9D1FDF91B7
:1003D000CF911F910F910895CF93DF93EC01888DFA
:1003E0008823B9F0AA89BB89E889F9898C9185FDB0
:1003F00003C0808186FD0DC00FB607FCF7CF8C913E
:1004000085FFF2CF808185FFEDCFCE010E9459019B
:10041000E9CFDF91CF9108958F929F92AF92BF92D3
:10042000FF920F931F93CF93DF93FC01F0808BE03B
:100430008F1508F44AC0828108E512E0081B1109F3
:1004400087FD1395000F111F000F111F8181C8E850
:10045000D0E0C81BD10987FDD395CC0FDD1FCC0F91
:10046000DD1F4E010D2E000CAA08BB089801012EBD
:10047000000C440B550B281939094A095B09DB01AB
:100480000E948C0724EB30E040E050E00E946207BD
:10049000820E931EA41EB51E8C169D062CF0E8013C
:1004A000801691060CF4E4012297CC0FDD1F2FB7C4
:1004B000F8948F2D90E0FC01EE0FFF1FE80FF91F5D
:1004C000E95FFD4FD283C1832FBFDF91CF911F9191
:1004D0000F91FF90BF90AF909F908F9008958DE601
:1004E00090E00E94C80188E690E00C94C8011F9239
:1004F0000F920FB60F9211242F933F938F939F93D8
:10050000AF93BF938091660190916701A0916801BC
:10051000B09169013091650123E0230F2D3758F523
:100520000196A11DB11D20936501809366019093F2
:100530006701A0936801B093690180916101909176
:100540006201A0916301B09164010196A11DB11DEA
:100550008093610190936201A0936301B093640161
:10056000BF91AF919F918F913F912F910F900FBEAF
:100570000F901F90189526E8230F0296A11DB11D1C
:10058000D2CF1F920F920FB60F9211242F933F9349
:100590004F935F936F937F938F939F93AF93BF938B
:1005A000EF93FF938AE691E00E945901FF91EF914A
:1005B000BF91AF919F918F917F916F915F914F917B
:1005C0003F912F910F900FBE0F901F9018951F9283
:1005D0000F920FB60F9211242F938F939F93EF9347
:1005E000FF93E0917A01F0917B018081E09180019D
:1005F000F091810182FD1BC09081809183018F5F0A
:100600008F7320918401821741F0E0918301F0E023
:10061000E659FE4F958F80938301FF91EF919F9153
:100620008F912F910F900FBE0F901F901895808182
:10063000F4CF1F920F920FB60F9211242F933F9376
:100640004F935F936F937F938F939F93AF93BF93DA
:10065000CF93DF93EF93FF9380911A01C0912B0208
:10066000D0E087FF24C01092850010928400809112
:100670001A018F5F80931A0180911A01082E000CD5
:10068000990B8C179D0724F480911A018C30C4F1CA
:100690008091840090918500049680349C4908F4F0
:1006A0007AC08091840090918500049676C08091F4
:1006B0001A01082E000C990B8C179D07C4F6E091C7
:1006C0001A018E2FEE0F990BFC01EE0FFF1FE80FA2
:1006D000F91FE95FFD4F808186FFC9CFE0911A01C4
:1006E0008E2FEE0F990BFC01EE0FFF1FE80FF91F85
:1006F000E95FFD4F808160E08F730E948F00B7CF6C
:100700002091840030918500E0911A018E2FEE0F28
:10071000990BFC01EE0FFF1FE80FF91FE95FFD4F7A
:1007200081819281820F931F90938900809388002A
:10073000E0911A018E2FEE0F990BFC01EE0FFF1FB7
:10074000E80FF91FE95FFD4F808186FF11C0E0913E
:100750001A018E2FEE0F990BFC01EE0FFF1FE80F11
:10076000F91FE95FFD4F808161E08F730E948F0068
:10077000FF91EF91DF91CF91BF91AF919F918F91B9
:100780007F916F915F914F913F912F910F900FBE8D
:100790000F901F90189580E49CE9909389008093B6
:1007A00088008FEF80931A01E3CF10926D011092B1
:1007B0006C0188EE93E0A0E0B0E080936E0190932E
:1007C0006F01A0937001B093710188E091E0909364
:1007D0006B0180936A0185EC90E0909377018093A0
:1007E000760184EC90E0909379018093780180EC1D
:1007F00090E090937B0180937A0181EC90E090935C
:100800007D0180937C0182EC90E090937F01809346
:100810007E0186EC90E0909381018093800110929C
:100820008301109284011092850110928601ECE2FE
:10083000F2E028E332E04FEF68EB7BE080912B029F
:100840008C30B0F491E0980F90932B02808390E06D
:10085000DC01AA0FBB1FA80FB91FA95FBD4F1296DD
:100860007C936E93119733962E173F0739F70895AF
:100870004083F9CFCF93DF9300D000D0CDB7DEB760
:10088000789484B5826084BD84B5816084BD85B56B
:10089000826085BD85B5816085BD80916E00816077
:1008A00080936E001092810080918100826080931D
:1008B000810080918100816080938100809180001F
:1008C0008160809380008091B10084608093B1004A
:1008D0008091B00081608093B00080917A00846044
:1008E00080937A0080917A00826080937A00809170
:1008F0007A00816080937A0080917A00806880938A
:100900007A001092C100E0917A01F0917B0182E0BF
:100910008083E0917601F09177011082E091780177
:10092000F091790180E1808310928201E0917E0153
:10093000F0917F0186E08083E0917C01F0917D0160
:10094000808180618083E0917C01F0917D018081D4
:1009500088608083E0917C01F0917D0180818068D6
:100960008083E0917C01F0917D0180818F7D808387
:100970000E946F022FE1422E21E0522E3CE0232EF6
:1009800040E0642E40E0742E8AE691E00E94390136
:10099000892B09F436C18AE691E00E9417019091F3
:1009A00060018A3019F08D3009F018C19111F8C03A
:1009B00080915F01882309F4F3C0E82FF0E0E15E45
:1009C000FE4F108290911F01933409F4EEC09734CA
:1009D00049F09F3309F0E4C0813009F0E1C00E9482
:1009E0006F02DEC06AE370E080E291E00E94EC07F3
:1009F0008C01892B09F4D4C01C821B824AE050E090
:100A0000BE016D5F7F4F80E291E00E940D066B0199
:100A10007C018B819C810817190709F0C1C024E073
:100A2000C216D104E104F10408F0BAC01A82198296
:100A30000F5F1F4F4AE050E0BE016F5F7F4FC8015C
:100A40000E940D064B015C01E981FA810E171F0718
:100A500009F4A6C080818111A3C08601055E1E4FE6
:100A6000F8018081A601440F551F811185C0F60150
:100A7000E050FF4F3080FA01EC0DFD1DE45DFD4FAD
:100A800080818C3008F075C0232D30E0F901E156EB
:100A9000FF4F649125573F4FF9012491222399F08C
:100AA00030E0220F331FF901E958FF4FA591B491AF
:100AB000F901EF57FF4F859194918FB7F894EC911E
:100AC0006E2B6C938FBFFA01EC0DFD1DE45DFD4FA5
:100AD0008081682F70E09B01220F331F260F371F84
:100AE000D901A95FBD4F232D2F73322E9C91907C8D
:100AF000392A3C9211821282622D0E94DA07829D6D
:100B0000D001112470E060E0FD01E60FF71F9F01A6
:100B1000220F331FE20FF31FE95FFD4F908196FD17
:100B200016C06F5F7F4F6C30710571F781110FC078
:100B30001092800082E080938100109285001092D4
:100B40008400B19A80916F00826080936F00FA01F7
:100B5000EC0DFD1DE45DFD4FE0818E2F90E0FC016A
:100B6000EE0FFF1FE80FF91FE95FFD4F80818064E2
:100B7000808321E0F8012083CA018C0D9D1D845DD6
:100B80009D4F70E060E0B7FC09C0B401E5EB8E1644
:100B90009104A104B10414F064EB70E00E940C0213
:100BA00010925F0110926001EFCE8130C9F70BE126
:100BB00011E08CE2E82E82E0F82EF80181918F019D
:100BC000882329F070E060E0C7010E940C02F3E086
:100BD000EF0EF11C4016510681F7E2CF9111D4CEF1
:100BE000E0915F01EF3348F491E09E0F90935F0135
:100BF000F0E0E15EFE4F8083C7CE21E020936001EC
:100C0000C3CE6114710409F4BFCE0E94450188234C
:100C100009F4BACE0E940000B7CEB0E0A0E0E3E154
:100C2000F6E00C9495075C016B017A016115710582
:100C300019F0FB0191838083E114F10451F0C701A5
:100C40000297839730F040E030E020E090E072C0FF
:100C50005E01E5012196F5011081812F90E00E944F
:100C60002407892BA9F71D3201F52196F501118181
:100C700001E0E114F10409F4DAC0F0E1EF16F10447
:100C800009F082C0103359F488818F7D883509F0CE
:100C900076C0198122960260F0E1EF2EF12C812CB2
:100CA000912CA12C88E0B82E8CC01B3221F4E501D8
:100CB0002296F501118100E0DCCFEAE0EE16F104A6
:100CC00009F4BBC0F0E1EF16F10409F06DC0E7CF05
:100CD00078E0E72EF12C812C912CA12C60E1B62E2E
:100CE00070C03FE9310F3A3128F439EA332E80C021
:100CF00021E09AC0302F3170C114D10431F0222389
:100D000009F12197F601D183C08327FF21C060E05C
:100D100070E080E090E8311104C06FEF7FEF8FEF5B
:100D20009FE722E230E03093390220933802462FC9
:100D3000372F282F642F732F822FCDB7DEB7E1E135
:100D40000C94B10701FF04C02297F601D183C08340
:100D5000332341F090958095709561957F4F8F4F2B
:100D60009F4FE5CF97FFE3CF82E290E09093390267
:100D7000809338026FEF7FEF8FEF9FE7D8CF10E3BC
:100D8000E114F10409F4A4CF28E0E216F10409F417
:100D9000A2CF0CF092CF812C912CA12CE0E4BE2E9E
:100DA00082E0E816F10469F060E070E080E090E82D
:100DB00097010F2C000C440B550B0E944007490172
:100DC0005A0120E060E070E0CB0127010F2C000CFD
:100DD00066087708FE0150ED352E310E39E03315E7
:100DE00040F43FEB310F3A3108F07BCF49EC342E21
:100DF000310E3E141F040CF07DCF27FD15C0861662
:100E00009706A806B90678F0A30192010E94300760
:100E1000630D711D811D911D61307105810520E8F3
:100E2000920708F465CF2FEF21961081D3CF1033AE
:100E300009F42ACF2AE0E22EF12C9CEC892E982C82
:100E4000A82C9CE0B92EBDCF91110C942D078032B7
:100E500019F089508550C8F7089599278827089573
:100E6000DB018F939F930E948107BF91AF91A29F57
:100E7000800D911DA39F900DB29F900D1124089598
:100E8000A1E21A2EAA1BBB1BFD010DC0AA1FBB1F8E
:100E9000EE1FFF1FA217B307E407F50720F0A21B00
:100EA000B30BE40BF50B661F771F881F991F1A946D
:100EB00069F760957095809590959B01AC01BD0197
:100EC000CF010895052E97FB1EF400940E94790728
:100ED00057FD07D00E94400707FC03D04EF40C9446
:100EE000790750954095309521953F4F4F4F5F4F73
:100EF000089590958095709561957F4F8F4F9F4F86
:100F000008950E94CB07A59F900DB49F900DA49FBC
:100F1000800D911D11240895B7FF0C9481070E9444
:100F20008107821B930B08952F923F924F925F92FD
:100F30006F927F928F929F92AF92BF92CF92DF92E9
:100F4000EF92FF920F931F93CF93DF93CDB7DEB74E
:100F5000CA1BDB0B0FB6F894DEBF0FBECDBF0994E2
:100F60002A88398848885F846E847D848C849B8439
:100F7000AA84B984C884DF80EE80FD800C811B8147
:100F8000AA81B981CE0FD11D0FB6F894DEBF0FBE76
:100F9000CDBFED010895A29FB001B39FC001A39FF3
:100FA000700D811D1124911DB29F700D811D1124A2
:100FB000911D0895991B79E004C0991F961708F0B8
:100FC000961B881F7A95C9F780950895EE0FFF1F2D
:100FD0000590F491E02D0994FC018191861721F090
:100FE0008823D9F7992708953197CF010895F89468
:020FF000FFCF31
:100FF20003050609000000007B01DB000801EC018B
:0A100200390117012B010D0A00004F
:00000001FF
