:100000000C94D2000C94FA000C94FA000C94FA00B0
:100010000C94FA000C94FA000C94FA000C94FA0078
:100020000C94FA000C94FA000C9499040C940805B2
:100030000C94FA000C94FA000C94FA000C94FA0058
:100040000C94FA000C943A070C94FA000C94FA0001
:100050000C94FA000C94FA000C94FA000C944F04DF
:100060000C94FA000C94FA000C94FA000C94FA0028
:100070000C94FA000C94FA000C94FA000C94FA0018
:100080000C94FA000C94FA000C94FA000C94FA0008
:100090000C94FA000C94FA000C94FA000C94FA00F8
:1000A0000C94FA000C94FA000C94FA004B454E4460
:1000B000004B3A67617567653D3400080B0002022A
:1000C00002000009040000010202000005240010E3
:1000D000010524010101042402060524060001078C
:1000E00005810310004009040100020A0000000716
:1000F00005020240000007058302400000040309D6
:100100000412010002EF0201404123378000010187
:10011000020301556E6B6E6F776E004172647569F4
:100120006E6F204D6963726F00000000002400278D
:10013000002A002D00300000000000250028002BC0
:10014000002E00310004040404040304050202022A
:100150000204030202020206060606060604040260
:100160000202040404080201104080401020408074
:1001700040800802040180402010020110801020FD
:100180004040200000000200090F000003040100AD
:100190000C00000000000000000000000000000053
:1001A0000000F60711241FBECFEFDAE0DEBFCDBF9F
:1001B00011E0A0E0B1E0E2E2F8E102C005900D92AA
:1001C000AC32B107D9F722E0ACE2B1E001C01D9238
:1001D000A531B207E1F710E0C2EDD0E004C02197ED
:1001E000FE010E94FE0BC13DD107C9F70E943508F0
:1001F0000C940F0C0C940000FC0180919101882359
:1002000011F13FB7F89482E08093E9002091F20069
:10021000822F90E01816190614F481E090E08823EC
:1002200039F0289A44E6409390014091F1004083D0
:10023000222339F02091F200211103C02BE62093F4
:10024000E8003FBF08958FEF9FEF08952FB7F89410
:1002500083E08093E9009091E800892F807295FFF8
:1002600004C09091F20080E4891B2FBF0895809113
:10027000880181110DC082E08093840184E0809325
:100280008501109287011092860181E08093880198
:1002900084E891E00895282F30E0F901ED57FE4FF2
:1002A0009491F901EC59FE4F84912B5B3E4FF9017B
:1002B0002491222309F430C09923E9F091509F3012
:1002C000D0F4E92FF0E0E959FE4F0C94FE0B9501B4
:1002D000990176018D0191017B017B017B019C01DC
:1002E000A201A601AA01B0017B01B4019091800096
:1002F0009F7790938000E22FF0E0EE0FFF1FE95C04
:10030000FE4FA591B4919FB7F894EC91611132C062
:1003100080958E238C939FBF0895909180009F7D40
:10032000E8CF90918000977FE4CF94B59F7794BDFC
:10033000E2CF94B59F7DFBCF909190009F779093F3
:100340009000D9CF909190009F7DF9CF909190002F
:10035000977FF5CF9091C0009F779093C000CBCF4F
:100360009091C0009F7DF9CF9091C200977F9093AC
:10037000C200C1CF8E2BCECF3FB7F89480918001C1
:1003800090918101A0918201B091830126B5A89B33
:1003900005C02F3F19F00196A11DB11D3FBFBA2F17
:1003A000A92F982F8827BC01CD01620F711D811DD7
:1003B000911D42E0660F771F881F991F4A95D1F75C
:1003C0000895CF92DF92EF92FF920E94BC016B01E1
:1003D0007C010E94BC016C197D098E099F09683E51
:1003E000734081059105A8F3FF90EF90DF90CF90C7
:1003F000089540912F015091300120912D013091AD
:100400002E0142175307B4F49091E8009570E1F380
:100410009091E80092FD19C08093F10080912F0126
:100420009091300101968F739927892B19F48EEFE3
:100430008093E80080912F01909130010196909374
:10044000300180932F0181E0089580E00895EF92BC
:10045000FF920F931F93CF93DF93F82E192FE62E61
:10046000042F81E0860F880F0E94F90183E00E942B
:10047000F901CF2DD12FEC0EFD2EF11CCE15DF058D
:10048000B9F007FF13C0FE0184910E94F901182FF3
:1004900080E00E94F901812321968111EFCFDF9145
:1004A000CF911F910F91FF90EF9008958881EDCF2C
:1004B00081E0F5CFDF92EF92FF920F931F93CF93DE
:1004C000DF93D82E8A01EB017B01E40EF51ECE15D9
:1004D000DF0559F0D7FE12C0FE0184910E94F90198
:1004E00021968111F4CF0FEF1FEFC801DF91CF915B
:1004F0001F910F91FF90EF90DF9008958881EECFCC
:100500000F931F93CF93DF931F92CDB7DEB782E097
:10051000898342E450E06BEB70E080E80E945A026D
:100520000E943701DC0112960D911C9101151105F5
:1005300089F0D801ED91FC910280F381E02DBE019C
:100540006F5F7F4FC801099597FD04C0F8010085D2
:100550001185ECCF89810F90DF91CF911F910F9181
:100560000895615030F02091F100FC012083019644
:10057000F8CF289A84E68093900108958F929F92F5
:10058000AF92BF92CF92DF92EF92FF920F931F93A1
:10059000CF93DF936C017B018A0180910B0188234B
:1005A00009F458C080919101882309F453C08091C7
:1005B000330180FF05C08091E00082608093E000FD
:1005C000E801B12C8AEFA82E93E0892E2AE3922E1F
:1005D000209711F4BB20B9F10E942601811106C0B9
:1005E000AA94AA20B9F10E94E101F2CF8C171D064E
:1005F00011F00CF08C2F9FB7F8948092E9002091B5
:10060000E80025FD02C09FBFE3CF282F30E0C21BCA
:10061000D30BF701815020F041914093F100FACFC4
:10062000E20EF31EBB2021F09092E800B12CEBCF3C
:100630008091E80085FDE7CF9092E800BB24B39459
:10064000209709F3F3CF5D9A84E680933201101668
:1006500011063CF081E090E0F6019383828310E084
:1006600000E0C801DF91CF911F910F91FF90EF90B3
:10067000DF90CF90BF90AF909F908F900895CF93D1
:10068000DF931F92CDB7DEB76983DC01ED91FC915A
:100690000280F381E02D41E050E0BE016F5F7F4FAB
:1006A00009950F90DF91CF9108950F931F93CF93EA
:1006B000DF938C01D0E0C0E0F801EC0FFD1F6491E6
:1006C000662341F082E991E00E943F03892B11F0FB
:1006D0002196F2CF42E050E069E271E082E991E0D8
:1006E0000E94BE028C0F9D1FDF91CF911F910F9131
:1006F000089583E08093E9008091F200882319F047
:100700008AE38093E80008950E94260190E008950E
:10071000CF93DF931F92CDB7DEB7FC01848595851B
:1007200097FD08C02FEF3FEF358724870F90DF91AB
:10073000CF910895CE0101960E94FC00019719F413
:10074000898190E0F3CF8FEF9FEFF0CF0F931F934E
:10075000CF93DF931F92CDB7DEB78C01FC01848568
:10076000958597FF0BC0CE0101960E94FC00019772
:1007700071F4898190E0F80195878487F801848578
:1007800095850F90DF91CF911F910F9108958FEF75
:100790009FEFF1CFFC018485958597FD0BC09FB736
:1007A000F89482E08093E9008091F2009FBF90E08E
:1007B000019608959FB7F89482E08093E9008091B4
:1007C000F2009FBF90E008958F929F92AF92BF92E8
:1007D000FF920F931F93CF93DF93FC01F0808BE088
:1007E0008F1508F44AC0828108E512E0081B110940
:1007F00087FD1395000F111F000F111F8181C8E89D
:10080000D0E0C81BD10987FDD395CC0FDD1FCC0FDD
:10081000DD1F4E010D2E000CAA08BB089801012E09
:10082000000C440B550B281939094A095B09DB01F7
:100830000E94A40B24EB30E040E050E00E947A0BD1
:10084000820E931EA41EB51E8C169D062CF0E80188
:10085000801691060CF4E4012297CC0FDD1F2FB710
:10086000F8948F2D90E0FC01EE0FFF1FE80FF91FA9
:10087000EE51FE4FD283C1832FBFDF91CF911F91E5
:100880000F91FF90BF90AF909F908F90089581EB54
:1008900090E00E9455038CEA90E00C9455031F925F
:1008A0000F920FB60F9211242F933F938F939F9324
:1008B000AF93BF9380917C0190917D01A0917E01C7
:1008C000B0917F0130917B0123E0230F2D3758F544
:1008D0000196A11DB11D20937B0180937C01909313
:1008E0007D01A0937E01B0937F0180918001909162
:1008F0008101A0918201B09183010196A11DB11DDA
:100900008093800190938101A0938201B093830131
:10091000BF91AF919F918F913F912F910F900FBEFB
:100920000F901F90189526E8230F0296A11DB11D68
:10093000D2CF1F920F920FB60F9211248F939F93D5
:100940008091E1009091E100937F9093E10083FF1B
:100950000FC01092E90091E09093EB001092EC0030
:1009600092E39093ED001092910198E09093F00043
:1009700082FF22C093E09093E9009091F2009923C6
:1009800019F09AE39093E80090913201992341F095
:1009900090913201915090933201911101C05D9874
:1009A00090919001992341F09091900191509093F2
:1009B0009001911101C0289884FF18C08091E20035
:1009C0008E7E81608093E2008091E1008F7E809333
:1009D000E100809133018E7E8061809333019F918D
:1009E0008F910F900FBE0F901F90189580FFF7CF3B
:1009F0008091E2008E7E80618093E2008091E10030
:100A00008E7E8093E100809133018E7E8160E5CF00
:100A10001F920F920FB60F921124CF92DF92EF9296
:100A2000FF920F931F932F933F934F935F936F9377
:100A30007F938F939F93AF93BF93EF93FF93CF9346
:100A4000DF93CDB7DEB76C97DEBFCDBF1092E90064
:100A50008091E80083FF25C068E0CE0145960E94A2
:100A6000B10282EF8093E8008D8987FF39C09091B1
:100A7000E80090FFFCCF982F907609F034C19E8952
:100A80004F89588D2F89F88C911131C0803861F5CC
:100A9000809134018093F1001092F1008EEF8093E9
:100AA000E8006C960FB6F894DEBF0FBECDBFDF91A5
:100AB000CF91FF91EF91BF91AF919F918F917F91D6
:100AC0006F915F914F913F912F911F910F91FF90E7
:100AD000EF90DF90CF900F900FBE0F901F90189562
:100AE0009EEF9093E800C7CF1092F100D5CF9130E0
:100AF00059F48111D3CF4130510581F680913401F1
:100B00008D7F80933401CACF933049F48111C6CFD1
:100B10004130510519F6809134018260F2CF953051
:100B200041F48091E80080FFFCCF20682093E3002F
:100B3000B5CF963009F0A9C00B8D1C8D22E0109224
:100B4000E9001092300110922F01F2122EC0109283
:100B50002E0110922D010E9480021F8299E099833C
:100B6000FA8291E09E8390EA98879AEF9987209184
:100B70002F0130913001275F3F4F3C832B838D83C2
:100B80001092E9001092300110922F0110932E0163
:100B900000932D0149E050E0BE016F5F7F4F80E080
:100BA0000E945A020E94800279CF10932E01009376
:100BB0002D010E943701DC0112960D911C91011547
:100BC000110509F451C1D801ED91FC910480F58122
:100BD000E02DBE016B5E7F4FC8010995009709F0BB
:100BE0003EC1F80100851185EACFF3E0FF120EC087
:100BF0008F89882309F440C0823061F440E86DE0B9
:100C00008BE191E00E942702811148CF81E280931D
:100C1000EB0047CF813029F440E867E083E191E0C1
:100C2000F1CF833099F70E943701DC011296ED90E5
:100C3000FC908E010F5F1F4F6801E114F10479F001
:100C4000D701ED91FC910680F781E02DB801C70135
:100C50000995080F111DF701E084F184EECFD8014A
:100C60001C92F60101900020E9F73197BF016C1941
:100C70007D0940E0C601C6CF6DEF70E0FB014491F5
:100C800050E080E80E945A0209CF973009F4BECFA5
:100C9000983021F481E08093F10000CF993009F081
:100CA000FDCE837009F0B2CFEDE0F1E081E031E0FC
:100CB00096E32191222371F08093E9003093EB00B9
:100CC000DF0111972C912093EC009093ED008F5F42
:100CD000873079F78EE78093EA001092EA008F89D7
:100CE00080939101DBCE8B8D9C8D1092E900109248
:100CF000300110922F0190932E0180932D01898D48
:100D0000811192C08E899D89913A49F4813209F00E
:100D10007DCF47E050E064E071E080E0B3CF9132F6
:100D200009F074CF833269F48F89988DB0E0A0E028
:100D30008093000190930101A0930201B0930301FD
:100D4000ADCE803269F48091E80082FFFCCF67E08D
:100D500084E091E00E94B1028BEF8093E8009ECE88
:100D6000823209F09BCE8F8980930B01EEEFFFE773
:100D7000859194918B3F9C4D51F1E0E0F8E080919A
:100D8000040190910501A0910601B0910701803BFB
:100D90009440A105B105F1F480910B0180FD1AC0CA
:100DA000EE3F8AE0F80789F587E797E7918380832C
:100DB000809160008093310188E19BE00FB6F89448
:100DC000A895809360000FBE9093600067CEEEEF11
:100DD000FAE0D5CF808191818737974709F05ECEC1
:100DE000A8958091600088618093600080913101B6
:100DF00080936000EE3F2AE0F20789F08091FE0ABE
:100E00009091FF0A9183808349CE808191818737B9
:100E1000980751F29093FF0A8093FE0AC5CF109273
:100E2000FF0A1092FE0A3ACE0E943701DC011296A8
:100E30000D911C910115110509F4E8CED801ED9131
:100E4000FC910190F081E02DBE016B5E7F4FC801E7
:100E50000995811123CEF80100851185EBCF181675
:100E600019060CF41BCED2CEF1E0FF12BECE61E02B
:100E700071E004CF1F920F920FB60F9211242F939F
:100E80003F934F935F936F937F938F939F93AF9312
:100E9000BF93CF93DF93EF93FF9380912C01C09189
:100EA0000602D0E087FF24C01092850010928400D3
:100EB00080912C018F5F80932C0180912C01082E52
:100EC000000C990B8C179D0724F480912C018C3019
:100ED000C4F18091840090918500049680349C49EF
:100EE00008F47AC08091840090918500049676C0C1
:100EF00080912C01082E000C990B8C179D07C4F6CD
:100F0000E0912C018E2FEE0F990BFC01EE0FFF1FCD
:100F1000E80FF91FEE51FE4F808186FFC9CFE091A7
:100F20002C018E2FEE0F990BFC01EE0FFF1FE80F27
:100F3000F91FEE51FE4F808160E08F730E944B01DC
:100F4000B7CF2091840030918500E0912C018E2F45
:100F5000EE0F990BFC01EE0FFF1FE80FF91FEE518A
:100F6000FE4F81819281820F931F9093890080931D
:100F70008800E0912C018E2FEE0F990BFC01EE0FF3
:100F8000FF1FE80FF91FEE51FE4F808186FF11C051
:100F9000E0912C018E2FEE0F990BFC01EE0FFF1F3D
:100FA000E80FF91FEE51FE4F808161E08F730E94C0
:100FB0004B01FF91EF91DF91CF91BF91AF919F9145
:100FC0008F917F916F915F914F913F912F910F90F2
:100FD0000FBE0F901F90189580E49CE990938900B4
:100FE000809388008FEF80932C01E3CF10929501BE
:100FF0001092940188EE93E0A0E0B0E08093960117
:1010000090939701A0939801B09399018BE191E09F
:1010100090939301809392018FEF9FEF90939F01A4
:1010200080939E01E7E0F2E023E132E04FEF68EBCE
:101030007BE0809106028C30B0F491E0980F9093A1
:101040000602808390E0DC01AA0FBB1FA80FB91F26
:10105000AE51BE4F12967C936E93119733962E1716
:101060003F0739F708954083F9CFCF93DF9300D03E
:1010700000D0CDB7DEB7789484B5826084BD84B5E6
:10108000816084BD85B5826085BD85B5816085BD83
:1010900080916E00816080936E001092810080913B
:1010A00081008260809381008091810081608093C3
:1010B0008100809180008160809380008091910008
:1010C0008260809391008091910081608093910073
:1010D000809190008160809390008091C100846035
:1010E0008093C1008091C10082608093C100809193
:1010F000C10081608093C1008091C30081608093B2
:10110000C3008091C00082608093C0008091C200C3
:1011100081608093C20080917A00846080937A001D
:1011200080917A00826080937A0080917A00816059
:1011300080937A0080917A00806880937A00109280
:10114000910110923401109233018091D700816097
:101150008093D70080EA8093D80089B5806189BDEB
:1011600089B5826089BD09B400FEFDCF0E94E1010E
:101170008091D8008F7C80618093D8008091E000BE
:10118000807F8093E0008091E1008E7E8093E1007B
:101190008DE08093E200559A209A5D9828988FEF11
:1011A0009FEF90939F0180939E010E94470429E343
:1011B000422E21E0522E3CE0232E40E0642E40E0FF
:1011C000742E82E991E00E94CA03892B09F436C18A
:1011D00082E991E00E94880390917A018A3019F0A7
:1011E0008D3009F018C19111F8C0809179018823E0
:1011F00009F4F3C0E82FF0E0E75CFE4F1082909115
:101200003901933409F4EEC0973449F09F3309F063
:10121000E4C0813009F0E1C00E944704DEC06AE307
:1012200070E08AE391E00E94040C8C01892B09F4A0
:10123000D4C01C821B824AE050E0BE016D5F7F4F2C
:101240008AE391E00E94250A6B017C018B819C81DD
:101250000817190709F0C1C024E0C216D104E1043F
:10126000F10408F0BAC01A8219820F5F1F4F4AE0DA
:1012700050E0BE016F5F7F4FC8010E94250A4B01FD
:101280005C01E981FA810E171F0709F4A6C080816D
:101290008111A3C086010B5C1E4FF8018081A6015D
:1012A000440F551F811185C0F601ED5EFE4F308061
:1012B000FA01EC0DFD1DE95FFD4F80818C3008F0D7
:1012C00075C0232D30E0F901EC59FE4F64912B5B82
:1012D0003E4FF9012491222399F030E0220F331F71
:1012E000F901E75DFE4FA591B491F901E95CFE4F6C
:1012F000859194918FB7F894EC916E2B6C938FBF7E
:10130000FA01EC0DFD1DE95FFD4F8081682F70E053
:101310009B01220F331F260F371FD901AE51BE4F3D
:10132000232D2F73322E9C91907C392A3C9211826E
:101330001282622D0E94F20B829DD001112470E076
:1013400060E0FD01E60FF71F9F01220F331FE20F40
:10135000F31FEE51FE4F908196FD16C06F5F7F4FD9
:101360006C30710571F781110FC01092800082E01E
:10137000809381001092850010928400B19A809130
:101380006F00826080936F00FA01EC0DFD1DE95F34
:10139000FD4FE0818E2F90E0FC01EE0FFF1FE80F64
:1013A000F91FEE51FE4F80818064808321E0F801B7
:1013B0002083CA018C0D9D1D895F9D4F70E060E008
:1013C000B7FC09C0B401E5EB8E169104A104B10489
:1013D00014F064EB70E00E94E40310927901109223
:1013E0007A01EFCE8130C9F705E311E087E0E82EFE
:1013F00082E0F82EF80181918F01882329F070E0B6
:1014000060E0C7010E94E403F3E0EF0EF11C401618
:10141000510681F7E2CF9111D4CEE0917901EF33FB
:1014200048F491E09E0F90937901F0E0E75CFE4F65
:101430008083C7CE21E020937A01C3CE611471046A
:1014400009F4BFCE0E940000BCCEB0E0A0E0EBE209
:10145000FAE00C94AD0B5C016B017A01611571052A
:1014600019F0FB0191838083E114F10451F0C7016D
:101470000297839730F040E030E020E090E072C0C7
:101480005E01E5012196F5011081812F90E00E9417
:101490003C0B892BA9F71D3201F52196F50111812D
:1014A00001E0E114F10409F4DAC0F0E1EF16F1040F
:1014B00009F082C0103359F488818F7D883509F096
:1014C00076C0198122960260F0E1EF2EF12C812C7A
:1014D000912CA12C88E0B82E8CC01B3221F4E501A0
:1014E0002296F501118100E0DCCFEAE0EE16F1046E
:1014F00009F4BBC0F0E1EF16F10409F06DC0E7CFCD
:1015000078E0E72EF12C812C912CA12C60E1B62EF5
:1015100070C03FE9310F3A3128F439EA332E80C0E8
:1015200021E09AC0302F3170C114D10431F0222350
:1015300009F12197F601D183C08327FF21C060E024
:1015400070E080E090E8311104C06FEF7FEF8FEF23
:101550009FE722E230E03093140220931302462FDB
:10156000372F282F642F732F822FCDB7DEB7E1E1FD
:101570000C94C90B01FF04C02297F601D183C083EC
:10158000332341F090958095709561957F4F8F4FF3
:101590009F4FE5CF97FFE3CF82E290E09093140254
:1015A000809313026FEF7FEF8FEF9FE7D8CF10E3A9
:1015B000E114F10409F4A4CF28E0E216F10409F4DF
:1015C000A2CF0CF092CF812C912CA12CE0E4BE2E66
:1015D00082E0E816F10469F060E070E080E090E8F5
:1015E00097010F2C000C440B550B0E94580B49011E
:1015F0005A0120E060E070E0CB0127010F2C000CC5
:1016000066087708FE0150ED352E310E39E03315AE
:1016100040F43FEB310F3A3108F07BCF49EC342EE8
:10162000310E3E141F040CF07DCF27FD15C0861629
:101630009706A806B90678F0A30192010E94480B0C
:10164000630D711D811D911D61307105810520E8BB
:10165000920708F465CF2FEF21961081D3CF103376
:1016600009F42ACF2AE0E22EF12C9CEC892E982C4A
:10167000A82C9CE0B92EBDCF91110C94450B803263
:1016800019F089508550C8F708959927882708953B
:10169000DB018F939F930E94990BBF91AF91A29F03
:1016A000800D911DA39F900DB29F900D1124089560
:1016B000A1E21A2EAA1BBB1BFD010DC0AA1FBB1F56
:1016C000EE1FFF1FA217B307E407F50720F0A21BC8
:1016D000B30BE40BF50B661F771F881F991F1A9435
:1016E00069F760957095809590959B01AC01BD015F
:1016F000CF010895052E97FB1EF400940E94910BD4
:1017000057FD07D00E94580B07FC03D04EF40C94F1
:10171000910B50954095309521953F4F4F4F5F4F1E
:10172000089590958095709561957F4F8F4F9F4F4D
:1017300008950E94E30BA59F900DB49F900DA49F68
:10174000800D911D11240895B7FF0C94990B0E94F0
:10175000990B821B930B08952F923F924F925F92A9
:101760006F927F928F929F92AF92BF92CF92DF92B1
:10177000EF92FF920F931F93CF93DF93CDB7DEB716
:10178000CA1BDB0B0FB6F894DEBF0FBECDBF0994AA
:101790002A88398848885F846E847D848C849B8401
:1017A000AA84B984C884DF80EE80FD800C811B810F
:1017B000AA81B981CE0FD11D0FB6F894DEBF0FBE3E
:1017C000CDBFED010895A29FB001B39FC001A39FBB
:1017D000700D811D1124911DB29F700D811D11246A
:1017E000911D0895991B79E004C0991F961708F080
:1017F000961B881F7A95C9F780950895EE0FFF1FF5
:101800000590F491E02D0994FC018191861721F057
:101810008823D9F7992708953197CF010895F8942F
:02182000FFCFF8
:10182200FFFFFFFF00E100000000000000C1808117
:1018320000000003050609000000003F03BE028409
:0C184200037903CA038803A6030D0A0003
:00000001FF
