:100000000C94A6000C94CE000C94CE000C94CE0060
:100010000C94CE000C94CE000C94CE000C94CE0028
:100020000C94CE000C94CE000C94080A0C94770A21
:100030000C94CE000C94CE000C94CE000C94CE0008
:100040000C94CE000C94CE000C94CE000C94CE00F8
:100050000C94CE000C94CE000C94CE000C94BE09EF
:100060000C94CE000C94CE000C94CE000C94CE00D8
:100070000C94CE000C94CE000C94CE000C94CE00C8
:100080000C94CE000C94CE000C94CE000C94CE00B8
:100090000C94CE000C94CE000C94CE000C94CE00A8
:1000A0000C94CE000C94CE000C94CE004B3A6C61B4
:1000B000796F75743D00080B00020202000009040C
:1000C00000000102020000052400100105240101C6
:1000D000010424020605240600010705810310001F
:1000E0004009040100020A00000007050202400066
:1000F0000007058302400000040309041201000206
:10010000EF02014041233780000101020301556ED7
:100110006B6E6F776E0041726475696E6F204D690A
:1001200063726F004B3A7267624D61747269783D19
:10013000387838004B454E44004B3A7267624D6147
:10014000747269783D3878380000A90C11241FBEFC
:10015000CFEFDAE0DEBFCDBF25E0ACE6B1E001C015
:100160001D92AF32B207E1F711E0A0E0B1E0E2E2A8
:10017000F5E202C005900D92AC36B107D9F710E058
:10018000C6EAD0E004C02197FE010E947212C53A6F
:10019000D107C9F70E94D00C0C948F120C94000068
:1001A0008FB7F8942091C8043091C9044091CA04D3
:1001B0005091CB048FBF8091CE049091CF04A09139
:1001C000D004B091D104281B390B4A0B5B0B21F4EE
:1001D00021E030E040E050E0E091CC04F091CD042B
:1001E00088EE93E0E89FB001E99F700DF89F700DD5
:1001F0001124072E000C880B990B0E942F123093AC
:100200002405209323051092CD041092CC042FB71F
:10021000F8948091C8049091C904A091CA04B09147
:10022000CB042FBF8093CE049093CF04A093D0042F
:10023000B093D1040895CF92DF92EF929C012054A5
:100240003F4FFB01C080D180E280FC01C192D1927E
:10025000E192CF01E217F307A1F7EF90DF90CF9083
:100260000895FC018091A104882311F13FB7F8940F
:1002700082E08093E9002091F200822F90E018162E
:10028000190614F481E090E0882339F0289A44E6B6
:100290004093A0044091F1004083222339F0209143
:1002A000F200211103C02BE62093E8003FBF089520
:1002B0008FEF9FEF08952FB7F89483E08093E900C4
:1002C0009091E800892F807295FF04C09091F20010
:1002D00080E4891B2FBF08958091980481110DC07F
:1002E00082E08093940484E08093950410929704B4
:1002F0001092960481E08093980484E994E0089534
:100300003FB7F8948091900490919104A091920449
:10031000B091930426B5A89B05C02F3F19F0019614
:10032000A11DB11D3FBFBA2FA92F982F8827BC014F
:10033000CD01620F711D811D911D42E0660F771F77
:10034000881F991F4A95D1F70895AF92BF92DF9207
:10035000EF92FF920F931F93CF93DF93D0902205DC
:100360008091250590912605A0912705B09128053B
:10037000892B8A2B8B2BD9F00E9480010091C40419
:100380001091C5042091C6043091C704601B710B05
:10039000820B930B009125051091260520912705CE
:1003A000309128056017710782079307C8F20E94F1
:1003B00080016093C4047093C5048093C604909335
:1003C000C704E0912D05F0912E05309759F040912A
:1003D000290550912A0560912B0570912C058D2DD2
:1003E0000995D82EC091C204D091C30482EAE82EA8
:1003F00084E0F82E8701209749F184E0023C180739
:1004000029F18D858823F1F0E881F981A284B384F4
:100410000680F781E02DCE010995BC01CE01F501E2
:100420000995F8019183808380912305909124059B
:100430008436910508F41C860C80DD81C02D0E5F8A
:100440001F4FD9CFF80111821082EECFC091C204A4
:10045000D091C30400E110E02097A9F08D85882396
:1004600061F04E855F856A817B81E881F981028038
:10047000F381E02D2D2DCE0109950C80DD81C02D5D
:100480000150110949F7C091C204D091C3042097CB
:10049000C9F0F2ECEF16F4E0FF06A1F08D85882399
:1004A00051F0F70160817181E881F9810484F5855B
:1004B000E02DCE0109950C80DD81C02DF2E0EF0E1C
:1004C000F11CE5CF8091CC049091CD049C012F5F6D
:1004D0003F4F3093CD042093CC0449975CF0DF91DB
:1004E000CF911F910F91FF90EF90DF90BF90AF9051
:1004F0000C94D000DF91CF911F910F91FF90EF905E
:10050000DF90BF90AF9008958F929F92AF92BF926D
:10051000CF92DF92EF92FF924B015C010E9480012B
:100520006B017C010E9480016C197D098E099F0975
:10053000683E734081059105A8F321E0821A910875
:10054000A108B10888EEC80E83E0D81EE11CF11C9A
:1005500081149104A104B10429F7FF90EF90DF907A
:10056000CF90BF90AF909F908F90089580E991E0D9
:10057000089540917401509175012091720130915C
:10058000730142175307B4F49091E8009570E1F3BA
:100590009091E80092FD19C08093F1008091740160
:1005A0009091750101968F739927892B19F48EEF1D
:1005B0008093E80080917401909175010196909369
:1005C00075018093740181E0089580E00895EF92B1
:1005D000FF920F931F93CF93DF93F82E192FE62EE0
:1005E000042F81E0860F880F0E94B90283E00E94E9
:1005F000B902CF2DD12FEC0EFD2EF11CCE15DF054B
:10060000B9F007FF13C0FE0184910E94B902182FB0
:1006100080E00E94B902812321968111EFCFDF9102
:10062000CF911F910F91FF90EF9008958881EDCFAA
:1006300081E0F5CFDF92EF92FF920F931F93CF935C
:10064000DF93D82E8A01EB017B01E40EF51ECE1557
:10065000DF0559F0D7FE12C0FE0184910E94B90255
:1006600021968111F4CF0FEF1FEFC801DF91CF91D9
:100670001F910F91FF90EF90DF9008958881EECF4A
:100680000F931F93CF93DF931F92CDB7DEB782E016
:10069000898342E450E066EB70E080E80E941A0330
:1006A0000E946C01DC0112960D911C91011511053F
:1006B00089F0D801ED91FC910280F381E02DBE011B
:1006C0006F5F7F4FC801099597FD04C0F801008551
:1006D0001185ECCF89810F90DF91CF911F910F9100
:1006E0000895615030F02091F100FC0120830196C3
:1006F000F8CF289A84E68093A00408958F929F9261
:10070000AF92BF92CF92DF92EF92FF920F931F931F
:10071000CF93DF936C017B018A0180910B018823C9
:1007200009F45CC08091A104882309F457C080912A
:10073000780180FF05C08091E00082608093E00036
:10074000E801B12C8AEFA82E93E0892E2AE3922E9D
:10075000209711F4BB20D9F10E945B0181110AC0DE
:10076000AA94AA20D9F161E070E080E090E00E94B4
:100770008402EECF8C171D0611F00CF08C2F9FB762
:10078000F8948092E9002091E80025FD02C09FBF07
:10079000DFCF282F30E0C21BD30BF701815020F0B0
:1007A00041914093F100FACFE20EF31EBB2021F0FD
:1007B0009092E800B12CEBCF8091E80085FDE7CF67
:1007C0009092E800BB24B394209709F3F3CF5D9A8D
:1007D00084E680937701101611063CF081E090E0EA
:1007E000F6019383828310E000E0C801DF91CF918E
:1007F0001F910F91FF90EF90DF90CF90BF90AF903F
:100800009F908F90089542E050E067E571E082ED9F
:1008100094E00C947E03CF93DF931F92CDB7DEB7A5
:100820006983DC01ED91FC910280F381E02D41E0D0
:1008300050E0BE016F5F7F4F09950F90DF91CF9120
:1008400008950F931F93CF93DF938C01D0E0C0E006
:10085000F801EC0FFD1F6491662341F082ED94E0F6
:100860000E940B04892B11F02196F2CFCE01DF916B
:10087000CF911F910F910895CF93DF930E94210490
:10088000EC010E9403048C0F9D1FDF91CF9108950E
:1008900083E08093E9008091F200882319F08AE3D5
:1008A0008093E80008950E945B0190E00895CF9343
:1008B000DF931F92CDB7DEB7FC018485958597FD48
:1008C00008C02FEF3FEF358724870F90DF91CF913E
:1008D0000895CE0101960E943101019719F4898192
:1008E00090E0F3CF8FEF9FEFF0CF0F931F93CF9355
:1008F000DF931F92CDB7DEB78C01FC01848595850F
:1009000097FF0BC0CE0101960E943101019771F44F
:10091000898190E0F80195878487F8018485958521
:100920000F90DF91CF911F910F9108958FEF9FEF5F
:10093000F1CFFC018485958597FD0BC09FB7F89496
:1009400082E08093E9008091F2009FBF90E00196E1
:1009500008959FB7F89482E08093E9008091F200B7
:100960009FBF90E00895AF92BF92CF92DF92EF9237
:10097000FF920F931F93CF93DF9300D01F92CDB7B9
:10098000DEB75A0119821A821B82882361F18B011A
:10099000E1E0F0E0E82EF12CD8012D918D01222329
:1009A000F1F06F01B1E0CB1AD108D501AC0DBD1D3E
:1009B0004C914423A1F030E02F5F3F4FD7010E94BC
:1009C0005112A42FB0E011969B01AC010E94671256
:1009D000A1E0B0E0AC0FBD1FAC0DBD1D8C933196F6
:1009E000E430F105C9F669817A818B810F900F900F
:1009F0000F90DF91CF911F910F91FF90EF90DF90BB
:100A0000CF90BF90AF90089581E090E008950F934C
:100A10001F93CF93DF93209171012F5F322F377097
:100A20003093710120FF2BC020E831FD2064347029
:100A300009F02062205FFC01EC01239600E011E048
:100A40006785662329F070E0C8010E941B126F5F62
:100A50006187822F869F080E80E0811D11248111FD
:100A600010C01682662311F0615061873196EC1731
:100A7000FD0731F7DF91CF911F910F91089520E08D
:100A8000D4CF81508683EECF4F925F927F928F9228
:100A90009F92AF92BF92CF92DF92EF92FF920F930D
:100AA0001F93CF93DF932C01EB010E948001F20191
:100AB00026893789621B730B6A307105B0F3F8948D
:100AC0008A819B81181619060CF0CBC1E881F98147
:100AD0000BB100687BB17F777BB9BA848F812B2DF6
:100AE000281B822F2F834C85042E000C550BAA81C6
:100AF000BB81E888DF84C988E394D394C3949E8142
:100B0000388599848B84118120E0F32E622F322F57
:100B10003181112788943111380F08F43FEF819506
:100B20008894E0FC130F17958894E1FC130F179538
:100B30008894E2FC130F17958894E3FC130F179524
:100B40008894E4FC130F17958894E5FC130F179510
:100B50008894E6FC130F17958894E7FC130F1795FC
:100B60008894232FE110212F8B0D122F002C0BB90D
:100B700000C017FF7BB930812227889400C000C0D5
:100B8000002C7BB93111390F00C0002C0BB900C00B
:100B900016FF7BB908F43FEF9195889400C000C020
:100BA000002C7BB9D0FC230F00C0002C0BB900C077
:100BB00015FF7BB927958894D1FC230F00C000C096
:100BC000002C7BB92795889400C0002C0BB900C07D
:100BD00014FF7BB9D2FC230F2795889400C000C076
:100BE000002C7BB9D3FC230F00C0002C0BB900C034
:100BF00013FF7BB927958894D4FC230F00C000C055
:100C0000002C7BB92795889400C0002C0BB900C03C
:100C100012FF7BB9D5FC230F2795889400C000C034
:100C2000002C7BB9D6FC230F00C0002C0BB900C0F0
:100C300011FF7BB927958894D7FC230F00C000C013
:100C4000002C7BB92795889400C0002C0BB900C0FC
:100C500010FF7BB9132FD110122F990D00C000C0C7
:100C6000002C7BB900C000C0002C0BB900C017FFDE
:100C70007BB932812227889400C000C0002C7BB948
:100C800031113F0D00C0002C0BB900C016FF7BB91D
:100C900008F43FEFE40FF51F00C000C0002C7BB943
:100CA000C0FC230F00C0002C0BB900C015FF7BB99E
:100CB00027958894C1FC230F00C000C0002C7BB98D
:100CC0002795889400C0002C0BB900C014FF7BB995
:100CD000C2FC230F2795889400C000C0002C7BB96C
:100CE000C3FC230F00C0002C0BB900C013FF7BB95D
:100CF00027958894C4FC230F00C000C0002C7BB94A
:100D00002795889400C0002C0BB900C012FF7BB956
:100D1000C5FC230F2795889400C000C0002C7BB928
:100D2000C6FC230F00C0002C0BB900C011FF7BB91B
:100D300027958894C7FC230F00C000C0002C7BB906
:100D40002795889400C0002C0BB900C010FF7BB918
:100D5000132FC110122FF19400C000C0002C7BB9DA
:100D6000F80C00C000C00BB900C017FF7BB931817F
:100D70002227889400C000C0002C7BB93111380FA5
:100D800000C0002C0BB900C016FF7BB908F43FEF80
:100D90008195889400C000C0002C7BB9E0FC230F33
:100DA00000C0002C0BB900C015FF7BB927958894B3
:100DB000E1FC230F00C000C0002C7BB9279588946C
:100DC00000C0002C0BB900C014FF7BB9E2FC230F5C
:100DD0002795889400C000C0002C7BB9E3FC230F4A
:100DE00000C0002C0BB900C013FF7BB92795889475
:100DF000E4FC230F00C000C0002C7BB92795889429
:100E000000C0002C0BB900C012FF7BB9E5FC230F1A
:100E10002795889400C000C0002C7BB9E6FC230F06
:100E200000C0002C0BB900C011FF7BB92795889436
:100E3000E7FC230F00C000C0002C7BB927958894E5
:100E400000C0002C0BB900C010FF7BB9132FE110BC
:100E5000122F8B0D00C000C0002C7BB9119709F038
:100E600086CEEA81FB812EE130E0DF010E94601234
:100E700030E020E0A901AAE9EA9F0E0E411DFA9F89
:100E8000400D511D11244F0F511DDC01CB01840F6A
:100E9000951FA11DB11D893E43E09407A105B10531
:100EA00008F434C0885E9340A109B10942E0B695C8
:100EB000A795979587954A95D1F747E0849F080EA7
:100EC000211D949F200D311D1124290F311D60918A
:100ED000700170E0860F971F820F931F4091C80426
:100EE0005091C9046091CA047091CB04292F332713
:100EF000420F531F611D711D4093C8045093C904D4
:100F00006093CA047093CB048093700178940E941C
:100F10008001F201778B668BDF91CF911F910F914A
:100F2000FF90EF90DF90CF90BF90AF909F908F9009
:100F30007F905F904F900895579A08956F927F9297
:100F40008F92CF92DF92EF92FF920F931F93CF93E6
:100F5000DF93CDB7DEB762970FB6F894DEBF0FBE52
:100F6000CDBF8C016B017A01822FA801475F5F4FD3
:100F7000B8016A5F7F4F0E94B3043B01882ED801FD
:100F80001C962C91C701F7FE04C0882799278E195B
:100F90009F09DA82C9829C838B839E838D83688AB2
:100FA000798A8A8A213049F5CE0101960E94070587
:100FB00083E08D871F861E86F7FE02C08DEF8D872A
:100FC000D801ED91FC910088F189E02DBE016F5FA1
:100FD0007F4FC801099562960FB6F894DEBF0FBE29
:100FE000CDBFDF91CF911F910F91FF90EF90DF90D8
:100FF000CF908F907F906F9008951C861B861A86E5
:10100000198618861F82D4CFCF92DF92EF92FF927B
:101010000F931F93CF93DF93CDB7DEB762970FB6D1
:10102000F894DEBF0FBECDBF8C016B017A01822F19
:10103000A801475F5F4FB8016A5F7F4F0E94B3040A
:101040009B01482FD8011C968C91DA82C982FC82C0
:10105000EB82FE82ED82288B398B4A8B813009F539
:10106000CE0101960E9407051D861F861E86D801A7
:10107000ED91FC910088F189E02DBE016F5F7F4FFB
:10108000C801099562960FB6F894DEBF0FBECDBFBA
:10109000DF91CF911F910F91FF90EF90DF90CF9054
:1010A00008951C861B861A86198618861F82DCCF37
:1010B0000895CF93DF9300D01F92CDB7DEB719828A
:1010C0001A821B82BE016F5F7F4F8DE592E00E9406
:1010D0001B0119821A821B82BE016F5F7F4F8CE950
:1010E00091E00E941B010E94A50110928E040F90B6
:1010F0000F900F90DF91CF9108951F93CF93DF93BF
:10110000CDB7DEB761970FB6F894DEBF0FBECDBF87
:101110008CEA90E00E94210410915C0281E1EAE5F2
:10112000F1E0DE01119601900D928A95E1F7E12F31
:10113000E295EF7081E090E08C0F9D1F8E0F911D66
:10114000FC01608182ED94E00E940B04E12FEF70BE
:1011500081E090E08C0F9D1F8E0F911DFC0160813E
:1011600082ED94E00E940B0461960FB6F894DEBF06
:101170000FBECDBFDF91CF911F910C940304CF928E
:10118000DF92EF921F93CF93DF936DE572E037E02C
:1011900027E0122F131BFB01A0E0B0915C024B2F44
:1011A00050E0922F9A1BB3FF9A2F812FB4FD832F0B
:1011B000559547954370552742305105B9F1433055
:1011C0005105D9F14130510521F4422F481B892F97
:1011D000942FB0FF05C080FF03C0422F491B942FFE
:1011E000880F880F880F890F90E0EC01CC0FDD1F6E
:1011F000C80FD91FC456DE4FC190D190E190C8826C
:10120000D982EA82AF5FA83041F63150685E7F4FE5
:101210003F3F09F0BECF0E94A50110928E04DF91DE
:10122000CF911F91EF90DF90CF900895422F491BEF
:10123000942F422F481B842FCCCF422F491B982F2D
:10124000FACF982F80ED890F8A3070F08FE9890FDF
:10125000863018F489EA890F08958FEB890F86305C
:1012600010F489ECF8CF80E0089590ED980F9A3053
:1012700040F08F7D9FEB980F81E0963018F080E072
:10128000089581E00895AF92BF92CF92DF92EF92DE
:10129000FF920F931F93CF93DF93EC017B016C01BF
:1012A0005C0186E0A80EB11CF60181916F010E94DD
:1012B0003509082F882369F1CA14DB04A9F788814E
:1012C0000E942109182F89810E942109F0E11F9FA6
:1012D00090011124822BF70180838A810E942109C9
:1012E000182F8B810E942109F0E11F9F900111248A
:1012F000822BF70181838C810E942109182F8D8117
:101300000E942109F0E11F9F90011124822BF70117
:101310008283802FDF91CF911F910F91FF90EF90EB
:10132000DF90CF90BF90AF90089590E080E0089557
:10133000FC0164870895FC01848590E00895FC0118
:101340008685978508950E947812FF920F931F93C8
:10135000CF93DF93EC01F62E08811981C8010E941A
:10136000F111F81621F06F2DC8010E94F911CE017C
:10137000DF91CF911F910F91FF9008951F920F92CF
:101380000FB60F9211242F933F938F939F93AF9398
:10139000BF938091C8049091C904A091CA04B091F0
:1013A000CB0430918F0423E0230F2D3758F501969D
:1013B000A11DB11D20938F048093C8049093C9048C
:1013C000A093CA04B093CB048091900490919104AF
:1013D000A0919204B09193040196A11DB11D809338
:1013E000900490939104A0939204B0939304BF91BE
:1013F000AF919F918F913F912F910F900FBE0F90C2
:101400001F90189526E8230F0296A11DB11DD2CF7B
:101410001F920F920FB60F9211248F939F9380917A
:10142000E1009091E100937F9093E10083FF0FC072
:101430001092E90091E09093EB001092EC0092E39F
:101440009093ED001092A10498E09093F00082FF39
:1014500022C093E09093E9009091F200992319F053
:101460009AE39093E80090917701992341F090914D
:101470007701915090937701911101C05D989091FF
:10148000A004992341F09091A00491509093A0045E
:10149000911101C0289884FF18C08091E2008E7ECF
:1014A00081608093E2008091E1008F7E8093E10073
:1014B000809178018E7E8061809378019F918F91D9
:1014C0000F900FBE0F901F90189580FFF7CF80915F
:1014D000E2008E7E80618093E2008091E1008E7E4A
:1014E0008093E100809178018E7E8160E5CF1F922C
:1014F0000F920FB60F921124CF92DF92EF92FF92CC
:101500000F931F932F933F934F935F936F937F930B
:101510008F939F93AF93BF93EF93FF93CF93DF93FB
:10152000CDB7DEB76C97DEBFCDBF1092E9008091DA
:10153000E80083FF25C068E0CE0145960E94710354
:1015400082EF8093E8008D8987FF39C09091E80091
:1015500090FFFCCF982F907609F034C19E894F8977
:10156000588D2F89F88C911131C0803861F58091A8
:1015700079018093F1001092F1008EEF8093E800E2
:101580006C960FB6F894DEBF0FBECDBFDF91CF9142
:10159000FF91EF91BF91AF919F918F917F916F914B
:1015A0005F914F913F912F911F910F91FF90EF907D
:1015B000DF90CF900F900FBE0F901F9018959EEF69
:1015C0009093E800C7CF1092F100D5CF913059F435
:1015D0008111D3CF4130510581F6809179018D7F02
:1015E00080937901CACF933049F48111C6CF41303D
:1015F000510519F6809179018260F2CF953041F45E
:101600008091E80080FFFCCF20682093E300B5CFF5
:10161000963009F0A9C00B8D1C8D22E01092E900D4
:101620001092750110927401F2122EC01092730183
:10163000109272010E9440031F8299E09983FA82FE
:1016400091E09E8390EA98879AEF998720917401A0
:1016500030917501275F3F4F3C832B838D83109220
:10166000E9001092750110927401109373010093B8
:10167000720149E050E0BE016F5F7F4F80E00E9441
:101680001A030E94400379CF1093730100937201F3
:101690000E946C01DC0112960D911C91011511053F
:1016A00009F451C1D801ED91FC910480F581E02D40
:1016B000BE016B5E7F4FC8010995009709F03EC1DE
:1016C000F80100851185EACFF3E0FF120EC08F8983
:1016D000882309F440C0823061F440E86DE086E17F
:1016E00091E00E94E702811148CF81E28093EB00F4
:1016F00047CF813029F440E867E08EE091E0F1CFF8
:10170000833099F70E946C01DC011296ED90FC90F9
:101710008E010F5F1F4F6801E114F10479F0D701CA
:10172000ED91FC910680F781E02DB801C701099584
:10173000080F111DF701E084F184EECFD8011C924F
:10174000F60101900020E9F73197BF016C197D097E
:1017500040E0C601C6CF68EF70E0FB01449150E065
:1017600080E80E941A0309CF973009F4BECF983061
:1017700021F481E08093F10000CF993009F0FDCE93
:10178000837009F0B2CFEDE0F1E081E031E096E363
:101790002191222371F08093E9003093EB00DF0167
:1017A00011972C912093EC009093ED008F5F873080
:1017B00079F78EE78093EA001092EA008F89809390
:1017C000A104DBCE8B8D9C8D1092E90010927501E7
:1017D000109274019093730180937201898D81112D
:1017E00092C08E899D89913A49F4813209F07DCF6A
:1017F00047E050E064E071E080E0B3CF913209F05F
:1018000074CF833269F48F89988DB0E0A0E0809323
:10181000000190930101A0930201B0930301ADCEAA
:10182000803269F48091E80082FFFCCF67E084E0B9
:1018300091E00E9471038BEF8093E8009ECE82328C
:1018400009F09BCE8F8980930B01EEEFFFE7859126
:1018500094918B3F9C4D51F1E0E0F8E080910401C0
:1018600090910501A0910601B0910701803B944041
:10187000A105B105F1F480910B0180FD1AC0EE3F86
:101880008AE0F80789F587E797E79183808380915D
:1018900060008093760188E19BE00FB6F894A895EC
:1018A000809360000FBE9093600067CEEEEFFAE089
:1018B000D5CF808191818737974709F05ECEA89573
:1018C00080916000886180936000809176018093B0
:1018D0006000EE3F2AE0F20789F08091FE0A9091C5
:1018E000FF0A9183808349CE808191818737980751
:1018F00051F29093FF0A8093FE0AC5CF1092FF0A1F
:101900001092FE0A3ACE0E946C01DC0112960D91F3
:101910001C910115110509F4E8CED801ED91FC9157
:101920000190F081E02DBE016B5E7F4FC8010995EB
:10193000811123CEF80100851185EBCF1816190609
:101940000CF41BCED2CEF1E0FF12BECE6CEF70E0F5
:1019500004CFE2EDF4E01382128288EE93E0A0E07F
:10196000B0E084839583A683B78389E491E0918373
:1019700080838FEF9FEF95878487E2E2F5E0808395
:1019800012821182148613868FEF9FEFDC0187830A
:101990009087A187B28713821482158216820895D8
:1019A000CF93DF9300D01F92CDB7DEB7789484B584
:1019B000826084BD84B5816084BD85B5826085BD4B
:1019C00085B5816085BD80916E00816080936E00D9
:1019D00010928100809181008260809381008091CB
:1019E000810081608093810080918000816080937C
:1019F000800080919100826080939100809191009D
:101A0000816080939100809190008160809390002C
:101A10008091C10084608093C1008091C100826088
:101A20008093C1008091C10081608093C10080914A
:101A3000C30081608093C3008091C0008260809366
:101A4000C0008091C20081608093C20080917A00C2
:101A5000846080937A0080917A00826080937A001B
:101A600080917A00816080937A0080917A0080680A
:101A700080937A001092A10410927901109278015B
:101A80008091D70081608093D70080EA8093D8004E
:101A900089B5806189BD89B5826089BD09B400FEC0
:101AA000FDCF61E070E080E090E00E9484028091D0
:101AB000D8008F7C80618093D8008091E000807F87
:101AC0008093E0008091E1008E7E8093E1008DE0C4
:101AD0008093E200559A209A5D9828988FEF9FEFA7
:101AE0009093DF048093DE0480919401811157C0AC
:101AF00010927F0110927E018FEF8093820180937C
:101B00008301809384018093850180938601809373
:101B1000870181E0809388018093890110928B0175
:101B200010928A0180E797E190938D0180938C0158
:101B300083E090E090938F0180938E011092910149
:101B40001092900110928101109280018091C20444
:101B50009091C304892B31F48CE791E09093C304F6
:101B60008093C204E0917A01F0917B01309721F0DB
:101B70008CE791E0958384838CE791E090937B01DF
:101B800080937A0110929301109292018BE291E07E
:101B900090937D0180937C0181E080939401579A1A
:101BA0008CE991E090937F0180937E0180E490E046
:101BB00090938B0180938A01809125059091260551
:101BC000A0912705B0912805843C29E09207A10542
:101BD000B10520F484EC99E0A0E0B0E08093250505
:101BE00090932605A0932705B093280588E7809356
:101BF000220519821A821B82809125059091260563
:101C0000A0912705B0912805892B8A2B8B2BD9F021
:101C10000E9480010091C4041091C5042091C60463
:101C20003091C704601B710B820B930B009125054B
:101C3000109126052091270530912805601771071E
:101C400082079307C8F20E9480016093C4047093D6
:101C5000C5048093C6049093C704E0912D05F091CC
:101C60002E05712C309759F04091290550912A0585
:101C700060912B0570912C0580E00995782E0091DC
:101C8000C2041091C304F2EAEF2EF4E0FF2E5701D4
:101C9000D12CC12C0115110549F140E1C416D10424
:101CA00029F1D8011D968C911D978823D9F0ED91CB
:101CB000FC91828493840680F781E02DC801099508
:101CC000BC01C801F4010995D5018D939C93FFEFE8
:101CD000CF1ADF0AD80114960D911C91B2E0AB0E19
:101CE000B11CD8CFF50111821082F1CF0091C2044E
:101CF0001091C3040115110529F1E0E1CE16D104BC
:101D000009F180912305909124058436910518F4FA
:101D1000D8011C961C92F8018585882371F04685B0
:101D200057850190F081E02D0190F081E02D272D65
:101D3000BE016F5F7F4FC8010995D80114960D91C0
:101D40001C91D8CF0091C2041091C3040115110554
:101D5000D9F0B2ECEB16B4E0FB06B1F0F8018585E2
:101D6000882359F0D7016D917C910190F081E02D8D
:101D70000484F585E02DC8010995F80104811581D9
:101D8000F2E0EF0EF11CE2CF8091CC049091CD04F3
:101D90009C012F5F3F4F3093CD042093CC04499793
:101DA00014F00E94D0000091C2041091C3040115E8
:101DB0001105B9F0D80112968D919C911397009757
:101DC00061F01E962D913C91A901440F551F420FC1
:101DD000531F70E060E00E947D12F80104811581BC
:101DE000E6CF19821A821B82BE016F5F7F4F8DE59D
:101DF00092E00E941B0190E080E00E94F1118C347F
:101E000009F06BC081E090E00E94F11180935C02C8
:101E1000198280E28A831B82BE016F5F7F4F8CE94B
:101E200091E00E941B010E94A50164EB70E080E03C
:101E300090E00E9484020E94590884E291E00E948E
:101E40003C040E947D0866E0662E712C55245A944D
:101E500022242394312C4424439482ED94E00E9464
:101E60009904181619060CF06DC282ED94E00E94D8
:101E70005704182F8D3089F3809189041A3009F0A6
:101E8000F5C1882309F442C08091E603811122C084
:101E90008091E4039091E5030097E1F0B3010E9483
:101EA0000712892BB9F4ADE1B3E0EDE5F2E080E093
:101EB0009091E303891730F52D913D914C91129744
:101EC0002083318342838F5F13963396803481F76A
:101ED0000E94BF0810928904C0CF81E080935C0209
:101EE0001A8219826CE4CE0101960E94A5096091C4
:101EF0005C0281E090E09A838983CE0101960E9482
:101F0000A50986CF108211821282DDCF80918804CC
:101F1000811199C0E0918704F0E0E951FC4F1082F3
:101F20008091E703882309F48EC08D3409F4BEC084
:101F3000A4F4833409F48CC0893409F446C18F3386
:101F400009F081C089E391E00E943C040E947D0871
:101F500084E391E00E943C0476C0843509F4DBC040
:101F6000893509F478C0813509F06DC06AE370E005
:101F700088EE93E00E9484127C01009709F463C00C
:101F8000DC011C9288EE93E00E94CB115C01089763
:101F900008F059C087010F5F1F4F4701E1E38E0E24
:101FA000911C6801D6018D916D01882309F44BC005
:101FB0000E943509882309F446C0C814D90491F752
:101FC000F70181A981113FC0C50143E0880F991F26
:101FD0004A95E1F77C01EE0CFF1CE80EF91EC701E3
:101FE000835A9D4F7C01BE016F5F7F4FC8010E94E5
:101FF0004309882341F189819A81AB81F70181935B
:102000009193A1937F010A5F1F4FC016D10659F724
:1020100040928E042FB7F8948091C8049091C9041F
:10202000A091CA04B091CB042FBF80938A049093EF
:102030008B04A0938C04B0938D04F7E0AF16B10429
:1020400011F40E94BF08109287041092880405CFF3
:102050000E945908F8CF8091E8038823A1F320E07B
:1020600090E080E0E22FF0E0E851FC4F3081332334
:10207000C1F040ED430F4A3030F76AE0689FA0019D
:10208000699F500D1124CA01C097830F911D37FD20
:102090009A958F3F910519F010F08FEF90E02F5F28
:1020A000E1CF809322050E94A501CDCF1091E803D6
:1020B000812F0E943509882331F20091E903802F96
:1020C0000E943509882309F4BECF8091EA0381116B
:1020D000BACF812F0E942109182F802F0E94210939
:1020E00090E1199F90011124822B80935C021A8247
:1020F00019826CE4CE0101960E94A50960915C02F0
:102100003A822982CE0101960E94A5090E94BF0849
:102110000E947D0898CF1091E8031053143008F006
:1021200092CF8091E90381118ECF19821A821B828E
:10213000BE016F5F7F4F8DE592E00E941B01111180
:1021400008C0AFEFA0935D02A0935E02A0935F0270
:1021500078CF113059F4EDE5F2E05082118212820D
:102160003396B2E0E537FB07C1F76BCFADE3B1E0E3
:102170002DE532E0123061F4EDE5F2E010821182DB
:10218000528278968DE193E08E179F07B9F759CF69
:102190006D91F90190E080E040E850E0082E02C027
:1021A000559547950A94E2F7462319F050825182DB
:1021B0005282019633968830910571F7285E3F4F21
:1021C00091E0A534B90721F73CCF8091E80388233B
:1021D00009F439CF80E010E000E0E82FF0E0E851AA
:1021E000FC4F90819923C1F020ED290F2A3008F08F
:1021F0002ACFAAE0A09F9001A19F300D1124890150
:1022000000531109090F111D97FD1A95003411058E
:1022100008F019CF8F5FE1CF19821A821B82BE01AD
:102220006F5F7F4F8DE592E00E941B0119821A8239
:102230001B82BE016F5F7F4F8CE991E00E941B0102
:10224000F801EE0FFF1FE00FF11FE456FE4F508222
:102250005182528280912205803A18F4B0EAB093FC
:1022600022050E94A50110928E04EDCE882309F468
:1022700044C0812F0E943509811103C04092E603BA
:10228000ECCD2091E4033091E5032038E1E03E07F6
:10229000A8F7C901B3010E940712FC01E352FC4FE9
:1022A0001083C90101969093E5038093E403B30181
:1022B0000E940712892B09F0D0CDBE016F5F7F4FBE
:1022C0008DED93E00E9443098823C1F28091E303DE
:1022D0008034A0F691E0980F9093E30390E0FC0126
:1022E000EE0FFF1FE80FF91FE35EFC4F89819A8113
:1022F000AB8180839183A283B0CDE0918704E1110B
:102300000DC0103559F4409289041092E6031092E2
:10231000E5031092E4031092E3039FCD80918804BB
:1023200081119BCDEF3948F481E08E0F80938704B3
:10233000F0E0E951FC4F108390CD10928704409259
:1023400088048BCD80918E048823E9F02FB7F89410
:102350008091C8049091C904A091CA04B091CB04A3
:102360002FBF40918A0450918B0460918C0470912E
:102370008D04841B950BA60BB70B0F97A105B10518
:1023800010F00E94BF0880E090E0892B09F463CD33
:102390000E94000060CDFC0188279927E8942191D4
:1023A0002032E9F3293010F02E30C8F32B3241F0FF
:1023B0002D3239F4689404C00E94E911820F911DF6
:1023C000219120532A30C0F31EF4909581959F4FA0
:1023D00008957AE0979F902D879F802D910D11246D
:1023E0000895F999FECF92BD81BDF89A992780B5DD
:1023F0000895262FF999FECF1FBA92BD81BD20BD49
:102400000FB6F894FA9AF99A0FBE01960895AA1B8E
:10241000BB1B51E107C0AA1FBB1FA617B70710F0CF
:10242000A61BB70B881F991F5A95A9F78095909501
:10243000BC01CD01089597FB072E16F4009407D038
:1024400077FD09D00E94071207FC05D03EF4909555
:1024500081959F4F0895709561957F4F0895A1E2F2
:102460001A2EAA1BBB1BFD010DC0AA1FBB1FEE1F0E
:10247000FF1FA217B307E407F50720F0A21BB30B59
:10248000E40BF50B661F771F881F991F1A9469F7D5
:1024900060957095809590959B01AC01BD01CF0131
:1024A0000895A29FB001B39FC001A39F700D811D2D
:1024B0001124911DB29F700D811D1124911D08954D
:1024C0000E945112B7FF0895821B930B08950E943A
:1024D0005112A59F900DB49F900DA49F800D911D4A
:1024E00011240895EE0FFF1F0590F491E02D09943B
:1024F00081E090E0F8940C948F12DC0101C06D93A0
:1025000041505040E0F70895FC018191861721F079
:102510008823D9F7992708953197CF010895F89422
:02252000FFCFEB
:10252200FFFFFFFF00E100000000000000C180810A
:1025320000000000000000A309A309A3099F0904E9
:10254200059B09980995090000000004089E079C54
:10255200079F0904059B099809B60244057C60603F
:102562007860606000000000000B047E03530448A2
:10257200049904570475040D0A003031323334359E
:0C2582003637383961626364656600001A
:00000001FF
