:100000000C9468000C9490000C9490000C94900058
:100010000C9490000C9490000C9490000C94900020
:100020000C9490000C9490000C9490000C94900010
:100030000C9490000C9490000C9490000C94900000
:100040000C940B050C9490000C947B050C945505B6
:100050000C9490000C9490000C9490000C949000E0
:100060000C94AD050C9490004B3A73637265656E09
:100070003D6C6364004B454E44004B3A73637265BC
:10008000656E3D6C63640000000000250028002BB5
:100090000004040404040404040202020202020331
:1000A000030303030301020408102040800102043B
:1000B00008102001020408102000000008000201BE
:1000C0000000030407000000000000000000CC0650
:1000D00011241FBECFEFD8E0DEBFCDBF11E0A0E0FE
:1000E000B1E0ECE3F2E102C005900D92AC33B10750
:1000F000D9F723E0ACE3B1E001C01D92A238B2070A
:10010000E1F710E0C8E6D0E004C02197FE010E94AC
:100110001609C736D107C9F70E9414070C941C09A9
:100120000C94000090E0FC01E754FF4F2491FC0187
:10013000EB55FF4F3491FC01EF56FF4FE491EE2356
:10014000C9F0222339F0233001F1A8F4213019F14C
:10015000223029F1F0E0EE0FFF1FE957FF4FA59184
:10016000B4918FB7F894EC91611126C030953E237D
:100170003C938FBF08952730A9F02830C9F0243070
:1001800049F7809180008F7D03C0809180008F7738
:1001900080938000DFCF84B58F7784BDDBCF84B5BB
:1001A0008F7DFBCF8091B0008F778093B000D2CF4E
:1001B0008091B0008F7DF9CF3E2BDACF3FB7F89416
:1001C0008091C9029091CA02A091CB02B091CC0259
:1001D00026B5A89B05C02F3F19F00196A11DB11DA2
:1001E0003FBFBA2FA92F982F8827BC01CD01620FDE
:1001F000711D811D911D42E0660F771F881F991F99
:100200004A95D1F708958F929F92AF92BF92CF9265
:10021000DF92EF92FF924B015C010E94DE006B01C6
:100220007C010E94DE006C197D098E099F09683EE1
:10023000734081059105A8F321E0821A9108A10875
:10024000B10888EEC80E83E0D81EE11CF11C8114B1
:100250009104A104B10429F7FF90EF90DF90CF90B3
:10026000BF90AF909F908F90089508950895AF929A
:10027000BF92CF92DF92EF92FF920F931F93CF9393
:10028000DF936C017B018B01040F151FEB015E01F5
:10029000AE18BF08C017D10759F06991D601ED918A
:1002A000FC910190F081E02DC6010995892B79F729
:1002B000C501DF91CF911F910F91FF90EF90DF90DB
:1002C000CF90BF90AF900895FC01538D448D252FA2
:1002D00030E0842F90E0821B930B541710F0CF96E0
:1002E000089501970895FC01918D828D981761F012
:1002F000A28DAE0FBF2FB11D5D968C91928D9F5F29
:100300009F73928F90E008958FEF9FEF0895FC0107
:10031000918D828D981731F0828DE80FF11D858DBA
:1003200090E008958FEF9FEF0895FC01918D228D4D
:10033000892F90E0805C9F4F821B91098F739927D2
:1003400008958DEC92E00E94950121E0892B09F43B
:1003500020E0822F089580E090E0892B29F00E9410
:10036000A10181110C9400000895FC01A48DA80F37
:10037000B92FB11DA35ABF4F2C91848D90E00196E7
:100380008F739927848FA689B7892C93A089B18907
:100390008C91837080648C93938D848D981306C0A8
:1003A0000288F389E02D80818F7D80830895EF920C
:1003B000FF920F931F93CF93DF93EC0181E0888F1F
:1003C0009B8D8C8D98131AC0E889F989808185FFEF
:1003D00015C09FB7F894EE89FF896083E889F98991
:1003E00080818370806480839FBF81E090E0DF9193
:1003F000CF911F910F91FF90EF900895F62E0B8DE6
:1004000010E00F5F1F4F0F731127E02E8C8D8E11A0
:100410000CC00FB607FCFACFE889F989808185FF07
:10042000F5CFCE010E94B501F1CFEB8DEC0FFD2F82
:10043000F11DE35AFF4FF0829FB7F8940B8FEA89C2
:10044000FB8980818062CFCFCF93DF93EC01888DD1
:100450008823B9F0AA89BB89E889F9898C9185FD3F
:1004600003C0808186FD0DC00FB607FCF7CF8C91CD
:1004700085FFF2CF808185FFEDCFCE010E94B501CF
:10048000E9CFDF91CF910895089520917D01260F46
:100490003327331F21323105ECF42091C601FC01D2
:1004A00090E080E0243069F082E00895A0917D0121
:1004B0002191AC01435A5E4FA40FB52FB11D2C936F
:1004C0000196861798F380917D01680F60937D01F6
:1004D00080E0089581E008951092C60181E0809344
:1004E000C5011092A00161E082E10E94920061E0EA
:1004F00083E10E949200E9EBF0E080818E7F8083AF
:1005000080818D7F808388E48093B80085E4809328
:10051000BC000895CF93DF9391E090935C01882312
:10052000B9F0C091B800D091BA008091BC008A7B2C
:100530008093BC0060E082E10E94920060E083E171
:100540000E9492000E946C02D093BA00C093B8003F
:10055000DF91CF9108950895E091F5018091F40124
:10056000E81730F4F0E0E45CFE4F808190E00895FD
:100570008FEF9FEF08959091F5018091F4012FEF97
:100580003FEF981748F4E92FF0E0E45CFE4F20813C
:1005900030E09F5F9093F501C90108958091F401C7
:1005A0009091F501891B990B0895CF92DF92EF92FC
:1005B000FF920F931F93CF93DF937C01CB018A01AE
:1005C0002091CC01222389F0EB016B01C40ED51ED2
:1005D000CC15DD0569F06991D701ED91FC91019091
:1005E000F081E02DC7010995F3CF642F0E944502E9
:1005F000C801DF91CF911F910F91FF90EF90DF9095
:10060000CF900895CF93DF931F92CDB7DEB7698364
:100610002091CC012223F9F02091F201203258F0F0
:1006200021E030E0FC013383228390E080E00F90F2
:10063000DF91CF9108958091F301E82FF0E0E3532B
:10064000FE4F998190838F5F8093F3018093F20135
:1006500081E090E0ECCF61E0CE0101960E9445027E
:10066000F7CFCF92DF92EF92FF920F931F93CF932A
:10067000DF93FC01C48121E02093CC01C093ED0104
:100680001092F3011092F2018385682B8AE693E0C1
:100690000E940203D091F201D13208F092C00E9470
:1006A000DE006B017C018091C601811165C082E092
:1006B0008093C60181E08093C5018FEF8093C401D0
:1006C0001092C301D093C201ADECB1E0E2EAF1E0D7
:1006D00080E0D81385C01092A1018091A101CC0FB8
:1006E000C82BC093A1018091A001813009F07CC08A
:1006F0001092A0010E94DE006B017C018091A1019B
:100700008093BB008091C8019091C901A091CA015A
:10071000B091CB01892B8A2B8B2B99F00E94DE00A4
:100720000091C8011091C9012091CA013091CB01FB
:100730006C197D098E099F090617170728073907C5
:10074000E0F18091BC0083FDD9CF85EC8093BC00A3
:100750000E94DE006B017C018091C601823009F4A9
:1007600045C08091C4018F3F61F18091C401803206
:1007700041F18091C40125C08091C8019091C901C7
:10078000A091CA01B091CB01892B8A2B8B2B09F444
:100790008ACF0E94DE000091C8011091C90120910A
:1007A000CA013091CB016C197D098E099F0906178A
:1007B00017072807390708F076CF8091C7010E94F4
:1007C0008A021092F3011092F2011092CC01DF9193
:1007D000CF911F910F91FF90EF90DF90CF900895F0
:1007E0009D9191938F5F75CF85EEB0CF8091C801B9
:1007F0009091C901A091CA01B091CB01892B8A2B9C
:100800008B2B09F4A9CF0E94DE000091C801109142
:10081000C9012091CA013091CB016C197D098E0963
:100820009F09061717072807390708F095CFC5CF86
:1008300090E080E00895E6EFF1E020E290E080E0D3
:10084000DF01A80FB91F2C93019684319105C1F7E0
:10085000148A759682E0EA34F80781F70895FC015E
:1008600001900020E9F73197AF01481B590BBC01FB
:1008700086E793E00C9437010F931F93CF93DF9398
:100880008C01D0E0C0E0F801EC0FFD1F64916623FD
:1008900041F08DEC92E00E94D701892B11F0219656
:1008A000F2CF42E050E068E371E08DEC92E00E940C
:1008B00037018C0F9D1FDF91CF911F910F910895EC
:1008C0000F931F93CF938C01C62F0E9431036C2F7F
:1008D0006460C8010E9431036C2F6B7FC8010E94C5
:1008E000310383EC90E00197F1F7CF911F910F91C5
:1008F00008950F931F93CF93DF938C01D62FC42FAE
:10090000607F642B0E94600480E1D89FB0011124B5
:100910006C2BC801DF91CF911F910F910C94600453
:10092000CF93DF93CDB7DEB728970FB6F894DEBF2D
:100930000FBECDBF98E0E0E0F1E0DE01119601903E
:100940000D929A95E1F790917E03981710F48FEF2E
:10095000890F90E0880F991F21E030E02C0F3D1F98
:10096000820F931FFC016081606840E086E793E09E
:1009700028960FB6F894DEBF0FBECDBFDF91CF91A2
:100980000C94790440E061E086E793E00E947904EA
:100990008BE39FE10197F1F7089541E00E9479040C
:1009A00081E090E0089585ED8093BC008091C801BE
:1009B0009091C901A091CA01B091CB010796A11DE8
:1009C000B11D23E0B695A795979587952A95D1F700
:1009D0002091BC0024FD03C01092C60108954091EF
:1009E000C8015091C9016091CA017091CB01452B9A
:1009F000462B472B69F30097A105B10541F02AE288
:100A00002A95F1F700C00197A109B109E1CF8091C2
:100A1000C7010C948A021F920F920FB60F921124F5
:100A20002F933F938F939F93AF93BF938091C50272
:100A30009091C602A091C702B091C8023091C40241
:100A400023E0230F2D3758F50196A11DB11D2093EA
:100A5000C4028093C5029093C602A093C702B093CC
:100A6000C8028091C9029091CA02A091CB02B091B4
:100A7000CC020196A11DB11D8093C9029093CA02B8
:100A8000A093CB02B093CC02BF91AF919F918F9175
:100A90003F912F910F900FBE0F901F90189526E851
:100AA000230F0296A11DB11DD2CF1F920F920FB638
:100AB0000F9211242F933F934F935F936F937F93E4
:100AC0008F939F93AF93BF93EF93FF938DEC92E03F
:100AD0000E94B501FF91EF91BF91AF919F918F91CE
:100AE0007F916F915F914F913F912F910F900FBE2A
:100AF0000F901F9018951F920F920FB60F9211240E
:100B00002F938F939F93EF93FF93E091DD02F091EA
:100B1000DE028081E091E302F091E40282FD1BC0DD
:100B200090818091E6028F5F8F732091E702821798
:100B300041F0E091E602F0E0E353FD4F958F8093A2
:100B4000E602FF91EF919F918F912F910F900FBE31
:100B50000F901F9018958081F4CF1F920F920FB6BF
:100B60000F9211242F933F934F935F936F937F9333
:100B70008F939F93AF93BF93EF93FF938091B900AF
:100B8000887F803609F44AC0F0F5883209F4A7C09E
:100B900018F5803109F49BC0B8F4882309F4F9C032
:100BA000883009F494C0FF91EF91BF91AF919F916C
:100BB0008F917F916F915F914F913F912F910F9006
:100BC0000FBE0F901F901895883109F488C08032AD
:100BD00051F78093C40114C0803409F49DC040F4DF
:100BE0008033B9F38833F9F68093C40185ECB0C043
:100BF000803509F485C0883509F496C0883499F6A3
:100C00000E94D304D0CF883909F48CC038F58837D6
:100C100029F050F4883611F0803729F683E080936C
:100C2000C60110929F0157C0883809F47BC08039F3
:100C300019F0803809F0B7CF80919F01803208F019
:100C400071C0E0919F0181E08E0F80939F018091A0
:100C5000BB00F0E0E158FE4F80833DC0803B39F09F
:100C6000E0F4803A09F479C0883A09F09CCF84E036
:100C70008093C60110927E0110927D01E091F001F7
:100C8000F091F101099580917D0181110FC081E002
:100C900080937D0110925D0109C0803C09F4A6CFCC
:100CA000883C09F4A3CF883B09F07DCFE0917E0119
:100CB00081E08E0F80937E01F0E0E35AFE4F808149
:100CC0008093BB0090917E0180917D0129C080912D
:100CD000A1018093BB0085EC8093BC0064CF909110
:100CE000C3018091C201981758F5E091C30181E0DA
:100CF0008E0F8093C301F0E0EE55FE4F8081E9CF67
:100D0000E091C30181E08E0F8093C3018091BB000D
:100D1000F0E0EE55FE4F80839091C3018091C201B7
:100D20009817C8F285E8D8CFE091C30181E08E0F13
:100D30008093C3018091BB00F0E0EE55FE4F8083AD
:100D40008091C50181115CCF81E08093A00184EA8C
:100D50008093BC001092C60126CF85EC8093BC0026
:100D60001092C60180919F01803230F4E0919F0182
:100D7000F0E0E158FE4F108260919F0170E0E09139
:100D8000EE01F091EF018FE791E0099510929F013C
:100D90000ACF1092C40134CFEDECF2E0138212823C
:100DA00088EE93E0A0E0B0E084839583A683B783C8
:100DB0002CE031E03183208325EC30E03587248737
:100DC00024EC30E03787268720EC30E0318B208B15
:100DD00021EC30E0338B228B22EC30E0358B248BFE
:100DE00026EC30E0378B268B118E128E138E148EEC
:100DF000EAE6F3E01382128284839583A683B783A5
:100E00008EE191E091838083E6E7F3E01382128222
:100E100080E391E09183808387E2848384E181870A
:100E200084E0828713860895789484B5826084BDB7
:100E300084B5816084BD85B5826085BD85B58160DE
:100E400085BD80916E00816080936E00109281005C
:100E50008091810082608093810080918100816017
:100E600080938100809180008160809380008091D8
:100E7000B10084608093B1008091B0008160809364
:100E8000B00080917A00846080937A0080917A002B
:100E9000826080937A0080917A00816080937A00EA
:100EA00080917A00806880937A001092C100E0916E
:100EB000DD02F091DE0282E08083E091D902F091C0
:100EC000DA021082E091DB02F091DC0280E18083A3
:100ED0001092E502E091E102F091E20286E0808367
:100EE000E091DF02F091E002808180618083E091F7
:100EF000DF02F091E002808188608083E091DF0270
:100F0000F091E002808180688083E091DF02F091BF
:100F1000E00280818F7D80831092F5011092F401B0
:100F20001092F3011092F2010E946C0285E391E0AD
:100F30009093F1018093F00186E391E09093EF01AB
:100F40008093EE0110927B0380918003823018F031
:100F500098E090937B0380937E0362E370E080E0EF
:100F600090E00E9403016091810386E793E00E9474
:100F7000310368EE73E080E090E00E94030160E3DB
:100F800086E793E00E946004CBE4D6E4CE010197AB
:100F9000F1F760E386E793E00E9460042197F1F7A0
:100FA00060E386E793E00E94600483E592E00197A6
:100FB000F1F760E286E793E00E94600460917B03B2
:100FC000606240E086E793E00E94790484E08093C9
:100FD0007C0340E06CE086E793E00E9479040E9485
:100FE000C20482E080937D0340E066E086E793E000
:100FF0000E94790440E062E086E793E00E94790471
:101000008BE39FE10197F1F788E08093810360E033
:1010100086E793E00E9431030E941B040E94C204F1
:1010200088E690E00E943C0404E110E030E2A32E48
:101030004AE0C42EBB24B39450E0E52E50E0F52ED8
:1010400025E1D22E8DEC92E00E949501181619062A
:101050000CF0E0C08DEC92E00E9473018D3091F3B2
:101060009091C3028A3009F0C1C0911111C0E09182
:10107000C202F0E0E65BFD4F108280914A028823B5
:1010800039F0833409F4A4C044F48F3309F4A5C0C3
:101090001092C2021092C302D5CF8E3409F45DC003
:1010A0008435B1F780914B0280538A3088F730E065
:1010B00090E080E0E32FF0E0E55BFD4F208140ED24
:1010C000420F4A3080F4C89EA001C99E500D1124E1
:1010D000CA01C097820F911D27FD9A958430910512
:1010E000B8F63F5FE7CF2A3399F6D89EE001D99E44
:1010F000D00D1124CA50DE4F30E020E0DE01A20FF7
:10110000B31FAC922F5F3F4F24313105B9F7D89E02
:10111000A001D99E500D1124DA01AA50BE4F549659
:101120001C92319630E020E06191662381F070EEF0
:10113000760F7F3508F060E2D901A40FB51FAA50E1
:10114000BE4F6C932F5F3F4F2431310569F70E94EA
:101150009004CE010E942F049BCF0E941B04ABE49D
:10116000B2E0FD0180E09191992321F0843111F0EA
:101170008F5FF9CFF801E81BF109F595E795EA5083
:10118000FE4F90E0981749F02D9130EE320F3F3529
:1011900008F020E221939F5FF5CF80E00E94900449
:1011A00086EF91E00E942F0481E00E9490048BE082
:1011B00092E00E942F0482E00E94900480E292E07C
:1011C0000E942F0483E00E94900485E392E0C2CF46
:1011D0000E941B040E94C2045BCF8AE790E00E9439
:1011E0003C0485E790E00E943C0452CF91112ACF45
:1011F000E091C202E73748F491E09E0F9093C2025B
:10120000F0E0E65BFD4F80831DCF1092C202B092EA
:10121000C30218CFE114F10409F414CF0E94A10114
:10122000882309F40DCF0E9400000ACFEE0FFF1FA4
:0C1230000590F491E02D0994F894FFCF94
:10123C00000040001400540000000000D7013701EA
:10124C006401240295017301870100000000020370
:10125C00D5021804AB02CE02BB02AC0200000000A7
:0C126C00CD043701180444020D0A0000F4
:00000001FF
