:100000000C94E70D0C940F0E0C940F0E0C940F0E25
:100010000C940F0E0C940F0E0C940F0E0C940F0EEC
:100020000C940F0E0C940F0E0C940F0E0C940F0EDC
:100030000C940F0E0C940F0E0C940F0E0C940F0ECC
:100040000C94D21C0C940F0E0C94421D0C941C1D8D
:100050000C940F0E0C940F0E0C940F0E0C940F0EAC
:100060000C94741D0C940F0E000000002300260059
:1000700029004B3A73637265656E3D6F6C65640071
:100080004B454E44004B3A73637265656E3D6F6C31
:1000900065640000000000240027002A0000000022
:1000A00000250028002B00040404040404040402B6
:1000B0000202020202030303030303010204081005
:1000C00020408001020408102001020408102000D2
:1000D0000000080002010000030407000000000007
:1000E000000000E000040405060406072229FDF9CB
:1000F0001CF91B00036F06E2130720060040500A9C
:10010000210D845B5009FFA0F1882122002211A853
:10011000E85B1A81420C3132428890302200233B46
:100120008E53504A44081121448410114244461110
:1001300019358410114244483CF860CD10424408FF
:100140001121F2E083154408112144841011424426
:10015000460D2135841011420024286E544E5A4415
:1001600069794A0D13422488614A2DD14A4D5A5A61
:100170002959A2E79021234188081B650789D20AE3
:100180000025368E53502AA348141A7166C42424BD
:100190008E8C2942680CD1A144C70E253A94D2A175
:1001A00044C70E253A94CC202265869C2032629A60
:1001B00013834A901A020026298E53505AE550297B
:1001C0005A428808A92144A9254AB4A03964C848DC
:1001D0000C234102C908246C76B4C6049B45AA14BA
:1001E000270CA3D85B19214C88080100281C676BD9
:1001F000504A82C8102143840C994163E83F1A4455
:100200008610194264080501291E68EB501A8348BC
:10021000911A4588D42842A4E68AD0A81951348876
:100220001A42848609022A178BE1794A03070919C1
:10023000F220C9A1232E920C11347010002B0F6BE9
:10024000E1723AE468F4E0811B7214012C09A3D82E
:100250004F092684442D088BE0740A1F382E0A6447
:10026000D85009234888002F1F8E5350AA24895242
:1002700049944AA24487523A94D2A15412A5922892
:100280009544A9240A0030188E53504AE650A961BB
:10029000512819FEFFB34425D8A842670800310F42
:1002A000886B504AD454F1600521FAFF3F32238E07
:1002B00053505AE550A961518804319C9D23118EF9
:1002C000245192244B525992529294927CF0C10242
:1002D000331F8E53500A3F58499424A524292D7961
:1002E0000E6559A2F4493854249A2C4A570A00340E
:1002F0001D8E53505A43693A94A643693A94124268
:1003000044088DA1370F3E5847946E00351E8E531A
:10031000500A7F4A4FD73069518804316444E91448
:1003200019B24425D8A84267080036208E53504A97
:10033000E650A961512819A6345DC3A4452112C411
:10034000F067894AB05185CE1000371C8E53500A91
:100350007F868A0429A25412A525515A12A5B224D7
:10036000512A89D20C0038238E53504AE650A96195
:10037000518804317C9688081B456A981022410CEC
:100380009F252AC146153A430039218E53504AE62B
:1003900050A961512819FE8C04A1124DD82CA52911
:1003A0003264894AB05185CE10003A0CE3D9520923
:1003B00026C4033621003B0D43DA501928C2833688
:1003C0002124023C1609EA527AC24691294388AA9E
:1003D00061C3282B558CD838013D0D4D59720A3F09
:1003E000380FF6C107073E1509EA520A0187515630
:1003F000AAB289CA942144D5B080003F1C8E5350C4
:100400004AE650A96151281932A25416AC92A6F4BA
:10041000F7108E1D2C0C00405239D4AC9BE7DBBE8C
:100420007C20AE64A9B2654A17218584C8A834230C
:1004300008A941B3060D3568A841430D1A6AD0508A
:1004400083861A34D4A0A1060D3568A841430D9ABD
:1004500007871E0419E586149942E5819507561E03
:10046000D803910F82BE66040041288E53505A442F
:100470006969D0EE90613664D89061434611214499
:100480008410114213A961C2C9B021C34610C38CA4
:1004900000422D8E53500AA9D63061428A04291297
:1004A000C446101B416C042912A4483059B3860974
:1004B000A112A44810C3AF483061A2081900431A22
:1004C0008E53504AE650A961512819A6F4FF19B27B
:1004D0005424D8A84267080044178E53500A8AD67D
:1004E0003069412A19FEFF570F463059A3080045CD
:1004F000138E53500A7F4A3F55B4661BA2F4D307AC
:100500001F2C46118E53500A7F4A3F55B4661BA2DA
:10051000F43F05471B8E53504AE650A961512819F4
:10052000A6F4CD9EE1B344259AB059646200481107
:100530008E53500AC4F07FF6E007C4F07F460049AE
:1005400009845B5009FF83034A148E5350AAF4FFB9
:100550007F8A0C59A2126C54A13304004B328E5383
:10056000500AC450912054821011327442880429D8
:1005700012A490213B67D086E7902123418A042969
:1005800022848894A11111422548912046004C0EE6
:100590008E53500A44E9FFFFA70F3E584D218E535A
:1005A000500AC4304BA4D1124E1EFC4109122848F7
:1005B000A018824408122148C220C39F114E1F8EEA
:1005C00053500AC4304B954A91466BD630E104052E
:1005D00009142490F066235D658619014F188E5327
:1005E000504AE650A961512819FEFFB34425D8A806
:1005F00042670800501E8E53500AA914316142A868
:10060000042912C4F015094225983051848C28FD24
:10061000A70051178E53504AE650A961512819FE80
:10062000FFB34425D82C5AA400522E8E53500AC82A
:10063000143161428A04A964F86C0429124C982888
:1006400052446610193A1A4388082122A48690223F
:10065000418A04B111C408531D8E53504AE650A973
:1006600061512819A644EB3F258A0C59A2126C54FB
:10067000A1330400540F8E53500A3F584594FEFF97
:100680007F050055138E53500AC4F0FFFFB3442575
:10069000D8A84267080056358E53500AC490911866
:1006A0004662D8906143480D214484109941640604
:1006B0000D223388082122A486901A328CC430126D
:1006C000C3D05D67D0CA5A12250500572B8E5350F0
:1006D0000AC4F0672486911836644C9049844C22F1
:1006E000640A12434690183282C410FE1B2284888A
:1006F00010224268120058368E53500AC490911846
:10070000368410114264060D22428808A921C3468E
:1007100010C3CEA0ED902123316CC828228488100C
:100720009A8610114244868D20868C00592C8E5357
:10073000500AC4900D19458410114263281A438849
:10074000042912C446103B77CE649544A9244A2557
:1007500051A243291D4A14005A228E53500A3F5871
:100760004A922849A2248992244A922849A224899B
:1007700092244A922849A20F3E585B0F886B500A78
:100780001F18A2FFFFD18307025C228D5B500A4332
:1007900049121D4A92E850924449524A9252929408
:1007A00092243A9424D1A124890E255D0F886B50A0
:1007B0000A1F08A2FFFFD18307065E0EAAE05E3A79
:1007C000A4CCA0203262D0005F0852404F0A1F180C
:1007D000600CC7685D0A84088D9A68006127B05272
:1007E000905A2593AD5A448A0C2932A40853A688FE
:1007F0004D1B14448811214684181162645E3C71BB
:10080000644800621A8E53500A44E953456B98B409
:1008100028940CFFB3440F463059A308006319AE67
:1008200052504AE650A961512819A6F43364894A06
:10083000B05185CE100064188E5350AAF423354B66
:10084000583C18940CFFB344259AB059A400651C79
:10085000AE52504AE650A961512819660F7E409465
:1008600066610A9560A30A9D210066168E53506A40
:10087000058FA552348652BA63C22BA2F4FF0E0034
:1008800067248ED34C4A6A96B078302819CE1295D8
:1008900060A30A33A2949E53C3E2C130CC1E8C6085
:1008A000A30A0D0068148E53500A44E953456B980F
:1008B000B428940CFF7F46006913865B701962268A
:1008C0000A0F8E08FDFF89892264066A176BE44CC3
:1008D0008A02A70C0F3139FAFF7F8766849234A70A
:1008E00008016B2C8E53500A44E967A848902241B6
:1008F0008808193A214484100952A990A54AA548AC
:1009000051113245C81022428A042912C4086C0FC2
:100910008753700964E8FFFF37278C94216D35B841
:1009200052900BAA0A2D49F200C50347A690913BAD
:1009300046EE18B963E48E913B46EE18B963E48E37
:10094000913B46EE18B963E48E913B46EE18B963CD
:10095000E4066E11AE52500A8AD63069512819FE4B
:10096000FF8C006F17AE52504AE650A9615128190A
:10097000FE67894AB05185CE1000701A8ED34C0A9A
:100980008AD63069512819FE67891E8C60B24611DB
:1009900051FA140071188ED34C4A6A96B0783028F8
:1009A00019FE67894A3461B34829FD00720EAB52C3
:1009B000D0093F20828EFE7F07007323AD52104A7C
:1009C000C510A959418804A911A490164C950C256D
:1009D000D111A4508D204464892274850074148937
:1009E0004B7029A4E89B070F8C90A2FFAB33864A7B
:1009F000117511AE52500AC4F0FF67894A3461B3D1
:100A000048017627AE52500AC43023316CC8B02159
:100A1000848810224288CCA01911214484101152DC
:100A200043860D19863B831601774DB952900BC44E
:100A3000C82123378258B121C34A1119568A082187
:100A4000534408991A43E8D04467080D3A4388088C
:100A5000893184889018338A080922C3860C214181
:100A60006CC81012C4D08C208666C4B843070D1D14
:100A70003474D09421007829AE52500AC4480C1B1B
:100A80004288CCA04144480D1986CEA049A2541AF0
:100A900034876CC8282284A6214464D8086204796B
:100AA000318ED34C1AA4888C22328A08A13184C694
:100AB000503486D01842444611194582D808622322
:100AC000889DBBD0C2929552166618AA5408090296
:100AD0007A18AE52500A3F5849B22495054B5259E4
:100AE00092CA92241F7CB0007B1E0A644E7AA30A2D
:100AF000192A448C7E368C502962C4CA911B478CBB
:100B00007E57CA54B9017C09647C4E0AFF0F0A7DE6
:100B10001F0A644E0AE3889532466E1C31FA6E9CB9
:100B2000318A4A0DA39F0D2364A814B171007E0E73
:100B3000AF50540A83CA34F1669410007F06004017
:100B4000500A80060040500A81060040500A820682
:100B50000040500A83060040500A84060040500AB4
:100B600085060040500A86060040500A870600406D
:100B7000500A88060040500A89060040500A8A063A
:100B80000040500A8B060040500A8C060040500A74
:100B90008D060040500A8E060040500A8F06004025
:100BA000500A90060040500A91060040500A9206F2
:100BB0000040500A93060040500A94060040500A34
:100BC00095060040500A96060040500A97060040DD
:100BD000500A98060040500A99060040500A9A06AA
:100BE0000040500A9B060040500A9C060040500AF4
:100BF0009D060040500A9E060040500A9F06004095
:100C0000500AA0060040500AA1060040500AA20661
:100C10000040500AA31B8F53506A0591A95A43887C
:100C20000C292264E9A52ADD91A56F873EF801A46D
:100C3000060040500AA5060040500AA60600405093
:100C40000AA744BD52108C24C992244CB06CC1A296
:100C5000E68C1E3B880A2109322588112942191980
:100C600012650891424584D83122E4CC8D28676E04
:100C7000443973E9CC8D30858AC483164136099393
:100C80002865C15200A8060040500AA94B9953B0EC
:100C90009BE7DBBE7C20AE64A9B2650A5542061113
:100CA00091318A4690598384101924A4C6A02582C4
:100CB00096085A2268892021350609213268D69083
:100CC00018A368081944440A5553B654C9720F440E
:100CD000BE650FE22400AA060040500AAB1FCE51A9
:100CE000536AA1241A4349116A88902133684664E3
:100CF0000815215484101952828645AC06004050D4
:100D00000AAD060040500AAE060040500AAF060089
:100D100040500AB00DC6D05C192490104141020029
:100D2000B1060040500AB2060040500AB306004027
:100D3000500AB4060040500AB5114ED34D0AC4F013
:100D4000FF67891EFCA0289D02B6060040500AB726
:100D5000060040500AB8060040500AB9060040504C
:100D60000ABA060040500ABB23CE51530AC18289F9
:100D700012456650914264089121343794102951EC
:100D8000840C9941A244050B0600BC060040500AA1
:100D9000BD060040500ABE060040500ABF06004093
:100DA000500AC02D4E54504A83C7921D3C21515ABF
:100DB0001AB43B64980D193664D890514408112137
:100DC0004484D0446A9870326CC8B011C43023C1D6
:100DD0002C4E54507A44673B7430515A1AB43B64D9
:100DE000980D193664D89051440811214484D04498
:100DF0006A9870326CC8B011C43023C2324E54505D
:100E00005A44499A1B326CC8A841E388D2D2A0DD6B
:100E100021C36CC8B021C3868C2242880821228459
:100E20002652C384936143868D20861901C3060030
:100E300040500AC4302ED4503A43860D1927443C02
:100E400074446969D0EE90613664D890514446117B
:100E500021448410114213A961C2C9B021C34610B4
:100E6000C38C00C5060040500AC638982B50AA2EE5
:100E70007F881E047A1023C893204F82FC10E2441E
:100E80008813213E461D19756494115246883021FD
:100E9000B23D754A8CE83892E458906331F0414095
:100EA00006C7060040500AC81A4E54504A83C792DB
:100EB0001D3CCD839FD24F15ADD98628FDF4C107C7
:100EC0000BC9194E54507A44673B74DC839FD24F50
:100ED00015ADD98628FDF4C1070BCA1E4E54505AD1
:100EE00044499A1B326CC8A841431EFC947EAA68F0
:100EF000CD3644E9A70F3E58CB1B2ED4503A43863B
:100F00000D1927443C240F7E4A3F55A423A2F4D355
:100F1000071F2CCC124674500A63C80C9A4804115F
:100F2000FAFFFF5F00CD114774503A6466246814DD
:100F300019FAFFFF9F00CE174A64503AA44A991944
:100F40004162CC88416388D1FFFFFF0600CF1228A1
:100F5000EC500A438C8C10221E10FDFFFF9F00D026
:100F6000060040500AD1060040500AD21D4E54508F
:100F70004A83C7921D3C9D39546A58144A86FFFF24
:100F80002C510936AAD01902D31C4E54507A44670A
:100F90003B74AC39546A58144A86FFFF2C51093609
:100FA000AAD01902D4224E54505A44499A1B326C8A
:100FB000C8A841C3CCA152C3A25032FCFF67894AE2
:100FC000B05185CE1000D5188E53504AE650A96115
:100FD000512819FEFFB34425D8A842670800D6203F
:100FE0002ED4503A43860D1927443C64E650A9613B
:100FF000512819FEFFB34425D8A842670800D70638
:101000000040500AD8060040500AD9184E54504AA1
:1010100083C7921D3C0D31FCFFFF2C510936AAD02D
:101020001902DA174E54507A44673B741C31FCFFA6
:10103000FF2C510936AAD01902DB1D4E54505A44D8
:10104000499A1B326CC8A8414388E1FFFF67894A6F
:10105000B05185CE1000DC1B2ED4503A43860D19BA
:1010600027443C24C4F0FFFFB34425D8A8426708B6
:1010700000DD060040500ADE060040500ADF2D8EDB
:1010800053504AE550295A428808A921A448901A89
:10109000428808093324CC9038420205A964F8AF8D
:1010A00052A02071848419128500E02D9053904A3B
:1010B000C327173E1EEA92C9562D2245861419529F
:1010C000842953C4A60D0A22C4881023428C0831F7
:1010D000322F9E38322400E12E9053907A83470FAE
:1010E0009E5A3C142593AD5A448A0C2932A40853C5
:1010F000A6884D1B14448811214684181162645E31
:101100003C71644800E2319053904A658B8E1838E8
:1011100066DC98F110974CB66A112932A4C8902267
:101120004C9922366D5010214684181162448891E2
:1011300079F1C4912101E3060040500AE431705373
:10114000904A42448E20386464A0F050974CB66AAE
:10115000112932A4C890224C9922366D5010214694
:101160008418116244889179F1C4912101E5060047
:1011700040500AE636B552304B8588A140F380C80E
:101180000312840AA1224492104942A41E04794009
:10119000E2418907A9089222488A202942880A3D0B
:1011A00048F2800C0A54A50801E71E4ED34D4AE6CA
:1011B00050A961512819A6F4336424081161A30AC7
:1011C000215182362C0600E8228E53504A83A71DF7
:1011D0003C1E3273A8D4B028940C670F7E4094B2A2
:1011E000308588B05185CE1000E9228E53507A4365
:1011F000A71D3A1E4A73A8D4B028940CB3073F2009
:101200004AB330854AB05185CE1000EA258E53503E
:101210005A240D9A1B326AD07888CCA152C3A250AE
:1012200032CC1EFC8028CDC2142AC146153A430098
:10123000EB266E53504A42C48D2036645CA0F09079
:101240009943A58645A164983DF801519A85295492
:10125000828D2A748600EC1487537009A3262234E9
:101260001E0419FAFF1B2365080DED1387537049FF
:1012700063C690993119FAFF1B2365080DEE1A8A8F
:10128000437039A4CC8C183364C4A0F10089D1FF19
:101290009F992A466E0400EF19884B501942448CDE
:1012A0003832225078C084E8FF8F0A911A26020053
:1012B000F0060040500AF1060040500AF21F4E545A
:1012C000503A64C98E253B783CFCC21C2A352C0A56
:1012D00025C3FF2C510936AAD01902F31E8E535094
:1012E0007A4387129D563C5873A8D4B028940CFFBB
:1012F000B34425D8A842670800F4208E53505A24DE
:101300000D9A1B326AD07888CCA152C3A25032FC0D
:10131000CF129560A30A9D2100F517AE52504AE600
:1013200050A961512819FE67894AB05185CE100035
:10133000F6216E53504A42C48D2036645CA0F09072
:101340009943A58645A164F89F252AC146153A43CD
:1013500000F714EB61724A03078A07FCE0817BE81F
:10136000060E140500F8258E53504A6AD42C61519C
:1013700028916E76C264040A122848A018C264CD6F
:10138000368A344A5482C91A8D00F9178E53504A4E
:1013900083A71D3C1E1262F8FFB344259AB059A4DE
:1013A00000FA178E53507A43A71D3A1E2A62F8FF9F
:1013B000B344259AB059A400FB1A8E53505A240DF9
:1013C0009A1B326AD078F0C4F0FF67894A3461B35F
:1013D0004801FC1B6E53504A42C48D2036645CA009
:1013E000F09010C3FF9F252AD184CD2205FD060071
:1013F00040500AFE060040500AFF060040500A0016
:10140000000004FFFF0000BF000202030403050404
:10141000060C00FE07FE08FF0139028507A820051B
:10142000006A072107394367A80022079B562759FE
:1014300001230B3542AF1AAA4C69A80A240D4D3E70
:1014400037AF4AE59D54B5230025093D4247CEDC20
:101450003905260C3D422FA7987295645401270543
:10146000195767280ACB3E37C514EB9803290BCBD5
:101470003E27C71CAB9822002A0A3D42B7AA765ED7
:10148000CD082B0A2D4637A3386446112C071B3E86
:101490004F8D042D060D4E67082E06924267042FCD
:1014A0000C3D421FE58C728D7246003009BC424FE4
:1014B00045CFA4003108BB422FC9AE01320A3D42DC
:1014C0006FE58C727B08330C3D42676894B3863AB3
:1014D0002D00340C3D423FCB54A6A1334A00350CBD
:1014E0003D42E74623C38C745A00360C3D4257E612
:1014F0008C46CA3A2D00370D3D4267689433CA19AD
:10150000651401380B3D426F659D56D66901390C53
:101510003D426F659D4646394A003A07AA4267C474
:10152000113B09333ECF466A24003C07AB4637D512
:10153000053D081D4A676838043E08AB4627572515
:10154000003F0A3D426FE536CA7404400C3D426FCD
:101550006535525223C305410A3D426F653D46B68B
:1015600003420C3D4267C42AA659C5A100430C3D65
:10157000426F658D32CA28A705440D3D4267C42AD3
:10158000A698628A4301450C3D42E746198D945165
:101590004643460D3D42E746198D94514619014791
:1015A0000C3D426F658D328A3B2D0048093D422734
:1015B000DB63643B4908BB4267C5AE014A0C3D4250
:1015C00077679451466594004B0B3D4227CB54EA14
:1015D00014AB1C4C0E3D4227A38C32CA28A38C8628
:1015E000004D093D4227AF95B43B4E0A3D4227EBE3
:1015F000A992DC3A4F093D426F65EFB400500D3DB2
:101600004267A4AC87CA28A38C00510A3D426F658B
:1016100057925105520B3D4267A4AC872AAB1C532D
:101620000B3D426F650D37D46901540E3D4267C8CA
:101630008C32CA28A38C220055083D4227FB4E0B52
:10164000560A3D4227BB5399720457093D42277BF6
:1016500025D505580A3D4227EB5457B50E590C3D88
:101660004227EB5467945146115A0A3D42676894E9
:10167000BBD1105B08CB3E67C43E075C0D3D4227E3
:10168000C38C32CC30A30C035D08CB3E67F6390225
:101690005E071D5637A73A5F060D3A670860069B3E
:1016A000562717610A2D426FC334741A01620C3D2C
:1016B0004227A38C46CAF65000630A2D426F658DFF
:1016C000725A00640B3D421F659486B6D308650AC2
:1016D0002D426FE5A1325C00660B3D42575679679B
:1016E000945106670B3D3A6F653B8D8CD202680BB7
:1016F0003D4227A38C46CAEE006908BB422F23D97E
:101700001A6A0ACC3A3F63DD9649016B0C3D4227C9
:10171000A38CB24CB3CA016C07BB4247F61A6D0AE0
:101720002D4247B5545249156E082D422799DA0EBD
:101730006F092D426F653B2D00700C3D3A67A46C1C
:101740000F95514600710B3D3A6F683B8D8C320A04
:10175000720B2D4227991A65941100730A2D426F5E
:1017600068B8E15000740C3D4237A33864461965EF
:101770002875082D42273B950A76092D4227DBA9BB
:101780008E0077092D42275B49750178092D422784
:10179000A7BAAA03790A3D3A27DBA96E23007A0883
:1017A0002D4267E8F6107B09CB3E37C52AC73A7C45
:1017B00006493FE7017D0ACB3E27C73AC52A027E8C
:1017C000091D4A2FAA241300A005006A07A10739A2
:1017D00043270D01A20B3D3E37AF4AC554ED08A388
:1017E0000B3D4257567967149502A4082D4227F500
:1017F0004E3DA50C3D4227A76AC838644611A6068F
:101800003943670DA70CC4426F64A4A24C1A8D041F
:10181000A8068B5E2705A90F3E426FA48C64525127
:10182000268DD24800AA07AB526F253DAB092D4249
:1018300037F54E3905AC091D466768945100AD0572
:101840008B4E67AE0E3E426FA48C5C51458DD248E4
:1018500000AF060D5E6708B009A4564F4599140005
:10186000B10C3D4237A3386446991A02B208AB5610
:10187000AF99D200B308AB5647A7BC00B4079B563C
:10188000379500B50B3D3A273B87D2282300B60F8A
:1018900045426F8C34D24849C514534C01B70612E7
:1018A0004F6704B806933A7701B907AB562FC96A58
:1018B000BA07AB56AF1B0DBB0A2D4227E594534F19
:1018C00000BC1055422F6B945146B54C71E48C12FC
:1018D00000BD0E55422F6B94514675CA28D768BE7D
:1018E0000F554247C39C615459A638724609BF0A36
:1018F0003D4237D319E5D602C00D55422FC34CAE39
:10190000ACC7C87600C10B5542BF2657D663643BAF
:10191000C20D554237A74CADACC7C87600C30C55B5
:1019200042CF4DADACC7C87600C40B4D42AFA656F2
:10193000D663643BC50C554237A79C57D663643BBE
:10194000C60C3D426FA898E248658A69C70E4D3AB9
:101950006F658D32CA28A78DA204C81055422FC3C7
:101960004C8D8D321A29A38C8600C90E5542BFA614
:10197000C646198D94514643CA0F554237A78CC7A6
:1019800046198D94514643CB0E4D42AFC663A38C8E
:1019900046CA28A321CC0AD3422767B462D700CD18
:1019A0000AD3423765B462D700CE09D342AFBD62D5
:1019B000D700CF09CB4227E515BB06D00C3D426FBF
:1019C0005671A432C5B400D10C5542CF8DB39E2AB6
:1019D000C9AD03D20C55422FC34CAEEC9D1600D3BB
:1019E0000A5542BF2657F64E0BD40C554237A74C2A
:1019F000ADEC9D1600D50B5542CF4DADEC9D1600BC
:101A0000D60A4D42AFA656F64E0BD7092D4627A74C
:101A1000BAAA03D80F4D3E1FA515575249A599568E
:101A20004600D90B55422FC34C65DF6901DA0A55D0
:101A300042BFA6B2EFB400DB0B554237A78CB3EF21
:101A4000B400DC0A4D42AFC6D9775A00DD0E5542CC
:101A5000BFA6B24E754619651401DE0ABC4227AF17
:101A6000688E9401DF0B3D426F6599CA2A2B05E011
:101A70000C45422FC34C6E98864E23E10B4542BF66
:101A800026374C43A711E20C454237A74C6D988688
:101A90004E23E30B4542CF4D6D98864E23E40B3D1C
:101AA00042AFA6364C43A711E50C454237A79C37F9
:101AB0004C43A711E6092D426FA7B4EA11E70C3D8C
:101AC0003A6F658D72DA284A00E80C45422FC34C04
:101AD000AE3C54860BE90B4542BF26571E2AC30570
:101AE000EA0C454237A74CAD3C54860BEB0B3D420C
:101AF000AFA6561E2AC305EC09C3422767245B0321
:101B0000ED09C3423765245B03EE08C342AF2D5B8A
:101B100003EF08BB422765D91AF00C4D42AFAE3235
:101B20004C43DB6901F10A4542CF8D93A9ED00F2E8
:101B30000B45422FC34CAE6CA705F30A4542BF26A6
:101B400057B6D302F40B454237A74CAD6CA705F549
:101B50000A4542CF4DAD6CA705F60A3D42AFA656E9
:101B6000B6D302F7092D463753435311F80A2D42D5
:101B70006FC895E65000F90B45422FC34C65775A64
:101B800000FA0A4542BFA6B23B2D00FB0B45423787
:101B9000A78CB33B2D00FC0A3D42AFC6D99D160071
:101BA000FD0B553ABFA6B29DEA3602FE0E4D3A270E
:101BB000A38C46CAF650196504FF0B4D3AAFC6D93F
:101BC0004E751B0100000004FFFF0000931E11244E
:101BD0001FBECFEFD8E0DEBFCDBF11E0A0E0B1E087
:101BE000E0E8F4E402C005900D92A23CB107D9F7F9
:101BF00025E0A2ECB1E001C01D92A534B207E1F7E7
:101C00001DE0C7EEDDE004C02197FE010E94122214
:101C1000C63ED107C9F70E94931F0C943E220C9434
:101C20000000662329F06A3019F0862F90E00895AD
:101C30008FEF9FEF0895AF92BF92CF92DF92EF9216
:101C4000FF920F93CF93DF93EC01DA017901942F88
:101C50009770E1E0F0E09F01092E01C0220F0A9485
:101C6000EAF7522F6E018AE8C80ED11CF601808176
:101C700040E0823018F4422F813049F15D01F8EFE5
:101C8000AF22E8ADF9AD28813981D90150968C9108
:101C90008A9D90018B9D300D1124620F731FDF010F
:101CA000A60FB71F01111AC0EA0EFB1E8C91842BE0
:101CB00085278D93AE15BF05C9F7DF91CF910F91A1
:101CC000FF90EF90DF90CF90BF90AF90089550E0DD
:101CD000D5CF440F550FE114F10479F33C91342B27
:101CE00035273C939F5F9770E1E0EE1AF108911160
:101CF000F0CF2CAD3DADA20FB31FF6018081823035
:101D000028F4813009F051E041E0E5CF51E0E3CF24
:101D100080E0089590E080E008959B01DC01189632
:101D2000ED91FC9141E067E10994833081F028F462
:101D3000813099F08230A9F008958730A9F0883079
:101D4000C9F08430B1F4809180008F7D03C0809110
:101D500080008F7780938000089584B58F7784BD4D
:101D6000089584B58F7DFBCF8091B0008F778093ED
:101D7000B00008958091B0008F7DF9CF1F93CF936D
:101D8000DF93282F30E0F901E153FF4F8491F901EF
:101D9000E554FF4FD491F901E955FF4FC491CC238D
:101DA000A9F0162F81110E94950EEC2FF0E0EE0F96
:101DB000FF1FE356FF4FA591B4918FB7F894EC91B4
:101DC000111108C0D095DE23DC938FBFDF91CF9136
:101DD0001F910895DE2BF8CFCF93DF9390E0FC01A5
:101DE000E554FF4F249189559F4FFC01849188232E
:101DF000D1F090E0880F991FFC01ED56FF4FA5919F
:101E0000B491FC01E356FF4FC591D491623071F457
:101E10009FB7F8943C91822F809583238C93E8811F
:101E20002E2B28839FBFDF91CF9108958FB7F89411
:101E3000EC912E2B2C938FBFF6CF3FB7F894809167
:101E4000780390917903A0917A03B0917B0326B532
:101E5000A89B05C02F3F19F00196A11DB11D3FBFE2
:101E6000BA2FA92F982F8827BC01CD01620F711DB1
:101E7000811D911D42E0660F771F881F991F4A95AB
:101E8000D1F708958F929F92AF92BF92CF92DF9237
:101E9000EF92FF926B017C010E941D0F4B015C01D0
:101EA000C114D104E104F104B9F00E941D0F6819B6
:101EB00079098A099B09683E73408105910580F381
:101EC00021E0C21AD108E108F10888EE880E83E00B
:101ED000981EA11CB11CE4CFFF90EF90DF90CF9033
:101EE000BF90AF909F908F9008958A579F4FFC01AD
:101EF0008081082E000C990B01960895AF92BF9235
:101F0000CF92DF92EF92FF920F931F93CF93DF93C5
:101F10006C017B018B01040F151FEB015E01AE18F4
:101F2000BF08C017D10759F06991D601ED91FC9116
:101F30000190F081E02DC6010995892B79F7C50143
:101F4000DF91CF911F910F91FF90EF90DF90CF9095
:101F5000BF90AF900895FC01538D448D252F30E044
:101F6000842F90E0821B930B541710F0CF960895A6
:101F700001970895FC01918D828D981761F0A28DD3
:101F8000AE0FBF2FB11D5D968C91928D9F5F9F7399
:101F9000928F90E008958FEF9FEF0895FC01918D4F
:101FA000828D981731F0828DE80FF11D858D90E0BC
:101FB00008958FEF9FEF0895FC01918D228D892F59
:101FC00090E0805C9F4F821B91098F739927089541
:101FD00086E893E00E94DC0F21E0892B09F420E0E1
:101FE000822F089580E090E0892B29F00E94E80F6D
:101FF00081110C9400000895FC01A48DA80FB92F45
:10200000B11DA35ABF4F2C91848D90E001968F7320
:102010009927848FA689B7892C93A089B1898C913F
:10202000837080648C93938D848D981306C002888E
:10203000F389E02D80818F7D80830895EF92FF9258
:102040000F931F93CF93DF93EC0181E0888F9B8DDB
:102050008C8D98131AC0E889F989808185FF15C095
:102060009FB7F894EE89FF896083E889F9898081B8
:102070008370806480839FBF81E090E0DF91CF9187
:102080001F910F91FF90EF900895F62E0B8D10E0A9
:102090000F5F1F4F0F731127E02E8C8D8E110CC018
:1020A0000FB607FCFACFE889F989808185FFF5CF63
:1020B000CE010E94FC0FF1CFEB8DEC0FFD2FF11D37
:1020C000E35AFF4FF0829FB7F8940B8FEA89FB89A0
:1020D00080818062CFCF0F931F93CF93DF938C01CA
:1020E000D0E0C0E0F801EC0FFD1F6491662341F0E1
:1020F00086E893E00E941E10892B11F02196F2CF02
:1021000042E050E06DE971E086E893E00E947E0FC6
:102110008C0F9D1FDF91CF911F910F910895CF9349
:10212000DF93EC01888D8823B9F0AA89BB89E889FF
:10213000F9898C9185FD03C0808186FD0DC00FB6A5
:1021400007FCF7CF8C9185FFF2CF808185FFEDCF23
:10215000CE010E94FC0FE9CFDF91CF91089520912D
:102160005502260F3327331F21323105ECF420911D
:102170007B02FC0190E080E0243069F082E0089569
:10218000A09155022191AC014D5C5D4FA40FB52F7C
:10219000B11D2C930196861798F380915502680F14
:1021A0006093550280E0089581E0089510927B02CB
:1021B00081E080937D0210927C0261E082E10E94C6
:1021C000BE0E61E083E10E94BE0EE9EBF0E080818B
:1021D0008E7F808380818D7F808388E48093B800A8
:1021E00085E48093BC000895CF93DF9391E09093B2
:1021F00032028823B9F0C091B800D091BA00809122
:10220000BC008A7B8093BC0060E082E10E94BE0E2D
:1022100060E083E10E94BE0E0E94D610D093BA0007
:10222000C093B800DF91CF9108950895089508955F
:10223000E0912A0280912902E81730F4F0E0E75F8C
:10224000FD4F808190E008958FEF9FEF089590916A
:102250002A02809129022FEF3FEF981748F4E92FC7
:10226000F0E0E75FFD4F208130E09F5F90932A020E
:10227000C90108958091290290912A02891B990B26
:102280000895CF92DF92EF92FF920F931F93CF9317
:10229000DF937C01CB018A0120910802222389F07F
:1022A000EB016B01C40ED51ECC15DD0569F06991FB
:1022B000D701ED91FC910190F081E02DC7010995C6
:1022C000F3CF642F0E94AF10C801DF91CF911F910F
:1022D0000F91FF90EF90DF90CF900895CF93DF9311
:1022E0001F92CDB7DEB76983209108022223F9F04F
:1022F00020912B02203258F021E030E0FC013383A2
:10230000228390E080E00F90DF91CF91089580913B
:102310002C02E82FF0E0E851FE4F998190838F5F07
:1023200080932C0280932B0281E090E0ECCF61E05F
:10233000CE0101960E94AF10F7CFDC011A96ED9105
:10234000FC9130E020E00994DC011696ED91FC91BF
:1023500030E020E040E069E10994DC011696ED915F
:10236000FC9130E020E040E068E109949A01DC0152
:102370001696ED91FC91462F67E10994EF92FF923A
:102380000F931F93CF93DF931F92CDB7DEB77C01DE
:102390008B01D8016C91673129F150F46531A0F4BB
:1023A0000F90DF91CF911F910F91FF90EF900895C3
:1023B0006A3118F16E3FA1F7F8014181498369E262
:1023C000C7010E949D110BC0F80141814983D701CB
:1023D0001696ED91FC9130E020E0C70109950E5F63
:1023E0001F4FD7CFF80181818983AE014F5F5F4FC7
:1023F00061E0C7010E94B611F2CF0F5F1F4FD701F6
:102400001696ED91FC9130E020E040E0C70109957F
:10241000C0CF462FDC011696ED91FC9130E020E014
:1024200066E10994462FDC011696ED91FC9130E0AF
:1024300020E065E10994EF92FF920F931F93CF93F1
:10244000DF93EC01042F79016D3009F446C050F49C
:102450006B30C9F1693009F49FC06A3009F465C076
:1024600080E046C06E3009F452C06F3099F70E9488
:10247000AD11F7011381110F110F110F6C89160F98
:1024800060E4CE010E941212612F62956F7060614C
:10249000CE010E941212612F6F70CE010E940912AC
:1024A000F7016481606BCE010E940912F70140813F
:1024B00051816281660F660F660FCE010E94B611D0
:1024C0000150A1F72EC065E171E0442311F060E1F5
:1024D00071E0CE010E94BE110AC0411110C069E036
:1024E00071E00E94BE11E881F98182898C8B81E0C4
:1024F000DF91CF911F910F91FF90EF90089562E0CF
:1025000071E00E94BE11E881F9818389EFCF0E94BA
:10251000AD1161E8CE010E941212602FCE010E941F
:102520000912CE010E94A411E2CFEA85FB8530E0BA
:1025300020E040E068E2CE010995EE81FF8130E0C5
:1025400020E040E064E1CE01099541E06BE4CE017A
:102550000E949D11E881F981448169E2CE010E94C7
:102560009D1140E06BE4CE010E949D11E881F9814C
:10257000448169E2CE010E949D1141E06BE4CE01ED
:102580000E949D11E881F981458169E2CE010E9496
:102590009D116AE171E09DCF8FE491E0998388837A
:1025A0001C8AA5CFDC011896ED91FC9130E020E06B
:1025B00040E069E10994DC011896ED91FC9130E06E
:1025C00020E040E068E10994CF93DF931F92CDB7FC
:1025D000DEB76983BE016F5F7F4F0E948D0E0F9043
:1025E000DF91CF910895EF92FF921F93CF93DF93E6
:1025F000EC01162F7A010E94DB1260E4CE010E94EA
:10260000E412E885F9859701412F67E1CE0109952C
:10261000CE01DF91CF911F91FF90EF900C94D212D9
:10262000EF92FF921F93CF93DF93EC01142F790168
:10263000663181F138F4643109F44BC0653179F0C9
:1026400080E022C06831C9F150F16931C9F7809149
:10265000E701882391F1CE010E94D2122EC0809111
:10266000E701882319F0CE010E94D212CE010E9408
:10267000DB1260E0CE010E94E412612FCE010E94C5
:10268000E41281E08093E701DF91CF911F91FF90E9
:10269000EF900895642F0E94E41281E0F5CF8091BD
:1026A000E701882319F0CE010E94D212A701193147
:1026B00038F4612FCE010E94F3121092E701EDCFA2
:1026C00068E1CE010E94F312185188E1E80EF11C76
:1026D000EDCF8E898F3F11F488E78E8BE885F985E1
:1026E0009701412F64E1CE01DF91CF911F91FF90BF
:1026F000EF9009940F93FC01E05CFF4F0190F08193
:10270000E02D4E1B5F0BDC01D496ED91FC910995F9
:102710000F910895CF93DF93FC01A081B18182AD29
:1027200090E09C0143E0220F331F4A95E1F737AF59
:1027300026AF50962C91509748E0249F9001112489
:1027400035AF24AF23AD30E0B90153E0660F771FFA
:102750005A95E1F7EF01C05CDF4F798368835196AA
:102760004C915197E901C80FD91F50E04C175D07F4
:1027700018F4CA01821B930BEF01CE5BDF4F798304
:102780006883229623E0880F991F2A95E1F7860F28
:10279000971F99838883229654968D919C91559783
:1027A00099838883E85BFF4F56968D919C91918326
:1027B0008083DF91CF9108950F931F93FC01E25B1B
:1027C000FF4F0190F081E02DDC01A05BBF4F0D9029
:1027D000BC91A02D4A175B0740F4E017F10748F0C1
:1027E0000417150730F080E019C0E017F107C0F3B7
:1027F000FACFFC01E65BFF4F40815181845B9F4F24
:10280000FC01808191816817790758F481E04217B3
:10281000530720F081E02617370728F71F910F9103
:10282000089542175307B0F3DECF2F923F924F9295
:102830005F926F927F928F929F92AF92BF92CF9250
:10284000DF92EF92FF920F931F93CF93DF93CDB759
:10285000DEB72A970FB6F894DEBF0FBECDBF9A87BA
:102860008987865B9F4F9A838983FC01118210823E
:10287000E985FA85EA5BFF4F4080518029853A85DA
:10288000245B3F4F3C832B83F90151824082E985D1
:10289000FA85EE5BFF4F2080318029853A85225BE7
:1028A0003F4F3E832D83F90131822082E985FA85ED
:1028B000EC5BFF4F6080718029853A85205B3F4F3C
:1028C00038872F83F90171826082E985FA85E85A99
:1028D000FF4FE080F180E985FA85EC5AFF4FA08038
:1028E000B180E985FA85EA5AFF4FC080D180E98539
:1028F000FA85EE5AFF4F8080918087019501A601ED
:10290000B40189859A850E94DC1329853A852C5764
:102910003F4F3A87298781111BC0F90110822A96FF
:102920000FB6F894DEBF0FBECDBFDF91CF911F91E0
:102930000F91FF90EF90DF90CF90BF90AF909F905E
:102940008F907F906F905F904F903F902F90089561
:1029500081E0E985FA8580838114910421F0E98181
:10296000FA8191828082A414B50420F4EB81FC8169
:10297000B182A0822C143D0420F4ED81FE81D1822D
:10298000C082E614F70458F6EF81F885F182E08200
:10299000C6CF0F93CF93DF93E02FDC01AC57BF4F2F
:1029A000FC91FF2309F460C02115310509F45CC0D6
:1029B0002230310538F0023009F04AC06F5F7F4F96
:1029C000621B730B0E2F0170E0FD52C0FC01E25B35
:1029D000FF4F0190F081E02D4E175F0708F444C0CF
:1029E000FC01E05BFF4F0190F081E02D4E175F0787
:1029F000D8F5FC01E45BFF4F0190F081E02DDC0194
:102A0000A65BBF4F0D90BC91A02D260F371F261738
:102A1000370738F56E177F0718F59F0121503109E8
:102A2000A217B30708F56A177B0708F4BD012E1734
:102A30003F0708F4F901E61BF70BEC01AEA9BFA9AB
:102A400014960D90BC91A02D9F01FD0109950CC01D
:102A5000033009F0B7CF4F5F5F4F421B530BB2CF2C
:102A6000BD016E177F07E0F2DF91CF910F910895BE
:102A7000FC01E65BFF4F0190F081E02D6E177F07B0
:102A800098F3FC01E45BFF4F0190F081E02D6E179D
:102A90007F0750F7FC01E05BFF4F0190F081E02DD4
:102AA000DC01A25BBF4F0D90BC91A02D240F351F00
:102AB00024173507A8F44E175F0788F49F012150AB
:102AC0003109A217B30780F64A175B0708F4AD0176
:102AD0002E173F0708F4F901E41BF50BAECFAD014B
:102AE0004E175F0708F6EDCF213069F038F022303D
:102AF00079F0840F911D47FD9A950895860F911DD9
:102B000067FD9A950895841B910947FD9395089553
:102B1000861B910967FD93950895213069F038F07F
:102B2000223079F0861B910967FD93950895840FF3
:102B3000911D47FD9A950895860F911D67FD9A9501
:102B40000895841B910947FD939508953F924F92F4
:102B50005F926F927F928F929F92AF92BF92CF922D
:102B6000DF92EF92FF920F931F93CF93DF937C013D
:102B7000162F442EEC01C25ADF4F5E806F806C012D
:102B80008AE8C80ED11C78847518312E711608F4A5
:102B9000372C8C809D800E85202F462D652D8A81B7
:102BA0009B810E9474155C01202F462D652DC40168
:102BB0000E948D15AC01442079F08C85F60180834C
:102BC000232D30E0B501C7010E94C914171548F044
:102BD00017196394512CD7CF8B858111F7CF8D8531
:102BE000EDCF150D1E836F82DF91CF911F910F9155
:102BF000FF90EF90DF90CF90BF90AF909F908F901D
:102C00007F906F905F904F903F900895DC011A96EF
:102C10004C911A97ED91FC911197249130E0042E7C
:102C200002C0359527950A94E2F7842F860F8830E5
:102C300068F031961196FC93EE93E49198E0941B22
:102C400001C0EE0F9A95EAF72E2B88501A968C93B6
:102C50008FEF9FEF01C0880F6A95EAF78095822376
:102C600008950F931F93CF93DF938C01EC01C25A09
:102C7000DF4F798368831A86FC01EF58FF4F60812C
:102C8000CE010E9406168887F801EE58FF4F60813A
:102C9000CE010E9406168987F801E657FF4F908102
:102CA0009C8781E0911180E08D87DF91CF911F910A
:102CB0000F910895CF93C62F0E940616C15021E0B0
:102CC00030E001C0220FCA95EAF7821BCF91089528
:102CD000FC01E60FF11D849190E0982F8827319632
:102CE000E4918E0F911D0895CF93DF9320910D05F0
:102CF00030910E052817390709F490C0EC01909324
:102D00000E0580930D05FC0184918093200531967A
:102D1000E491E0932105FE013296E491E0932205CF
:102D2000FE013396E491E0932305FE013496E4918D
:102D3000E0932405FE013596E491E0932505FE011C
:102D40003696E491E0932605FE013796E491E093F0
:102D50002705FE013896E491E0932805FE01399697
:102D6000E491E0932905FE013A96E491E0932A0567
:102D7000FE013B96E491E0932B05FE013C96E49125
:102D8000E0932C05FE013D96E491E0932D05FE01B4
:102D90003E96E491E0932E05FE013F96E491E09388
:102DA0002F05FE017096E491E093300561E1CE01BC
:102DB0000E946816909332058093310563E1CE013D
:102DC0000E946816909334058093330565E1CE0127
:102DD0000E946816909336058093350580910D0505
:102DE00090910E05892BD1F080912D0580933905A6
:102DF00040912E0540933A0590913805992371F042
:102E0000913079F490912F05891714F49093390536
:102E100080913005841714F480933A05DF91CF91A7
:102E2000089530912A0520912C05082E000C990B4D
:102E3000622F022E000C770B630F711D37FD7A9500
:102E4000861797071CF4320F30933905241734F78F
:102E500020933A05E3CFEF92FF920F931F93CF9306
:102E6000DF93FC01E65AFF4F20813181295E3F4FFD
:102E70006F3F710509F048F561367105D8F080584B
:102E80009F4FFC0180819181280F391FC901019654
:102E9000FC014491442309F447C0F90144914617C9
:102EA000170671F40196DF91CF911F910F91FF905A
:102EB000EF9008956134710548F382589F4FE1CF38
:102EC000FC018491280F311DE1CF8B01FC01EE57ED
:102ED000FF4FC081D181C20FD31F7E0160E0C701C7
:102EE0000E946816C80FD91F62E0C7010E946816C9
:102EF000F4E0EF0EF11C8017910780F3FE0184913E
:102F000090E0982F88273196E4918E2B009761F0FE
:102F10000817190719F4CE010396C5CFFE013296A2
:102F2000E491CE0FD11DEACF90E080E0BCCFCF92EC
:102F3000DF92FF920F931F93CF93DF9310921905A7
:102F40001092CB048CE7C82E83E0D82E90ECF92E9B
:102F500010E000E0D0E0C0E0F60161916F01E09187
:102F6000B504F091B60483EB94E009958F3F980780
:102F700089F18E3F2FEF920779F3BC0183EB94E048
:102F80000E942B17009721F1BC0183EB94E00E9473
:102F900031166091260581E195E00E945A168093D2
:102FA0003B056091270581E195E00E945A166091EA
:102FB000280581E195E00E945A16082F880F110B11
:102FC00080ECF81202C0F0903B05C00FD11FC4CFB7
:102FD00080E0F3CF20911905222399F080913B05E1
:102FE000022E000C330B280F311D87FD3A95C20FBE
:102FF000D31FC01BD10B1F1424F4CF0DD11DF7FC20
:10300000DA95CE01DF91CF911F910F91FF90DF9064
:10301000CF9008958F929F92AF92BF92CF92DF92FE
:10302000EF92FF920F931F93CF93DF93EC017B01FD
:103030008A016901FC01E459FF4F8081813009F464
:103040006FC008F462C0823009F475C0833009F49F
:103050007DC0FE01E05AFF4FF182E082329611837B
:103060000083B601CE010E942B17009709F4FFC020
:103070007E012EE5E20EF11CBC01CE010E9431164C
:10308000FE01E959FF4FB0803C966081C7010E9464
:103090005A16882EFE01EC58FF4F6081C7010E942E
:1030A0005A16082FFE01EB58FF4F6081C7010E949E
:1030B0005A16A82EF701908419140CF090C01685AA
:1030C0000B0D0195212F402F682D828193810E9445
:1030D00074156C01F70193838283212F402F682D93
:1030E000848195810E948D15AC01F70195838483BD
:1030F000113009F484C0A8F1123009F491C01330E2
:1031000009F4A4C08C01960136C0FE01E45AFF4FB9
:103110000190F081E02DCE010995080F191F99CF7C
:10312000FE01E45AFF4F0190F081E02DCE01099598
:10313000E81AF90A8ECFFE01E45AFF4F0190F081A0
:10314000E02DCE010995081B190B83CFFE01E45A2F
:10315000FF4F0190F081E02DCE010995E80EF91E98
:1031600078CF9601290D311D97FC3A958C010B0DF6
:10317000111DB7FC1A95B601CE010E94DC138823FD
:1031800071F1F701168217828E0101591F4F6E01EE
:10319000F0E7CF0ED11CF8016081C7010E9406162E
:1031A000882EF6016081C7010E940616982E40E025
:1031B000682DCE010E94A61541E0692DCE010E9426
:1031C000A61561E0C7010E9406168111F0CFF70134
:1031D00087818B1504F3C657DF4F848588838A2D3A
:1031E000AA0C990BDF91CF911F910F91FF90EF9057
:1031F000DF90CF90BF90AF909F908F90089581E027
:1032000090E08B199109B7FC939596012F5F3F4F82
:103210008A01090D111D97FC1A95C80ED91EABCF56
:1032200081E090E0BC016919710997FC73959601E2
:103230002F5F3F4F8B199109B7FC93958A010F5F60
:103240001F4F480F591FC60ED71E95CF96012B0D45
:10325000311DB7FC3A9581E090E08919910997FCFE
:1032600093958A010F5F1F4F480F591F84CF90E03D
:1032700080E0B8CFCF92DF92EF92FF920F931F932F
:10328000CF93DF93EC018B011092CB047A01D12C08
:10329000C12CF70161917F01E091B504F091B60472
:1032A00083EB94E009958F3F980719F18E3F2FEF3C
:1032B000920779F39C01A801BE0183EB94E00E9480
:1032C0000A1820911F05213059F038F0223059F0AA
:1032D000233061F0C80ED91EDCCFC80FD91FFACF3A
:1032E000080F191FF7CFC81BD90BF4CF081B190BF8
:1032F000F1CFC601DF91CF911F910F91FF90EF9019
:10330000DF90CF900895CF93DF93EC016BAFEEA9E0
:10331000FFA90190F081E02D0995EEA9FFA9028097
:10332000F381E02DCE01DF91CF910994AF92BF924E
:10333000CF92DF92EF92FF920F931F93CF93DF9381
:1033400000D000D01F92CDB7DEB78C01DC01DA9639
:10335000AC90DA97DB96EC90DB97ED91FC91B1881D
:10336000FE2CD12CC12CD801ED91FC9111978089B4
:10337000D8962D913C911C82FD828B83B8E08B9F67
:10338000C00111248C9DA0018D9D500D9C9D500D60
:103390001124240F351F3A832983D8011496ED9107
:1033A000FC919E012F5F3F4F41E06FE0C8010995FE
:1033B000F3948F2D8E198A1528F4BFEFCB1ADB0AF0
:1033C000FB1488F20F900F900F900F900F90DF91E9
:1033D000CF911F910F91FF90EF90DF90CF90BF9012
:1033E000AF900895CF92DF92EF92FF920F931F93C9
:1033F000CF93DF93EC01962F683109F44BC0B901EC
:10340000993130F49431C9F0973189F080E006C0E9
:10341000993109F461C09032C9F781E0DF91CF9111
:103420001F910F91FF90EF90DF90CF90089550E0A3
:1034300083E294E00E944111F0CF8C859D85AE859A
:10344000BF85892B8A2B8B2B71F4E881F981A585A7
:10345000B0E020EA36E841E050E00E9407226C87A5
:103460007D878E879F8710922A02109229021092E0
:103470002C0210922B020E94D61085E191E19093CC
:1034800054028093530286E191E190935802809315
:103490005702C3CF2C853D854E855F8560E074E281
:1034A00084EF90E00E94E521205131094109510942
:1034B00056954795379527952093B8008E8990E0CB
:1034C0009595879591E0909308028093E60110927C
:1034D0002C0210922B02A1CFD0912B02D13208F0F6
:1034E00093C0C091E6010E941D0F6B017C01809189
:1034F0007B02811164C082E080937B0281E0809333
:103500007D028FEF80937A0210929F02D0939E02E9
:10351000A8EEB1E0EEE7F2E080E0D8137CC01092B4
:10352000A0028091A002CC0FC82BC093A002809172
:103530007C02813009F073C010927C020E941D0F42
:103540006B017C018091A0028093BB0080912E02D0
:1035500090912F02A0913002B0913102892B8A2BD9
:103560008B2B99F00E941D0F00912E0210912F02BB
:1035700020913002309131026C197D098E099F092A
:103580000617170728073907D8F18091BC0083FD7B
:10359000D9CF85EC8093BC000E941D0F6B017C018C
:1035A00080917B028230E9F180917A028F3F61F154
:1035B00080917A02803241F180917A0225C0809117
:1035C0002E0290912F02A0913002B0913102892BEE
:1035D0008A2B8B2B09F48BCF0E941D0F00912E029A
:1035E00010912F0220913002309131026C197D0927
:1035F0008E099F09061717072807390708F077CFA4
:1036000080912D020E94F41010922C0210922B0235
:103610001092080202CF9D9191938F5F7ECF85EE2D
:10362000B9CF80912E0290912F02A0913002B091DB
:103630003102892B8A2B8B2B09F4B2CF0E941D0FEC
:1036400000912E0210912F02209130023091310210
:103650006C197D098E099F09061717072807390776
:1036600008F09ECFCDCF0F931F93CF93DF93EC0144
:10367000862F642F8C32B8F48A32D8F5883239F12B
:103680008932E9F1803408F472C0982F9F73FE01EB
:10369000E90FF11D868D8F3F61F1903108F045C033
:1036A0000E94BE0E26C08D3281F160F394EB980F1C
:1036B000923040F78F73C80FD11D8E8D411133C0EA
:1036C0000E94BE0E61E08E8D0E94EC0E12C08E0133
:1036D000025E1F4FD0E0F80181918F018F3F31F0E2
:1036E00061E0D03108F062E00E94EC0EDF5FD6317D
:1036F00091F781E0DF91CF911F910F91089570E0D4
:1037000090E080E00E94420FF4CF85E090E04330EB
:1037100010F082E090E0880F991F880F991F05979D
:103720000197F1F7E6CF62E0CFCF282F30E0F90123
:10373000E153FF4F8491F901E554FF4F0491F901E2
:10374000E955FF4F1491112379F081110E94950ED4
:10375000E12FF0E0EE0FFF1FE859FF4FA591B49164
:10376000EC910E2381E009F480E0898FC2CF80E0E4
:10377000C1CFCF92DF92EF92FF920F931F93CF931F
:10378000DF936C01EB017B01E40EF51E10E000E01D
:10379000CE15DF0561F06991D601ED91FC910190A4
:1037A000F081E02DC6010995080F191FF1CFC8015E
:1037B000DF91CF911F910F91FF90EF90DF90CF900D
:1037C0000895CF92DF92EF92FF920F931F93CF93C2
:1037D000DF93EC016C0124E0C20ED11CFC01E05728
:1037E000FF4F0190F081E02DC60109958E3FEFEF6C
:1037F0009E07D8F48E010C561F4FF801408151816D
:103800007E01F2E9EF0EF11CF701608171819C01EC
:10381000C6010E940A18C059DF4F28812130C1F02B
:1038200078F02230B9F02330E9F081E090E0DF91C8
:10383000CF911F910F91FF90EF90DF90CF9008955F
:10384000F70120813181820F931F91838083EDCF17
:10385000F801F7CFF70120813181281B390B318323
:103860002083E3CFF801F7CF089590E080E008953A
:1038700085ED8093BC0080912E0290912F02A09143
:103880003002B09131020796A11DB11D23E0B6951B
:10389000A795979587952A95D1F72091BC0024FD8F
:1038A00003C010927B02089540912E0250912F0286
:1038B0006091300270913102452B462B472B69F302
:1038C0000097A105B10541F02AE22A95F1F700C061
:1038D0000197A109B109E1CF80912D020C94F41058
:1038E000FC01A081B18150962C9182AD38E0839F7C
:1038F000C0011124289FA001299F500D112470E0C0
:1039000060E080AD91AD0C9427221F93CF93DF939D
:10391000EC010E9496191BAD8AAD180FE881F98160
:103920008189181768F0EC81FD8130E020E040E0EB
:1039300060E1CE01099580E0DF91CF911F9108955C
:10394000FE01E557FF4F8081882319F0CE010E94C8
:10395000701C612FCE010E94831981E0EDCFCF93BF
:10396000DF93EC01FC01E557FF4F8081882319F0BC
:10397000CE010E94701C60E0CE01DF91CF910C94CB
:10398000831983EB94E00E94AF1C83EB94E00E94C8
:10399000851C8111FACF82E090E090930101809321
:1039A000000108951F920F920FB60F9211242F93CA
:1039B0003F938F939F93AF93BF93809174039091A4
:1039C0007503A0917603B09177033091730323E0E0
:1039D000230F2D3758F50196A11DB11D20937303B8
:1039E0008093740390937503A0937603B093770349
:1039F0008091780390917903A0917A03B0917B0331
:103A00000196A11DB11D8093780390937903A09333
:103A10007A03B0937B03BF91AF919F918F913F91B8
:103A20002F910F900FBE0F901F90189526E8230F2F
:103A30000296A11DB11DD2CF1F920F920FB60F9209
:103A400011242F933F934F935F936F937F938F93A3
:103A50009F93AF93BF93EF93FF9386E893E00E9409
:103A6000FC0FFF91EF91BF91AF919F918F917F914B
:103A70006F915F914F913F912F910F900FBE0F90DB
:103A80001F9018951F920F920FB60F9211242F932B
:103A90008F939F93EF93FF93E0919603F091970399
:103AA0008081E0919C03F0919D0382FD1BC0908179
:103AB00080919F038F5F8F732091A003821741F045
:103AC000E0919F03F0E0EA57FC4F958F80939F03AE
:103AD000FF91EF919F918F912F910F900FBE0F90BB
:103AE0001F9018958081F4CF1F920F920FB60F92FE
:103AF00011242F933F934F935F936F937F938F93F3
:103B00009F93AF93BF93EF93FF938091B900887F0A
:103B1000803609F44AC0F0F5883209F4A7C018F5D8
:103B2000803109F49BC0B8F4882309F4F9C08830C7
:103B300009F494C0FF91EF91BF91AF919F918F9144
:103B40007F916F915F914F913F912F910F900FBE99
:103B50000F901F901895883109F488C0803251F772
:103B600080937A0214C0803409F49DC040F48033FD
:103B7000B9F38833F9F680937A0285ECB0C08035CA
:103B800009F485C0883509F496C0883499F60E94F6
:103B9000381CD0CF883909F48CC038F5883729F023
:103BA00050F4883611F0803729F683E080937B0249
:103BB0001092790257C0883809F47BC0803919F017
:103BC000803809F0B7CF80917902803208F071C057
:103BD000E091790281E08E0F809379028091BB00A1
:103BE000F0E0E75AFD4F80833DC0803B39F0E0F4C0
:103BF000803A09F479C0883A09F09CCF84E0809338
:103C00007B021092560210925502E0915302F091FD
:103C1000540209958091550281110FC081E0809373
:103C200055021092330209C0803C09F4A6CF883CAB
:103C300009F4A3CF883B09F07DCFE091560281E0E3
:103C40008E0F80935602F0E0ED5CFD4F80818093F3
:103C5000BB00909156028091550229C08091A0022C
:103C60008093BB0085EC8093BC0064CF90919F0251
:103C700080919E02981758F5E0919F0281E08E0F87
:103C800080939F02F0E0E258FD4F8081E9CFE09100
:103C90009F0281E08E0F80939F028091BB00F0E035
:103CA000E258FD4F808390919F0280919E02981769
:103CB000C8F285E8D8CFE0919F0281E08E0F809313
:103CC0009F028091BB00F0E0E258FD4F808380911D
:103CD0007D0281115CCF81E080937C0284EA809335
:103CE000BC0010927B0226CF85EC8093BC00109222
:103CF0007B0280917902803230F4E0917902F0E029
:103D0000E75AFD4F10826091790270E0E09157020E
:103D1000F091580289E592E00995109279020ACF54
:103D200010927A0234CFCF931092890310928803B5
:103D300088EE93E0A0E0B0E080938A0390938B0339
:103D4000A0938C03B0938D032BE631E0309387036F
:103D50002093860325EC30E0309393032093920365
:103D600024EC30E0309395032093940320EC30E072
:103D7000309397032093960321EC30E0309399031E
:103D80002093980322EC30E030939B0320939A0316
:103D900026EC30E030939D0320939C0310929F0308
:103DA0001092A0031092A1031092A2031092260475
:103DB000109225048093270490932804A09329044B
:103DC000B0932A048DE791E0909324048093230418
:103DD0001092B2041092B10481E19EE090934005EC
:103DE00080933F05109242051092410510924405C0
:103DF000109243051092CB048FE891E09093B004A9
:103E00008093AF041092B4041092B3041092C804CB
:103E10001092BF041092C0041092C1041092C20408
:103E20008FEF8093C9048093CD04E1EDF4E087EE39
:103E300094E0CFEFC1938E179F07E1F78BE192E1FA
:103E40009093B8048093B70480E193E19093BA040F
:103E50008093B90482EF99E19093BC048093BB04F2
:103E600083E39BE19093BE048093BD0430E020E0A7
:103E700040E069E083EB94E00E941B1210920E0573
:103E800010920D058BE19EE09093E8048093E70487
:103E90008FE294E09093EC048093EB0481E08093B4
:103EA000ED041092EE0410921C0510923C05109245
:103EB000380580933D0580933E0587E991E0909316
:103EC000EA048093E90483EB94E00E948A13109241
:103ED00006051092050510920A05109209058FEF4C
:103EE0009FEF909308058093070590930C058093AE
:103EF0000B05E091E904F091EA040280F381E02DE2
:103F000083EB94E009958AE89EE0909310058093F6
:103F10000F0510921F05C093DC04C093DD04C0930D
:103F2000DE04CF910895CF93DF93CDB7DEB76697C8
:103F30000FB6F894DEBF0FBECDBF789484B5826013
:103F400084BD84B5816084BD85B5826085BD85B53D
:103F5000816085BD80916E00816080936E001092BB
:103F60008100809181008260809381008091810036
:103F700081608093810080918000816080938000C7
:103F80008091B10084608093B1008091B000816025
:103F90008093B00080917A00846080937A00809151
:103FA0007A00826080937A0080917A0081608093A9
:103FB0007A0080917A00806880937A001092C10024
:103FC000E0919603F091970382E08083E091920361
:103FD000F09193031082E0919403F091950380E1B6
:103FE000808310929E03E0919A03F0919B0386E0F8
:103FF0008083E0919803F0919903808180618083B0
:10400000E0919803F0919903808188608083E0912A
:104010009803F0919903808180688083E0919803F0
:10402000F091990380818F7D8083E091B704F091B6
:10403000B80430E020E040E06AE083EB94E00995CA
:1040400083EB94E00E94AF1C83EB94E00E94851CFC
:104050008111FACF60E083EB94E00E948319E09134
:10406000B704F091B80430E020E040E06BE083EB6F
:1040700094E009951092A1021092B7021092CD021D
:104080001092E30210927C0383EB94E00E94AF1C39
:10409000E5E7EE2EEFE0FE2E01E11EE087E094E181
:1040A0000E947416F0921005E0920F051093B6046A
:1040B0000093B50440EA51E060E170E08AE090E0EE
:1040C0000E943A191093B6040093B50443EB51E0F3
:1040D00062E270E089E190E00E943A1983EB94E09B
:1040E0000E94851C8111DACF6AE872E080E090E0DE
:1040F0000E94420F10920101109200010E94C11C07
:1041000082E790E00E946B1040E8442E512C662418
:104110006394712C61E1E62E6EE0F62E7AE8C72EEC
:104120007EE0D72E26E1322E35E7A32E3FE0B32ED8
:104130002224239486E893E00E94DC0F18161906C7
:104140000CF036C186E893E00E94BA0F909172039A
:104150008D3019F08A3009F017C1911113C0E09128
:104160007103EE2379F0F0E0E750FD4F108280916B
:10417000F902882339F0833409F4EBC044F48F3317
:1041800009F4F5C01092710310927203D3CF8E34EC
:1041900009F468C08435B1F70091FA020053043085
:1041A00088F78091FB028A3369F72CEF32E0DE0159
:1041B000119640E04D01F90181919F01882351F052
:1041C000453141F090EE980F9F3508F080E28D93D5
:1041D0004F5FF1CFF401E40FF11D1082039D8001C8
:1041E00011240F551D4F8091000190910101892BE1
:1041F00031F4B401C8010E942E22892B19F2B401B6
:10420000C8010E943722109201011092000183EB35
:1042100094E00E94AF1C87E094E10E947416B09273
:104220001005A0920F0591EA892E92E0992E10E0D8
:1042300000E0F092B604E092B504A401B80190E069
:1042400080E00E943A19005F1F4FF6E18F0E911C2B
:104250000034110571F783EB94E00E94851C8111F5
:10426000DACF90CF90E0E0E0A92FB0E0A650BD4FAC
:104270008C918823B1F0E930A0F420ED280F2B3089
:1042800030F023ED280F223010F0803241F4A1E00D
:10429000B0E0AC0FBD1FAE0FB11D8C93EF5F9F5F01
:1042A000E3CF81E090E08C0F9D1F8E0F911DFC01EC
:1042B00010828091000190910101019751F4BE019B
:1042C0006F5F7F4F8CE793E00E942E22892B09F4C9
:1042D00059CFBE016F5F7F4F8CE793E00E9437227A
:1042E000709201016092000183EE90E00E947416CA
:1042F000F092B604E092B5040E9497178201081B61
:10430000190B17FF02C00F5F1F4F1595079517FF79
:1043100002C010E000E083EB94E00E94AF1C83EE4B
:1043200090E00E947416D0921005C0920F05F09292
:10433000B604E092B5044CE753E06EE270E0C801C9
:104340000E943A1983EB94E00E94851C8111E7CF0B
:1043500019CF8091FA02811115CF809100019091BF
:104360000101029709F40ECF0E94C11C0BCF80916E
:10437000FA02811107CF85E890E00E946B1080E877
:1043800090E00E946B10FECE9111D4CEE0917103AB
:10439000E73748F491E09E0F90937103F0E0E75007
:1043A000FD4F8083C7CE1092710320927203C2CE5C
:1043B00080E090E0892B09F4B5CE0E94E80F8823B5
:1043C00009F4B0CE0E940000ADCEA1E21A2EAA1BC5
:1043D000BB1BFD010DC0AA1FBB1FEE1FFF1FA217B5
:1043E000B307E407F50720F0A21BB30BE40BF50BB2
:1043F000661F771F881F991F1A9469F7609570953B
:10440000809590959B01AC01BD01CF0108950E945C
:104410001822A59F900DB49F900DA49F800D911D13
:1044200011240895EE0FFF1F0590F491E02D0994DB
:10443000A29FB001B39FC001A39F700D811D1124E5
:10444000911DB29F700D811D1124911D0895DC01F5
:1044500001C06D9341505040E0F70895FB01DC012D
:104460008D91019080190110D9F3990B0895FB01EA
:10447000DC0101900D920020E1F70895F894FFCF40
:1044800002001815A015C019FF1815A115C819FFAD
:104490001815AE19FF1815AF19FF1815AE15D5165A
:1044A0008015A8163F15D316001540158D16141546
:1044B00020160015A115C815DA1612158116CF158C
:1044C000D916F115DB1640152E15A415A619FF00F7
:1044D00001140A6464323200127A00000428961033
:1044E00008000080004000000000001E107E0FAB9E
:1044F0000F8F10DC0FBA0FCE0F000000006E1141BD
:1045000011351C17113A112711181100000000E194
:104510001BB91B351C341C8A1315147A130D0A00A1
:10452000556C74696D61746520427574746F6E4268
:104530006F78004F4C454420636F6D70616E696FFA
:024540006E000B
:00000001FF
