:100000000C943E000C9466000C9466000C94660000
:100010000C9466000C9466000C9466000C946600C8
:100020000C9466000C9466000C9466000C946600B8
:100030000C9466000C9466000C9466000C946600A8
:100040000C943E070C9466000C94AE070C94880741
:100050000C9466000C9466000C9466000C94660088
:100060000C9466000C9466004B454E44004B3A726B
:10007000676253747269703D0000E00711241FBE6F
:10008000CFEFD8E0DEBFCDBF23E0A0E4B1E001C0F8
:100090001D92AA35B207E1F711E0A0E0B1E0E4E17A
:1000A000F7E102C005900D92A034B107D9F710E036
:1000B000CEE3D0E004C02197FE010E94720BCD3345
:1000C000D107C9F70E9420080C94880B0C940000FB
:1000D000E0E6F2E0DC012D913D914C9121933193CA
:1000E0004193B2E0E039FB07A9F708953FB7F894D0
:1000F00080915C0290915D02A0915E02B0915F02DE
:1001000026B5A89B05C02F3F19F00196A11DB11D72
:100110003FBFBA2FA92F982F8827BC01CD01620FAE
:10012000711D811D911D42E0660F771F881F991F69
:100130004A95D1F70895AF92BF92DF92EF92FF9266
:100140000F931F93CF93DF93D0904D038091500373
:1001500090915103A0915203B0915303892B8A2BA4
:100160008B2BD9F00E9476000091AC021091AD0269
:100170002091AE023091AF02601B710B820B930B8A
:100180000091500310915103209152033091530379
:100190006017710782079307C8F20E947600609388
:1001A000AC027093AD028093AE029093AF02E091E7
:1001B0005803F0915903309759F0409154035091EE
:1001C000550360915603709157038D2D0995D82ED4
:1001D000C091AA02D091AB028AE9E82E82E0F82E03
:1001E0008701209749F182E00A3A180729F18D85A5
:1001F0008823F1F0E881F981A284B3840680F78135
:10020000E02DCE010995BC01CE01F5010995F8015B
:100210009183808380914E0390914F0384369105A2
:1002200008F41C860C80DD81C02D0E5F1F4FD9CFD6
:10023000F80111821082EECFC091AA02D091AB02D8
:1002400008E010E02097A9F08D85882361F04E85A5
:100250005F856A817B81E881F9810280F381E02DED
:100260002D2DCE0109950C80DD81C02D0150110985
:1002700049F7C091AA02D091AB022097C9F0FAEADF
:10028000EF16F2E0FF06A1F08D85882351F0F7010B
:1002900060817181E881F9810484F585E02DCE01CA
:1002A00009950C80DD81C02DF2E0EF0EF11CE5CF49
:1002B00080919802909199029C012F5F3F4F30935B
:1002C00099022093980249970CF44AC08FB7F8948A
:1002D00020919002309191024091920250919302AC
:1002E0008FBF8091940290919502A0919602B09157
:1002F0009702281B390B4A0B5B0B21F421E030E0FD
:1003000040E050E0E0919802F091990288EE93E08D
:10031000E89FB001E99F700DF89F700D1124072E22
:10032000000C880B990B0E94100B30934F03209305
:100330004E0310929902109298022FB7F894809170
:10034000900290919102A0919202B09193022FBFDE
:100350008093940290939502A0939602B093970293
:10036000DF91CF911F910F91FF90EF90DF90BF90A1
:10037000AF90089580E991E00895AF92BF92CF9237
:10038000DF92EF92FF920F931F93CF93DF936C0155
:100390007B018B01040F151FEB015E01AE18BF0836
:1003A000C017D10759F06991D601ED91FC910190E8
:1003B000F081E02DC6010995892B79F7C501DF9100
:1003C000CF911F910F91FF90EF90DF90CF90BF9052
:1003D000AF900895FC01538D448D252F30E0842F7C
:1003E00090E0821B930B541710F0CF96089501975D
:1003F0000895FC01918D828D981761F0A28DAE0F4A
:10040000BF2FB11D5D968C91928D9F5F9F73928FD0
:1004100090E008958FEF9FEF0895FC01918D828DFC
:10042000981731F0828DE80FF11D858D90E00895C9
:100430008FEF9FEF0895FC01918D228D892F90E021
:10044000805C9F4F821B91098F739927089580EBE1
:1004500092E00E941B0221E0892B09F420E0822F08
:10046000089580E090E0892B29F00E9427028111F5
:100470000C9400000895FC01A48DA80FB92FB11DA4
:10048000A35ABF4F2C91848D90E001968F739927CA
:10049000848FA689B7892C93A089B1898C918370A8
:1004A00080648C93938D848D981306C00288F389A1
:1004B000E02D80818F7D80830895EF92FF920F93CE
:1004C0001F93CF93DF93EC0181E0888F9B8D8C8D00
:1004D00098131AC0E889F989808185FF15C09FB7F4
:1004E000F894EE89FF896083E889F98980818370B7
:1004F000806480839FBF81E090E0DF91CF911F9166
:100500000F91FF90EF900895F62E0B8D10E00F5F86
:100510001F4F0F731127E02E8C8D8E110CC00FB65C
:1005200007FCFACFE889F989808185FFF5CFCE01F4
:100530000E943B02F1CFEB8DEC0FFD2FF11DE35A32
:10054000FF4FF0829FB7F8940B8FEA89FB89808177
:100550008062CFCF0F931F93CF93DF938C01D0E0B6
:10056000C0E0F801EC0FFD1F6491662341F080EBC1
:1005700092E00E945D02892B11F02196F2CFCE010C
:10058000DF91CF911F910F910895CF93DF93EC01ED
:10059000888D8823B9F0AA89BB89E889F9898C916B
:1005A00085FD03C0808186FD0DC00FB607FCF7CF27
:1005B0008C9185FFF2CF808185FFEDCFCE010E9427
:1005C0003B02E9CFDF91CF910895AF92BF92CF92D6
:1005D000DF92EF92FF920F931F93CF93DF9300D0A0
:1005E0001F92CDB7DEB75A0119821A821B82882367
:1005F00061F18B01E1E0F0E0E82EF12CD8012D91C2
:100600008D012223F1F06F01B1E0CB1AD108D501A1
:10061000AC0DBD1D4C914423A1F030E02F5F3F4F46
:10062000D7010E94510BA42FB0E011969B01AC01A1
:100630000E94670BA1E0B0E0AC0FBD1FAC0DBD1D6B
:100640008C933196E430F105C9F669817A818B810A
:100650000F900F900F90DF91CF911F910F91FF900E
:10066000EF90DF90CF90BF90AF90089581E090E041
:1006700008950F931F93CF93DF93209145012F5F30
:10068000322F37703093450120FF2BC020E831FD19
:100690002064347009F02062205FFC01EC01239695
:1006A00000E011E06785662329F070E0C8010E9430
:1006B000FC0A6F5F6187822F869F080E80E0811D94
:1006C0001124811110C01682662311F061506187D8
:1006D0003196EC17FD0731F7DF91CF911F910F9104
:1006E000089520E0D4CF81508683EECF4F925F9261
:1006F0007F928F929F92AF92BF92CF92DF92EF92B2
:10070000FF920F931F93CF93DF932C01EB010E9475
:100710007600F20126893789621B730B6A307105F6
:10072000B0F3F8948A819B81181619060CF0CBC19E
:10073000E881F9810BB100647BB17F7B7BB9BA841E
:100740008F812B2D281B822F2F834C85042E000C8C
:10075000550BAA81BB81E888DF84C988E394D394D0
:10076000C3949E81388599848B84118120E0F32E77
:10077000622F322F3181112788943111380F08F4FC
:100780003FEF81958894E0FC130F17958894E1FC66
:10079000130F17958894E2FC130F17958894E3FCC8
:1007A000130F17958894E4FC130F17958894E5FCB4
:1007B000130F17958894E6FC130F17958894E7FCA0
:1007C000130F17958894232FE110212F8B0D122FD3
:1007D000002C0BB900C017FF7BB930812227889409
:1007E00000C000C0002C7BB93111390F00C0002CB3
:1007F0000BB900C016FF7BB908F43FEF91958894C0
:1008000000C000C0002C7BB9D0FC230F00C0002C1E
:100810000BB900C015FF7BB927958894D1FC230F35
:1008200000C000C0002C7BB92795889400C0002C24
:100830000BB900C014FF7BB9D2FC230F2795889415
:1008400000C000C0002C7BB9D3FC230F00C0002CDB
:100850000BB900C013FF7BB927958894D4FC230FF4
:1008600000C000C0002C7BB92795889400C0002CE4
:100870000BB900C012FF7BB9D5FC230F27958894D4
:1008800000C000C0002C7BB9D6FC230F00C0002C98
:100890000BB900C011FF7BB927958894D7FC230FB3
:1008A00000C000C0002C7BB92795889400C0002CA4
:1008B0000BB900C010FF7BB9132FD110122F990D67
:1008C00000C000C0002C7BB900C000C0002C0BB9D8
:1008D00000C017FF7BB932812227889400C000C076
:1008E000002C7BB931113F0D00C0002C0BB900C0AA
:1008F00016FF7BB908F43FEFE40FF51F00C000C0FE
:10090000002C7BB9C0FC230F00C0002C0BB900C029
:1009100015FF7BB927958894C1FC230F00C000C048
:10092000002C7BB92795889400C0002C0BB900C01F
:1009300014FF7BB9C2FC230F2795889400C000C028
:10094000002C7BB9C3FC230F00C0002C0BB900C0E6
:1009500013FF7BB927958894C4FC230F00C000C007
:10096000002C7BB92795889400C0002C0BB900C0DF
:1009700012FF7BB9C5FC230F2795889400C000C0E7
:10098000002C7BB9C6FC230F00C0002C0BB900C0A3
:1009900011FF7BB927958894C7FC230F00C000C0C6
:1009A000002C7BB92795889400C0002C0BB900C09F
:1009B00010FF7BB9132FC110122FF19400C000C09B
:1009C000002C7BB9F80C00C000C00BB900C017FFA9
:1009D0007BB931812227889400C000C0002C7BB9EC
:1009E0003111380F00C0002C0BB900C016FF7BB9C5
:1009F00008F43FEF8195889400C000C0002C7BB9BB
:100A0000E0FC230F00C0002C0BB900C015FF7BB920
:100A100027958894E1FC230F00C000C0002C7BB90F
:100A20002795889400C0002C0BB900C014FF7BB937
:100A3000E2FC230F2795889400C000C0002C7BB9EE
:100A4000E3FC230F00C0002C0BB900C013FF7BB9DF
:100A500027958894E4FC230F00C000C0002C7BB9CC
:100A60002795889400C0002C0BB900C012FF7BB9F9
:100A7000E5FC230F2795889400C000C0002C7BB9AB
:100A8000E6FC230F00C0002C0BB900C011FF7BB99E
:100A900027958894E7FC230F00C000C0002C7BB989
:100AA0002795889400C0002C0BB900C010FF7BB9BB
:100AB000132FE110122F8B0D00C000C0002C7BB94A
:100AC000119709F086CEEA81FB812EE130E0DF014B
:100AD0000E94600B30E020E0A901AAE9EA9F0E0E17
:100AE000411DFA9F400D511D11244F0F511DDC0176
:100AF000CB01840F951FA11DB11D893E43E09407D2
:100B0000A105B10508F434C0885E9340A109B1097C
:100B100042E0B695A795979587954A95D1F747E016
:100B2000849F080E211D949F200D311D1124290F33
:100B3000311D6091440170E0860F971F820F931F53
:100B400040919002509191026091920270919302B3
:100B5000292F3327420F531F611D711D40939002AF
:100B60005093910260939202709393028093440198
:100B700078940E947600F201778B668BDF91CF919B
:100B80001F910F91FF90EF90DF90CF90BF90AF90AB
:100B90009F908F907F905F904F900895569A089500
:100BA0006F927F928F92CF92DF92EF92FF920F938C
:100BB0001F93CF93DF93CDB7DEB762970FB6F8944C
:100BC000DEBF0FBECDBF8C016B017A01822FA80161
:100BD000475F5F4FB8016A5F7F4F0E94E5023B01AC
:100BE000882ED8011C962C91C701F7FE04C08827D7
:100BF00099278E199F09DA82C9829C838B839E83F1
:100C00008D83688A798A8A8A213049F5CE010196D6
:100C10000E94390383E08D871F861E86F7FE02C07F
:100C20008DEF8D87D801ED91FC910088F189E02D41
:100C3000BE016F5F7F4FC801099562960FB6F894A9
:100C4000DEBF0FBECDBFDF91CF911F910F91FF90FF
:100C5000EF90DF90CF908F907F906F9008951C86DB
:100C60001B861A86198618861F82D4CFCF92DF92F0
:100C7000EF92FF920F931F93CF93DF93CDB7DEB721
:100C800062970FB6F894DEBF0FBECDBF8C016B012B
:100C90007A01822FA801475F5F4FB8016A5F7F4FDB
:100CA0000E94E5029B01482FD8011C968C91DA82A4
:100CB000C982FC82EB82FE82ED82288B398B4A8BC3
:100CC000813009F5CE0101960E9439031D861F86E9
:100CD0001E86D801ED91FC910088F189E02DBE01BE
:100CE0006F5F7F4FC801099562960FB6F894DEBF1B
:100CF0000FBECDBFDF91CF911F910F91FF90EF906D
:100D0000DF90CF9008951C861B861A861986188658
:100D10001F82DCCF089590ED980F9A3010F4892F40
:100D200008959FE9980F963010F4875508959FEB2A
:100D3000980F963010F4875308958FEF0895EF922F
:100D4000FF920F931F93CF93DF938C017B01FC01E4
:100D500080810E948B06C82FF80181810E948B063A
:100D6000C7FD11C087FD0FC0F0E1CF02E0011124E3
:100D70008C2BF701808381E0DF91CF911F910F9140
:100D8000FF90EF90089580E0F7CF90E080E0089525
:100D9000FC0164870895FC01848590E00895FC01BE
:100DA0008685978508958F929F92AF92BF920F93F9
:100DB0001F93CF93DF93CDB7DEB7A1970FB6F8940B
:100DC000DEBF0FBECDBF19A2423008F44AE08E014B
:100DD0000F5D1F4F842E912CB12CA12CA5019401E5
:100DE0000E94100BE62FB901CA01EA3044F5E05D1C
:100DF000D801EE938D01232B242B252B79F790E03E
:100E000080E0109769F0FD0101900020E9F731972B
:100E1000AF014A1B5B0BBD0180EB92E00E94BD015C
:100E2000A1960FB6F894DEBF0FBECDBFDF91CF9174
:100E30001F910F91BF90AF909F908F900895E95CA4
:100E4000D7CF42E050E06CE371E080EB92E00C948D
:100E5000BD010E94780B8DE690E00E94AA024AE054
:100E600060E170E080E090E00E94D3060E942107DC
:100E700088E690E00E94AA020C9421071F920F922C
:100E80000FB60F9211242F933F938F939F93AF939D
:100E9000BF938091900290919102A0919202B091A3
:100EA000930230915B0223E0230F2D3758F5019612
:100EB000A11DB11D20935B0280939002909391023B
:100EC000A0939202B093930280915C0290915D0294
:100ED000A0915E02B0915F020196A11DB11D8093A9
:100EE0005C0290935D02A0935E02B0935F02BF919B
:100EF000AF919F918F913F912F910F900FBE0F90C7
:100F00001F90189526E8230F0296A11DB11DD2CF80
:100F10001F920F920FB60F9211242F933F934F936E
:100F20005F936F937F938F939F93AF93BF93EF9351
:100F3000FF9380EB92E00E943B02FF91EF91BF9103
:100F4000AF919F918F917F916F915F914F913F9161
:100F50002F910F900FBE0F901F9018951F920F9218
:100F60000FB60F9211242F938F939F93EF93FF93BC
:100F7000E091C002F091C1028081E091C602F0913F
:100F8000C70282FD1BC090818091C9028F5F8F7361
:100F90002091CA02821741F0E091C902F0E0E055C9
:100FA000FD4F958F8093C902FF91EF919F918F9193
:100FB0002F910F900FBE0F901F9018958081F4CF46
:100FC000E0EBF2E01382128288EE93E0A0E0B0E062
:100FD00084839583A683B7838EE291E09183808397
:100FE00085EC90E09587848784EC90E097878687EE
:100FF00080EC90E0918B808B81EC90E0938B828BE6
:1010000082EC90E0958B848B86EC90E0978B868BBE
:10101000118E128E138E148EEDE4F3E08FEF808329
:1010200012821182148613868FEF9FEFDC01878373
:101030009087A187B2871382148215821682089541
:10104000CF93DF9300D000D01F92CDB7DEB7789456
:1010500084B5826084BD84B5816084BD85B58260BD
:1010600085BD85B5816085BD80916E00816080936E
:101070006E001092810080918100826080938100D7
:1010800080918100816080938100809180008160E7
:10109000809380008091B10084608093B100809142
:1010A000B00081608093B00080917A00846080936A
:1010B0007A0080917A00826080937A0080917A0031
:1010C000816080937A0080917A00806880937A00B2
:1010D0001092C100E091C002F091C10282E08083D1
:1010E000E091BC02F091BD021082E091BE02F0914D
:1010F000BF0280E180831092C802E091C402F091A7
:10110000C50286E08083E091C202F091C302808133
:1011100080618083E091C202F091C3028081886087
:101120008083E091C202F091C30280818068808355
:10113000E091C202F091C30280818F7D8083809113
:101140006001811157C010924B0110924A018FEF3C
:1011500080934E0180934F01809350018093510101
:10116000809352018093530181E0809354018093D6
:101170005501109257011092560180E797E1909324
:1011800059018093580183E090E090935B01809334
:101190005A0110925D0110925C0110924D01109263
:1011A0004C018091AA029091AB02892B31F488E422
:1011B00091E09093AB028093AA02E0914601F091F6
:1011C0004701309721F088E491E09583848388E497
:1011D00091E0909347018093460110925F01109235
:1011E0005E0188E191E0909349018093480181E09C
:1011F00080936001569A80E692E090934B01809331
:101200004A0180E190E090935701809356018091CC
:10121000500390915103A0915203B0915303843C29
:1012200029E09207A105B10520F484EC99E0A0E043
:10123000B0E08093500390935103A0935203B09376
:10124000530380EA80934D0300E612E0B0E87B2E62
:10125000F8011082718212820E949B000E94760027
:101260004B015C01AFE0CA2ED12CE12CF12C0E9485
:101270007600681979098A099B09683E73408105DF
:101280009105A8F3F1E0CF1AD108E108F10828EEA2
:10129000820E23E0921EA11CB11CC114D104E104F2
:1012A000F10429F70D5F1F4F82E00039180781F61E
:1012B00019821A821B82CE0101960E9468000E9448
:1012C0009B000E942B07E4E64E2E512C612C712CC2
:1012D000F6E02F2E312CBB24BA94AA24A39480EBE1
:1012E00092E00E941B02892B09F43FC180EB92E03F
:1012F0000E94F90190915A028A3019F08D3009F05C
:101300001CC19111B7C0209158023091590221158A
:10131000310509F4AFC0F901E859FE4F10829091F0
:1013200068019C3409F46CC064F4923409F4E3C09D
:10133000933409F4FEC09F3309F09CC00E942B0730
:1013400099C0923509F49DC0993509F4E3C09035F0
:1013500009F090C0C9010197B1010E94E80A4B0150
:101360006131710518F070E1872E912C58E6C52E79
:1013700051E0D52E60E6E62E62E0F62E10E000E0A9
:101380000815190559F1BE016B5F7F4FC601019623
:101390000E949F06882311F1BE016C5F7F4FC6013A
:1013A00003960E949F068823C9F0BE016F5F7F4F9E
:1013B000C60105960E949F06E6E0CE0ED11C88234A
:1013C00069F089819C812D81F7012083918382833B
:1013D0000F5F1F4FF3E0EF0EF11CD2CFF801EE0FBD
:1013E000FF1FE00FF11FE05AFD4F0031110508F01B
:1013F0003FC01082118212820F5F1F4F3396F5CFCC
:101400006AE370E089E691E00E947D0B8C01892BF4
:1014100089F189E691E00E94C20A7C01409750F56B
:10142000BE016B5F7F4FC80101960E949F06882313
:1014300009F1BE016C5F7F4FC80103960E949F06B1
:101440008823C1F0BE016F5F7F4FC80105960E94DF
:101450009F06882379F089819C81F701EE0FFF1F99
:10146000EE0DFF1DE05AFD4F2D8120839183828375
:101470000E949B00109259021092580210925A0238
:101480002ECF89E691E00E94C20A8536910514F0BC
:1014900084E690E0BC0197FF02C070E060E0072E98
:1014A000000C880B990B24E0660F771F881F991F8B
:1014B0002A95D1F7A30192010E94320BE0E6F2E0F7
:1014C00090E080E08217930798F48530910550F4FE
:1014D000108240E841831282019633968031910553
:1014E00089F7C6CFB0828A30910518F4B182F3CF64
:1014F00010821182F0CF80916901813349F48FEF1E
:1015000019821A828B83CE0101960E946800B0CFA7
:1015100080E0F6CF89E691E00E94C20A8F3F9105F4
:1015200019F014F08FEF90E097FD80E080934D0369
:101530009FCF19821A821B82E6CF9111D0CE2091C3
:101540005802309159022F3E310560F4A9014F5FD6
:101550005F4F509359024093580228593E4FF9016A
:101560008083BDCEA0925A02BACE80E090E0892B53
:1015700009F4B1CE0E942702882309F4ACCE0E9460
:101580000000A9CEFC0188279927E89421912032F8
:10159000E9F3293010F02E30C8F32B3241F02D3210
:1015A00039F4689404C00E94E00A820F911D2191D1
:1015B00020532A30C0F31EF4909581959F4F0895D3
:1015C0007AE0979F902D879F802D910D112408958B
:1015D000AA1BBB1B51E107C0AA1FBB1FA617B70759
:1015E00010F0A61BB70B881F991F5A95A9F7809575
:1015F0009095BC01CD01089597FB072E16F4009439
:1016000007D077FD09D00E94E80A07FC05D03EF418
:10161000909581959F4F0895709561957F4F08959E
:10162000A1E21A2EAA1BBB1BFD010DC0AA1FBB1FE6
:10163000EE1FFF1FA217B307E407F50720F0A21B58
:10164000B30BE40BF50B661F771F881F991F1A94C5
:1016500069F760957095809590959B01AC01BD01EF
:10166000CF010895052E97FB1EF400940E94490BAC
:1016700057FD07D00E94100B07FC03D04EF40C94CA
:10168000490B50954095309521953F4F4F4F5F4FF7
:10169000089590958095709561957F4F8F4F9F4FDE
:1016A0000895A29FB001B39FC001A39F700D811D3B
:1016B0001124911DB29F700D811D1124911D08955B
:1016C0000E94510BB7FF0895821B930B08950E944F
:1016D000510BA59F900DB49F900DA49F800D911D5F
:1016E00011240895EE0FFF1F0590F491E02D099449
:1016F00081E090E0F8940C94880BFC0181918617AE
:1017000021F08823D9F7992708953197CF010895BB
:04171000F894FFCF7B
:1017140000000000290729072907CF063603CB0656
:10172400C806C506000000003606D005CE05CF0663
:101734003603CB06C806BA017603000000005D023A
:10174400BD01EA01C5021B02F9010D020D0A0000E8
:00000001FF
