:100000000C9497000C94BF000C94BF000C94BF009C
:100010000C94BF000C94BF000C94BF000C94BF0064
:100020000C94BF000C94BF000C9420090C948F0911
:100030000C94BF000C94BF000C94BF000C94BF0044
:100040000C94BF000C94BF000C94BF000C94BF0034
:100050000C94BF000C94BF000C94BF000C94D60805
:100060000C94BF000C94BF000C94BF000C94BF0014
:100070000C94BF000C94BF000C94BF000C94BF0004
:100080000C94BF000C94BF000C94BF000C94BF00F4
:100090000C94BF000C94BF000C94BF000C94BF00E4
:1000A0000C94BF000C94BF000C94BF004B454E4411
:1000B000004B3A72676253747269703D00080B001E
:1000C00002020200000904000001020200000524EF
:1000D0000010010524010101042402060524060084
:1000E000010705810310004009040100020A000015
:1000F00000070502024000000705830240000004DB
:1001000003090412010002EF02014041233780007D
:100110000101020301556E6B6E6F776E00417264D0
:1001200075696E6F204D6963726F0000C10B1124F9
:100130001FBECFEFDAE0DEBFCDBF23E0A2E5B1E026
:1001400001C01D92A534B207E1F711E0A0E0B1E0D3
:10015000EAEAFEE102C005900D92A235B107D9F797
:1001600010E0C7E9D0E004C02197FE010E943D0FD6
:10017000C639D107C9F70E94E80B0C94530F0C94B1
:100180000000E8E8F2E0DC012D913D914C912193D3
:1001900031934193B2E0E83BFB07A9F70895FC01D6
:1001A00080918702882311F13FB7F89482E0809311
:1001B000E9002091F200822F90E01816190614F43D
:1001C00081E090E0882339F0289A44E64093860243
:1001D0004091F1004083222339F02091F200211157
:1001E00003C02BE62093E8003FBF08958FEF9FEFF9
:1001F00008952FB7F89483E08093E9009091E80088
:10020000892F807295FF04C09091F20080E4891BD1
:100210002FBF089580917E0281110DC082E08093EE
:100220007A0284E080937B0210927D0210927C021D
:1002300081E080937E028AE792E008953FB7F894C8
:100240008091760290917702A0917802B091790224
:1002500026B5A89B05C02F3F19F00196A11DB11D21
:100260003FBFBA2FA92F982F8827BC01CD01620F5D
:10027000711D811D911D42E0660F771F881F991F18
:100280004A95D1F70895AF92BF92DF92EF92FF9215
:100290000F931F93CF93DF93D090380380913B034C
:1002A00090913C03A0913D03B0913E03892B8A2B92
:1002B0008B2BD9F00E941E010091E4021091E502FF
:1002C0002091E6023091E702601B710B820B930BC9
:1002D00000913B0310913C0320913D0330913E037C
:1002E0006017710782079307C8F20E941E0160938E
:1002F000E4027093E5028093E6029093E702E091B6
:100300004303F0914403309759F040913F035091DB
:10031000400360914103709142038D2D0995D82EC1
:10032000C091E202D091E30282ECE82E82E0F82E46
:100330008701209749F182E0023E180729F18D8557
:100340008823F1F0E881F981A284B3840680F781E3
:10035000E02DCE010995BC01CE01F5010995F8010A
:10036000918380838091390390913A03843691057B
:1003700008F41C860C80DD81C02D0E5F1F4FD9CF85
:10038000F80111821082EECFC091E202D091E30217
:1003900000E110E02097A9F08D85882361F04E855B
:1003A0005F856A817B81E881F9810280F381E02D9C
:1003B0002D2DCE0109950C80DD81C02D0150110934
:1003C00049F7C091E202D091E3022097C9F0F2EE22
:1003D000EF16F2E0FF06A1F08D85882351F0F701BA
:1003E00060817181E881F9810484F585E02DCE0179
:1003F00009950C80DD81C02DF2E0EF0EF11CE5CFF8
:100400008091C0029091C1029C012F5F3F4F3093B9
:10041000C1022093C00249970CF44AC08FB7F894E8
:100420002091B8023091B9024091BA025091BB02BA
:100430008FBF8091BC029091BD02A091BE02B0918D
:10044000BF02281B390B4A0B5B0B21F421E030E083
:1004500040E050E0E091C002F091C10288EE93E0EC
:10046000E89FB001E99F700DF89F700D1124072ED1
:10047000000C880B990B0E94DB0E30933A032093FB
:1004800039031092C1021092C0022FB7F8948091E4
:10049000B8029091B902A091BA02B091BB022FBFED
:1004A0008093BC029093BD02A093BE02B093BF02A2
:1004B000DF91CF911F910F91FF90EF90DF90BF9050
:1004C000AF9008958F929F92AF92BF92CF92DF929A
:1004D000EF92FF924B015C010E941E016B017C01B7
:1004E0000E941E016C197D098E099F09683E7340A8
:1004F00081059105A8F321E0821A9108A108B108AD
:1005000088EEC80E83E0D81EE11CF11C8114910412
:10051000A104B10429F7FF90EF90DF90CF90BF9036
:10052000AF909F908F90089580E991E00895409159
:100530005A0150915B0120915801309159014217A5
:100540005307B4F49091E8009570E1F39091E800BE
:1005500092FD19C08093F10080915A0190915B0146
:1005600001968F739927892B19F48EEF8093E800F9
:1005700080915A0190915B01019690935B01809369
:100580005A0181E0089580E00895EF92FF920F9361
:100590001F93CF93DF93F82E192FE62E042F81E0BF
:1005A000860F880F0E94970283E00E949702CF2D4A
:1005B000D12FEC0EFD2EF11CCE15DF05B9F007FF93
:1005C00013C0FE0184910E949702182F80E00E94C0
:1005D0009702812321968111EFCFDF91CF911F9157
:1005E0000F91FF90EF9008958881EDCF81E0F5CFD6
:1005F000DF92EF92FF920F931F93CF93DF93D82E4A
:100600008A01EB017B01E40EF51ECE15DF0559F0E2
:10061000D7FE12C0FE0184910E949702219681119B
:10062000F4CF0FEF1FEFC801DF91CF911F910F9112
:10063000FF90EF90DF9008958881EECF0F931F9386
:10064000CF93DF931F92CDB7DEB782E0898342E478
:1006500050E06DEB70E080E80E94F8020E940A0111
:10066000DC0112960D911C910115110589F0D8013C
:10067000ED91FC910280F381E02DBE016F5F7F4F11
:10068000C801099597FD04C0F80100851185ECCFDC
:1006900089810F90DF91CF911F910F910895615043
:1006A00030F02091F100FC0120830196F8CF289AC8
:1006B00084E68093860208958F929F92AF92BF92B4
:1006C000CF92DF92EF92FF920F931F93CF93DF931E
:1006D0006C017B018A0180910B01882309F45CC0C5
:1006E00080918702882309F457C080915E0180FFC2
:1006F00005C08091E00082608093E000E801B12CA9
:100700008AEFA82E93E0892E2AE3922E209711F4E7
:10071000BB20D9F10E94F90081110AC0AA94AA2035
:10072000D9F161E070E080E090E00E946202EECFDB
:100730008C171D0611F00CF08C2F9FB7F894809247
:10074000E9002091E80025FD02C09FBFDFCF282FE0
:1007500030E0C21BD30BF701815020F04191409350
:10076000F100FACFE20EF31EBB2021F09092E800D8
:10077000B12CEBCF8091E80085FDE7CF9092E800A7
:10078000BB24B394209709F3F3CF5D9A84E680935A
:100790005D01101611063CF081E090E0F6019383B4
:1007A000828310E000E0C801DF91CF911F910F918B
:1007B000FF90EF90DF90CF90BF90AF909F908F9081
:1007C0000895CF93DF931F92CDB7DEB76983DC0125
:1007D000ED91FC910280F381E02D41E050E0BE01FB
:1007E0006F5F7F4F09950F90DF91CF9108950F9321
:1007F0001F93CF93DF938C01D0E0C0E0F801EC0FA2
:10080000FD1F6491662341F088EE92E00E94E103AF
:10081000892B11F02196F2CFCE01DF91CF911F915C
:100820000F91089583E08093E9008091F20088237E
:1008300019F08AE38093E80008950E94F90090E09F
:100840000895CF93DF931F92CDB7DEB7FC01848567
:10085000958597FD08C02FEF3FEF358724870F90D0
:10086000DF91CF910895CE0101960E94CF000197AC
:1008700019F4898190E0F3CF8FEF9FEFF0CF0F93C2
:100880001F93CF93DF931F92CDB7DEB78C01FC018E
:100890008485958597FF0BC0CE0101960E94CF00FD
:1008A000019771F4898190E0F80195878487F801B8
:1008B000848595850F90DF91CF911F910F910895B9
:1008C0008FEF9FEFF1CFFC018485958597FD0BC0DD
:1008D0009FB7F89482E08093E9008091F2009FBF77
:1008E00090E0019608959FB7F89482E08093E90024
:1008F0008091F2009FBF90E00895AF92BF92CF9297
:10090000DF92EF92FF920F931F93CF93DF9300D06C
:100910001F92CDB7DEB75A0119821A821B82882333
:1009200061F18B01E1E0F0E0E82EF12CD8012D918E
:100930008D012223F1F06F01B1E0CB1AD108D5016E
:10094000AC0DBD1D4C914423A1F030E02F5F3F4F13
:10095000D7010E941C0FA42FB0E011969B01AC019F
:100960000E94320FA1E0B0E0AC0FBD1FAC0DBD1D69
:100970008C933196E430F105C9F669817A818B81D7
:100980000F900F900F90DF91CF911F910F91FF90DB
:10099000EF90DF90CF90BF90AF90089581E090E00E
:1009A00008950F931F93CF93DF93209157012F5FEB
:1009B000322F37703093570120FF2BC020E831FDD4
:1009C0002064347009F02062205FFC01EC01239662
:1009D00000E011E06785662329F070E0C8010E94FD
:1009E000C70E6F5F6187822F869F080E80E0811D92
:1009F0001124811110C01682662311F061506187A5
:100A00003196EC17FD0731F7DF91CF911F910F91D0
:100A1000089520E0D4CF81508683EECF4F925F922D
:100A20007F928F929F92AF92BF92CF92DF92EF927E
:100A3000FF920F931F93CF93DF932C01EB010E9442
:100A40001E01F20126893789621B730B6A3071051A
:100A5000B0F3F8948A819B81181619060CF0CBC16B
:100A6000E881F9810BB100687BB17F777BB9BA84EB
:100A70008F812B2D281B822F2F834C85042E000C59
:100A8000550BAA81BB81E888DF84C988E394D3949D
:100A9000C3949E81388599848B84118120E0F32E44
:100AA000622F322F3181112788943111380F08F4C9
:100AB0003FEF81958894E0FC130F17958894E1FC33
:100AC000130F17958894E2FC130F17958894E3FC95
:100AD000130F17958894E4FC130F17958894E5FC81
:100AE000130F17958894E6FC130F17958894E7FC6D
:100AF000130F17958894232FE110212F8B0D122FA0
:100B0000002C0BB900C017FF7BB9308122278894D5
:100B100000C000C0002C7BB93111390F00C0002C7F
:100B20000BB900C016FF7BB908F43FEF919588948C
:100B300000C000C0002C7BB9D0FC230F00C0002CEB
:100B40000BB900C015FF7BB927958894D1FC230F02
:100B500000C000C0002C7BB92795889400C0002CF1
:100B60000BB900C014FF7BB9D2FC230F27958894E2
:100B700000C000C0002C7BB9D3FC230F00C0002CA8
:100B80000BB900C013FF7BB927958894D4FC230FC1
:100B900000C000C0002C7BB92795889400C0002CB1
:100BA0000BB900C012FF7BB9D5FC230F27958894A1
:100BB00000C000C0002C7BB9D6FC230F00C0002C65
:100BC0000BB900C011FF7BB927958894D7FC230F80
:100BD00000C000C0002C7BB92795889400C0002C71
:100BE0000BB900C010FF7BB9132FD110122F990D34
:100BF00000C000C0002C7BB900C000C0002C0BB9A5
:100C000000C017FF7BB932812227889400C000C042
:100C1000002C7BB931113F0D00C0002C0BB900C076
:100C200016FF7BB908F43FEFE40FF51F00C000C0CA
:100C3000002C7BB9C0FC230F00C0002C0BB900C0F6
:100C400015FF7BB927958894C1FC230F00C000C015
:100C5000002C7BB92795889400C0002C0BB900C0EC
:100C600014FF7BB9C2FC230F2795889400C000C0F5
:100C7000002C7BB9C3FC230F00C0002C0BB900C0B3
:100C800013FF7BB927958894C4FC230F00C000C0D4
:100C9000002C7BB92795889400C0002C0BB900C0AC
:100CA00012FF7BB9C5FC230F2795889400C000C0B4
:100CB000002C7BB9C6FC230F00C0002C0BB900C070
:100CC00011FF7BB927958894C7FC230F00C000C093
:100CD000002C7BB92795889400C0002C0BB900C06C
:100CE00010FF7BB9132FC110122FF19400C000C068
:100CF000002C7BB9F80C00C000C00BB900C017FF76
:100D00007BB931812227889400C000C0002C7BB9B8
:100D10003111380F00C0002C0BB900C016FF7BB991
:100D200008F43FEF8195889400C000C0002C7BB987
:100D3000E0FC230F00C0002C0BB900C015FF7BB9ED
:100D400027958894E1FC230F00C000C0002C7BB9DC
:100D50002795889400C0002C0BB900C014FF7BB904
:100D6000E2FC230F2795889400C000C0002C7BB9BB
:100D7000E3FC230F00C0002C0BB900C013FF7BB9AC
:100D800027958894E4FC230F00C000C0002C7BB999
:100D90002795889400C0002C0BB900C012FF7BB9C6
:100DA000E5FC230F2795889400C000C0002C7BB978
:100DB000E6FC230F00C0002C0BB900C011FF7BB96B
:100DC00027958894E7FC230F00C000C0002C7BB956
:100DD0002795889400C0002C0BB900C010FF7BB988
:100DE000132FE110122F8B0D00C000C0002C7BB917
:100DF000119709F086CEEA81FB812EE130E0DF0118
:100E00000E942B0F30E020E0A901AAE9EA9F0E0E14
:100E1000411DFA9F400D511D11244F0F511DDC0142
:100E2000CB01840F951FA11DB11D893E43E094079E
:100E3000A105B10508F434C0885E9340A109B10949
:100E400042E0B695A795979587954A95D1F747E0E3
:100E5000849F080E211D949F200D311D1124290F00
:100E6000311D6091560170E0860F971F820F931F0E
:100E70004091B8025091B9026091BA027091BB02E0
:100E8000292F3327420F531F611D711D4093B80254
:100E90005093B9026093BA027093BB0280935601DB
:100EA00078940E941E01F201778B668BDF91CF91BF
:100EB0001F910F91FF90EF90DF90CF90BF90AF9078
:100EC0009F908F907F905F904F900895579A0895CC
:100ED0006F927F928F92CF92DF92EF92FF920F9359
:100EE0001F93CF93DF93CDB7DEB762970FB6F89419
:100EF000DEBF0FBECDBF8C016B017A01822FA8012E
:100F0000475F5F4FB8016A5F7F4F0E947D043B01DE
:100F1000882ED8011C962C91C701F7FE04C08827A3
:100F200099278E199F09DA82C9829C838B839E83BD
:100F30008D83688A798A8A8A213049F5CE010196A3
:100F40000E94D10483E08D871F861E86F7FE02C0B3
:100F50008DEF8D87D801ED91FC910088F189E02D0E
:100F6000BE016F5F7F4FC801099562960FB6F89476
:100F7000DEBF0FBECDBFDF91CF911F910F91FF90CC
:100F8000EF90DF90CF908F907F906F9008951C86A8
:100F90001B861A86198618861F82D4CFCF92DF92BD
:100FA000EF92FF920F931F93CF93DF93CDB7DEB7EE
:100FB00062970FB6F894DEBF0FBECDBF8C016B01F8
:100FC0007A01822FA801475F5F4FB8016A5F7F4FA8
:100FD0000E947D049B01482FD8011C968C91DA82D7
:100FE000C982FC82EB82FE82ED82288B398B4A8B90
:100FF000813009F5CE0101960E94D1041D861F861D
:101000001E86D801ED91FC910088F189E02DBE018A
:101010006F5F7F4FC801099562960FB6F894DEBFE7
:101020000FBECDBFDF91CF911F910F91FF90EF9039
:10103000DF90CF9008951C861B861A861986188625
:101040001F82DCCF089590ED980F9A3010F4892F0D
:1010500008959FE9980F963010F4875508959FEBF7
:10106000980F963010F4875308958FEF0895EF92FC
:10107000FF920F931F93CF93DF938C017B01FC01B1
:1010800080810E942308C82FF80181810E942308D3
:10109000C7FD11C087FD0FC0F0E1CF02E0011124B0
:1010A0008C2BF701808381E0DF91CF911F910F910D
:1010B000FF90EF90089580E0F7CF90E080E00895F2
:1010C000FC0164870895FC01848590E00895FC018B
:1010D0008685978508958F929F92AF92BF920F93C6
:1010E0001F93CF93DF93CDB7DEB7A1970FB6F894D8
:1010F000DEBF0FBECDBF19A2423008F44AE08E0118
:101100000F5D1F4F842E912CB12CA12CA5019401B1
:101110000E94DB0EE62FB901CA01EA3044F5E05D1A
:10112000D801EE938D01232B242B252B79F790E00A
:1011300080E0109769F0FD0101900020E9F73197F8
:10114000AF014A1B5B0BBD0188EE92E00E945C037D
:10115000A1960FB6F894DEBF0FBECDBFDF91CF9141
:101160001F910F91BF90AF909F908F900895E95C71
:10117000D7CF42E050E06FE471E088EE92E00C944B
:101180005C030E94430F81EB90E00E94F7034AE06A
:1011900060E170E080E090E00E946B080E94B90876
:1011A0008CEA90E00E94F7030C94B9081F920F920A
:1011B0000FB60F9211242F933F938F939F93AF936A
:1011C000BF938091B8029091B902A091BA02B091F8
:1011D000BB023091750223E0230F2D3758F501969D
:1011E000A11DB11D209375028093B8029093B9029E
:1011F000A093BA02B093BB028091760290917702DD
:10120000A0917802B09179020196A11DB11D809341
:10121000760290937702A0937802B0937902BF91FF
:10122000AF919F918F913F912F910F900FBE0F9093
:101230001F90189526E8230F0296A11DB11DD2CF4D
:101240001F920F920FB60F9211248F939F9380914C
:10125000E1009091E100937F9093E10083FF0FC044
:101260001092E90091E09093EB001092EC0092E371
:101270009093ED001092870298E09093F00082FF27
:1012800022C093E09093E9009091F200992319F025
:101290009AE39093E80090915D01992341F0909139
:1012A0005D01915090935D01911101C05D98909105
:1012B0008602992341F09091860291509093860284
:1012C000911101C0289884FF18C08091E2008E7EA1
:1012D00081608093E2008091E1008F7E8093E10045
:1012E00080915E018E7E806180935E019F918F91DF
:1012F0000F900FBE0F901F90189580FFF7CF809131
:10130000E2008E7E80618093E2008091E1008E7E1B
:101310008093E10080915E018E7E8160E5CF1F9217
:101320000F920FB60F921124CF92DF92EF92FF929D
:101330000F931F932F933F934F935F936F937F93DD
:101340008F939F93AF93BF93EF93FF93CF93DF93CD
:10135000CDB7DEB76C97DEBFCDBF1092E9008091AC
:10136000E80083FF25C068E0CE0145960E944F0348
:1013700082EF8093E8008D8987FF39C09091E80063
:1013800090FFFCCF982F907609F034C19E894F8949
:10139000588D2F89F88C911131C0803861F580917A
:1013A0005F018093F1001092F1008EEF8093E800CE
:1013B0006C960FB6F894DEBF0FBECDBFDF91CF9114
:1013C000FF91EF91BF91AF919F918F917F916F911D
:1013D0005F914F913F912F911F910F91FF90EF904F
:1013E000DF90CF900F900FBE0F901F9018959EEF3B
:1013F0009093E800C7CF1092F100D5CF913059F407
:101400008111D3CF4130510581F680915F018D7FED
:1014100080935F01CACF933049F48111C6CF413028
:10142000510519F680915F018260F2CF953041F449
:101430008091E80080FFFCCF20682093E300B5CFC7
:10144000963009F0A9C00B8D1C8D22E01092E900A6
:1014500010925B0110925A01F2122EC010925901A3
:10146000109258010E941E031F8299E09983FA820C
:1014700091E09E8390EA98879AEF998720915A018C
:1014800030915B01275F3F4F3C832B838D8310920C
:10149000E90010925B0110925A01109359010093D8
:1014A000580149E050E0BE016F5F7F4F80E00E942D
:1014B000F8020E941E0379CF10935901009358013E
:1014C0000E940A01DC0112960D911C910115110573
:1014D00009F451C1D801ED91FC910480F581E02D12
:1014E000BE016B5E7F4FC8010995009709F03EC1B0
:1014F000F80100851185EACFF3E0FF120EC08F8955
:10150000882309F440C0823061F440E86DE08DE149
:1015100091E00E94C502811148CF81E28093EB00E7
:1015200047CF813029F440E867E085E191E0F1CFD1
:10153000833099F70E940A01DC011296ED90FC902D
:101540008E010F5F1F4F6801E114F10479F0D7019C
:10155000ED91FC910680F781E02DB801C701099556
:10156000080F111DF701E084F184EECFD8011C9221
:10157000F60101900020E9F73197BF016C197D0950
:1015800040E0C601C6CF6FEF70E0FB01449150E030
:1015900080E80E94F80209CF973009F4BECF983056
:1015A00021F481E08093F10000CF993009F0FDCE65
:1015B000837009F0B2CFEDE0F1E081E031E096E335
:1015C0002191222371F08093E9003093EB00DF0139
:1015D00011972C912093EC009093ED008F5F873052
:1015E00079F78EE78093EA001092EA008F89809362
:1015F0008702DBCE8B8D9C8D1092E90010925B01EF
:1016000010925A019093590180935801898D81114C
:1016100092C08E899D89913A49F4813209F07DCF3B
:1016200047E050E064E071E080E0B3CF913209F030
:1016300074CF833269F48F89988DB0E0A0E08093F5
:10164000000190930101A0930201B0930301ADCE7C
:10165000803269F48091E80082FFFCCF67E084E08B
:1016600091E00E944F038BEF8093E8009ECE823280
:1016700009F09BCE8F8980930B01EEEFFFE78591F8
:1016800094918B3F9C4D51F1E0E0F8E08091040192
:1016900090910501A0910601B0910701803B944013
:1016A000A105B105F1F480910B0180FD1AC0EE3F58
:1016B0008AE0F80789F587E797E79183808380912F
:1016C000600080935C0188E19BE00FB6F894A895D8
:1016D000809360000FBE9093600067CEEEEFFAE05B
:1016E000D5CF808191818737974709F05ECEA89545
:1016F0008091600088618093600080915C0180939C
:101700006000EE3F2AE0F20789F08091FE0A909196
:10171000FF0A9183808349CE808191818737980722
:1017200051F29093FF0A8093FE0AC5CF1092FF0AF0
:101730001092FE0A3ACE0E940A01DC0112960D9127
:101740001C910115110509F4E8CED801ED91FC9129
:101750000190F081E02DBE016B5E7F4FC8010995BD
:10176000811123CEF80100851185EBCF18161906DB
:101770000CF41BCED2CEF1E0FF12BECE63E071E0DE
:1017800004CFE8EEF2E01382128288EE93E0A0E04C
:10179000B0E084839583A683B78381E491E091834D
:1017A00080838FEF9FEF95878487E8E3F3E0808362
:1017B00012821182148613868FEF9FEFDC018783DC
:1017C0009087A187B28713821482158216820895AA
:1017D000CF93DF9300D000D01F92CDB7DEB77894BF
:1017E00084B5826084BD84B5816084BD85B5826026
:1017F00085BD85B5816085BD80916E0081608093D7
:101800006E0010928100809181008260809381003F
:10181000809181008160809381008091800081604F
:1018200080938000809191008260809391008091EC
:1018300091008160809391008091900081608093FD
:1018400090008091C10084608093C1008091C100AC
:1018500082608093C1008091C10081608093C1004B
:101860008091C30081608093C3008091C00082603A
:101870008093C0008091C20081608093C2008091FB
:101880007A00846080937A0080917A0082608093ED
:101890007A0080917A00816080937A0080917A004A
:1018A000806880937A001092870210925F011092F4
:1018B0005E018091D70081608093D70080EA809399
:1018C000D80089B5806189BD89B5826089BD09B4B8
:1018D00000FEFDCF61E070E080E090E00E946202D7
:1018E0008091D8008F7C80618093D8008091E00047
:1018F000807F8093E0008091E1008E7E8093E10004
:101900008DE08093E200559A209A5D9828988FEF99
:101910009FEF9093F5028093F40280917A018111F8
:1019200057C010926501109264018FEF8093680197
:101930008093690180936A0180936B0180936C01AD
:1019400080936D0181E080936E0180936F0110920E
:1019500071011092700180E797E190937301809379
:10196000720183E090E0909375018093740110926E
:1019700077011092760110926701109266018091B2
:10198000E2029091E302892B31F482E691E0909398
:10199000E3028093E202E0916001F09161013097EF
:1019A00021F082E691E09583848382E691E0909332
:1019B00061018093600110927901109278018BE2AD
:1019C00091E0909363018093620181E080937A01BA
:1019D000579A88E892E0909365018093640180E1D2
:1019E00090E0909371018093700180913B039091FE
:1019F0003C03A0913D03B0913E03843C29E0920753
:101A0000A105B10520F484EC99E0A0E0B0E080935A
:101A10003B0390933C03A0933D03B0933E0380EAC5
:101A20008093380308E812E0A0E8FA2EF80110824B
:101A3000F18212820E9443016FE070E080E090E04A
:101A40000E9462020D5F1F4FF2E0083B1F0771F713
:101A500019821A821B82CE0101960E94C1000E9447
:101A600043010E94C308E4E64E2E512C612C712CD8
:101A7000F6E02F2E312CBB24BA94AA24A39488EE2E
:101A800092E00E946304892B09F43FC188EE92E042
:101A90000E942104909174028A3019F08D3009F06F
:101AA0001CC19111B7C020917202309173022115AF
:101AB000310509F4AFC0F901EE57FE4F1082909145
:101AC00082019C3409F46CC064F4923409F4E3C0DC
:101AD000933409F4FEC09F3309F09CC00E94C308F0
:101AE00099C0923509F49DC0993509F4E3C0903549
:101AF00009F090C0C9010197B1010E94B30E4B01DA
:101B00006131710518F070E1872E912C52E8C52ED5
:101B100051E0D52E68E8E62E62E0F62E10E000E0F7
:101B20000815190559F1BE016B5F7F4FC60101967B
:101B30000E943708882311F1BE016C5F7F4FC601F8
:101B400003960E9437088823C9F0BE016F5F7F4F5C
:101B5000C60105960E94370846E0C40ED11C8823B2
:101B600069F089819C812D81F70120839183828393
:101B70000F5F1F4FF3E0EF0EF11CD2CFF801EE0F15
:101B8000FF1FE00FF11FE857FD4F0031110508F06E
:101B90003FC01082118212820F5F1F4F3396F5CF24
:101BA0006AE370E083E891E00E94480F8C01892B82
:101BB00089F183E891E00E948D0E7C01409750F5F9
:101BC000BE016B5F7F4FC80101960E9437088823D2
:101BD00009F1BE016C5F7F4FC80103960E94370870
:101BE0008823C1F0BE016F5F7F4FC80105960E9438
:101BF0003708882379F089819C81F701EE0FFF1F58
:101C0000EE0DFF1DE857FD4F2D81208391838283C8
:101C10000E94430110927302109272021092740299
:101C20002ECF83E891E00E948D0E8536910514F049
:101C300084E690E0BC0197FF02C070E060E0072EF0
:101C4000000C880B990B24E0660F771F881F991FE3
:101C50002A95D1F7A30192010E94FD0EE8E8F2E077
:101C600090E080E08217930798F48530910550F456
:101C7000108240E8418312820196339680319105AB
:101C800089F7C6CFB0828A30910518F4B182F3CFBC
:101C900010821182F0CF80918301813349F48FEF5C
:101CA00019821A828B83CE0101960E94C100B0CFA7
:101CB00080E0F6CF83E891E00E948D0E8F3F910582
:101CC00019F014F08FEF90E097FD80E080933803D7
:101CD0009FCF19821A821B82E6CF9111D0CE20911C
:101CE0007202309173022F3E310560F4A9014F5FFB
:101CF0005F4F50937302409372022E573E4FF9018B
:101D00008083BDCEA0927402BACE80E090E0892B91
:101D100009F4B1CE0E940000AECEFC0188279927BD
:101D2000E89421912032E9F3293010F02E30C8F3E5
:101D30002B3241F02D3239F4689404C00E94AB0E6E
:101D4000820F911D219120532A30C0F31EF49095EB
:101D500081959F4F08957AE0979F902D879F802DC2
:101D6000910D11240895AA1BBB1B51E107C0AA1FA6
:101D7000BB1FA617B70710F0A61BB70B881F991F2C
:101D80005A95A9F780959095BC01CD01089597FBD0
:101D9000072E16F4009407D077FD09D00E94B30EE9
:101DA00007FC05D03EF4909581959F4F089570955E
:101DB00061957F4F0895A1E21A2EAA1BBB1BFD015E
:101DC0000DC0AA1FBB1FEE1FFF1FA217B307E4071A
:101DD000F50720F0A21BB30BE40BF50B661F771F72
:101DE000881F991F1A9469F7609570958095909552
:101DF0009B01AC01BD01CF010895052E97FB1EF498
:101E000000940E94140F57FD07D00E94DB0E07FCC0
:101E100003D04EF40C94140F5095409530952195B5
:101E20003F4F4F4F5F4F0895909580957095619506
:101E30007F4F8F4F9F4F0895A29FB001B39FC00166
:101E4000A39F700D811D1124911DB29F700D811DE6
:101E50001124911D08950E941C0FB7FF0895821B45
:101E6000930B08950E941C0FA59F900DB49F900D99
:101E7000A49F800D911D11240895EE0FFF1F059062
:101E8000F491E02D099481E090E0F8940C94530FC4
:101E9000FC018191861721F08823D9F799270895AD
:0A1EA0003197CF010895F894FFCFA9
:101EAA00FFFFFFFF00E100000000000000C1808189
:101EBA0000000000000000C108C108C1086708CE80
:101ECA0004630860085D0800000000CE0768076622
:101EDA00076708CE046308600894020E0500000034
:101EEA0000E1035C031D041204630421043F040D92
:021EFA000A00DC
:00000001FF
