:100000000C9471000C9499000C9499000C94990034
:100010000C9499000C9499000C9499000C949900FC
:100020000C9499000C9499000C9499000C949900EC
:100030000C9499000C9499000C9499000C949900DC
:100040000C94AA040C9499000C941A050C94F404D2
:100050000C9499000C9499000C9499000C949900BC
:100060000C9499000C9499004B454E44004B3A7304
:100070006567446973706C61793D746D31363338EE
:10008000003A00420000000000240027002A00007F
:10009000000000250028002B00000000002300269F
:1000A00000290004040404040404040202020202FD
:1000B000020303030303030102040810204080012C
:1000C00002040810200102040810200000000800AB
:1000D000020100000304070000000000000000000F
:1000E0004C0511241FBECFEFD8E0DEBFCDBF11E01D
:1000F000A0E0B1E0EAECFEE002C005900D92A03C69
:10010000B107D9F722E0A0ECB1E001C01D92A23BFB
:10011000B207E1F710E0C1E7D0E004C02197FE018B
:100120000E945D07C037D107C9F70E948A050C9469
:1001300063070C940000833081F028F4813099F03B
:100140008230A9F008958730A9F08830C9F0843052
:10015000B1F4809180008F7D03C0809180008F7703
:1001600080938000089584B58F7784BD089584B509
:100170008F7DFBCF8091B0008F778093B000089582
:100180008091B0008F7DF9CFCF93DF93282F30E09F
:10019000F901E553FF4F8491F901E954FF4FD491E0
:1001A000F901ED55FF4FC491CC23A1F081110E94BC
:1001B0009B00EC2FF0E0EE0FFF1FE756FF4FA591DD
:1001C000B491EC91ED2381E090E009F480E0DF91BF
:1001D000CF91089580E090E0FACF1F93CF93DF9303
:1001E000282F30E0F901E553FF4F8491F901E954DC
:1001F000FF4FD491F901ED55FF4FC491CC23A9F0E5
:10020000162F81110E949B00EC2FF0E0EE0FFF1FD4
:10021000E157FF4FA591B4918FB7F894EC9111116C
:1002200008C0D095DE23DC938FBFDF91CF911F9163
:100230000895DE2BF8CFCF93DF9390E0FC01E954D3
:10024000FF4F24918D559F4FFC0184918823D1F05D
:1002500090E0880F991FFC01EB57FF4FA591B491D7
:10026000FC01E157FF4FC591D49161110EC09FB7BA
:10027000F8948C91E22FE0958E238C932881E223D1
:10028000E8839FBFDF91CF9108958FB7F894EC91E9
:10029000E22BEC938FBFF6CF8230910538F0880FB8
:1002A000991F880F991F05970197F1F70895AF924D
:1002B000BF92CF92DF92EF92FF920F931F93CF9353
:1002C000DF936C017B018B01040F151FEB015E01B5
:1002D000AE18BF08C017D10759F06991D601ED914A
:1002E000FC910190F081E02DC6010995892B79F7E9
:1002F000C501DF91CF911F910F91FF90EF90DF909B
:10030000CF90BF90AF900895FC01538D448D252F61
:1003100030E0842F90E0821B930B541710F0CF969F
:10032000089501970895FC01918D828D981761F0D1
:10033000A28DAE0FBF2FB11D5D968C91928D9F5FE8
:100340009F73928F90E008958FEF9FEF0895FC01C7
:10035000918D828D981731F0828DE80FF11D858D7A
:1003600090E008958FEF9FEF0895FC01918D228D0D
:10037000892F90E0805C9F4F821B91098F73992792
:1003800008958CE092E00E94B50121E0892B09F4E8
:1003900020E0822F089580E090E0892B29F00E94D0
:1003A000C10181110C9400000895FC01A48DA80FD7
:1003B000B92FB11DA35ABF4F2C91848D90E00196A7
:1003C0008F739927848FA689B7892C93A089B189C7
:1003D0008C91837080648C93938D848D981306C068
:1003E0000288F389E02D80818F7D80830895EF92CC
:1003F000FF920F931F93CF93DF93EC0181E0888FDF
:100400009B8D8C8D98131AC0E889F989808185FFAE
:1004100015C09FB7F894EE89FF896083E889F98950
:1004200080818370806480839FBF81E090E0DF9152
:10043000CF911F910F91FF90EF900895F62E0B8DA5
:1004400010E00F5F1F4F0F731127E02E8C8D8E1160
:100450000CC00FB607FCFACFE889F989808185FFC7
:10046000F5CFCE010E94D501F1CFEB8DEC0FFD2F22
:10047000F11DE35AFF4FF0829FB7F8940B8FEA8982
:10048000FB8980818062CFCF0F931F93CF93DF933F
:100490008C01D0E0C0E0F801EC0FFD1F64916623F1
:1004A00041F08CE092E00E94F701892B11F0219637
:1004B000F2CFCE01DF91CF911F910F910895CF938D
:1004C000DF93EC01888D8823B9F0AA89BB89E8897C
:1004D000F9898C9185FD03C0808186FD0DC00FB622
:1004E00007FCF7CF8C9185FFF2CF808185FFEDCFA0
:1004F000CE010E94D501E9CFDF91CF910895CF922F
:10050000DF92EF92FF920F931F93CF93DF937C01C3
:100510008B011127D0E0C0E0CC24C394D12CC601BC
:100520000C2E02C0880F991F0A94E2F780239123B2
:1005300041E0892B09F440E0D701ED91FC91028064
:10054000F381E02D6C2FC70109952196C830D105A4
:1005500031F7DF91CF911F910F91FF90EF90DF90D6
:10056000CF900895FC0101900020E9F73197AF0189
:10057000481B590BBC018CE092E00C9457018F9200
:100580009F92AF92BF920F931F93CF93DF93CDB7FC
:10059000DEB7A1970FB6F894DEBF0FBECDBF19A28C
:1005A000423008F44AE08E010F5D1F4F842E912CDB
:1005B000B12CA12CA50194010E943B07E62FB901A3
:1005C000CA01EA30F4F4E05DD801EE938D01232BEB
:1005D000242B252B79F790E080E0109719F0CD01BE
:1005E0000E94B202A1960FB6F894DEBF0FBECDBF37
:1005F000DF91CF911F910F91BF90AF909F908F90FF
:100600000895E95CE1CF8DE690E00E94440285E721
:1006100091E00E94B20288E690E00E94440285E7E1
:1006200091E00C94B202CF92DF92EF92FF920F937F
:100630001F93CF93DF937C01C62FFC0113810281AE
:10064000848181111AC0D8E06C2F6170802F0E94C4
:10065000ED00C69561E0812F0E94ED0060E0812FE2
:100660000E94ED00D15081F7DF91CF911F910F9142
:10067000FF90EF90DF90CF900895D12CC12CD0E067
:10068000BE010C2C02C0759567950A94E2F7617063
:10069000802F0E94ED0061E0812F0E94ED00F701A4
:1006A000868190E00E944C0160E0812F0E94ED0065
:1006B000F701868190E00E944C01FFEFCF1ADF0A1C
:1006C00088E0C816D104E1F6CFCFCF92DF92EF9247
:1006D000FF920F931F93CF93DF9360E08091AC0262
:1006E0000E94ED0062E48BEA92E00E94130360E056
:1006F0008091AD020E941B0110E000E0D12CD0914E
:10070000AE02C090AD028091AF02F12CE12CC0E0AE
:10071000811137C061E08D2F0E94ED008C2D0E9469
:10072000C4000E2C01C0880F0A94EAF7C82B60E0C1
:100730008D2F0E94ED008FEFE81AF80A88E0E81686
:10074000F10441F7002E01C0CC0F0A94EAF7DC2A2D
:100750000F5F1F4F0430110591F661E08091AD02EB
:100760000E941B0161E08091AC020E94ED008D2D82
:10077000DF91CF911F910F91FF90EF90DF90CF907D
:10078000089561E08D2F0E94ED008091B00290E00D
:100790000E944C018C2D0E94C4000E2C01C0880FB9
:1007A0000A94EAF7C82B60E08D2F0E94ED0080913B
:1007B000B00290E00E944C018FEFE81AF80A88E03E
:1007C000E816F104F1F6BECF1F93CF93DF93EC014F
:1007D000162F60E089810E94ED00612FCE010E94FA
:1007E000130361E08981DF91CF911F910C94ED009B
:1007F0000F931F93CF93DF93C82FD62F64E48BEA18
:1008000092E00E94E40309EA12E060E0F8018381CB
:100810000E94ED006C2F660F60548BEA92E00E94FC
:1008200013036D2F8BEA92E00E94130361E0F8013D
:100830008381DF91CF911F910F910C94ED000F9365
:100840001F93CF93DF93EC0110E0E881EE23E1F1F9
:100850001830D1F1012F1F5F80EE8E0F99819E32EB
:10086000D9F4EE32C9F08B3568F08091AB02882361
:1008700041F088E791E00E94B20285E791E00E9492
:10088000B202E0E3F0E0E052FF4F60816058802F59
:100890000E94F8032296D9CF8B3568F08091AB0285
:1008A000882341F088E791E00E94B20285E791E059
:1008B0000E94B202E0E32196F0E0E052FF4F608137
:1008C000802F0E94F803C1CFDF91CF911F910F912C
:1008D0000895EF92FF920F931F93CF93DF938C01B4
:1008E000C62FD42F61E0FC0184810E941B01780196
:1008F000F2E0EF0EF11C64E4C7010E94E40360E043
:10090000F80183810E94ED006C2F660F6F53C701C1
:100910000E9413036D2FC7010E94130361E0F801C9
:100920008381DF91CF911F910F91FF90EF900C94F5
:10093000ED00CF9387EB91E00E941F04C0E040E000
:100940006C2F89EA92E00E946904CF5FC830B9F742
:10095000CF9108951F920F920FB60F9211242F93EB
:100960003F938F939F93AF93BF9380910802909191
:100970000902A0910A02B0910B023091070223E014
:10098000230F2D3758F50196A11DB11D20930702A5
:100990008093080290930902A0930A02B0930B027D
:1009A0008091030290910402A0910502B091060289
:1009B0000196A11DB11D8093030290930402A093A0
:1009C0000502B0930602BF91AF919F918F913F9125
:1009D0002F910F900FBE0F901F90189526E8230FB0
:1009E0000296A11DB11DD2CF1F920F920FB60F928A
:1009F00011242F933F934F935F936F937F938F9324
:100A00009F93AF93BF93EF93FF938CE092E00E948C
:100A1000D501FF91EF91BF91AF919F918F917F9100
:100A20006F915F914F913F912F910F900FBE0F905B
:100A30001F9018951F920F920FB60F9211242F93AB
:100A40008F939F93EF93FF93E0911C02F0911D020F
:100A50008081E0912202F091230282FD1BC09081EF
:100A6000809125028F5F8F7320912602821741F0BB
:100A7000E0912502F0E0E45FFD4F958F8093250221
:100A8000FF91EF919F918F912F910F900FBE0F903B
:100A90001F9018958081F4CFECE0F2E0138212826F
:100AA00088EE93E0A0E0B0E084839583A683B783CB
:100AB0008FE591E09183808385EC90E09587848732
:100AC00084EC90E09787868780EC90E0918B808B18
:100AD00081EC90E0938B828B82EC90E0958B848B01
:100AE00086EC90E0978B868B118E128E138E148E6F
:100AF000E9EAF2E0128281E08783808721E731E032
:100B00003183208397E0938398E0948399E09583E1
:100B100086830895CF93DF93CDB7DEB7C058D10950
:100B20000FB6F894DEBF0FBECDBF789484B5826057
:100B300084BD84B5816084BD85B5826085BD85B581
:100B4000816085BD80916E00816080936E001092FF
:100B5000810080918100826080938100809181007A
:100B6000816080938100809180008160809380000B
:100B70008091B10084608093B1008091B000816069
:100B80008093B00080917A00846080937A00809195
:100B90007A00826080937A0080917A0081608093ED
:100BA0007A0080917A00806880937A001092C10068
:100BB000E0911C02F0911D0282E08083E091180216
:100BC000F09119021082E0911A02F0911B0280E16B
:100BD000808310922402E0912002F091210286E0AD
:100BE0008083E0911E02F0911F02808180618083EA
:100BF000E0911E02F0911F02808188608083E09165
:100C00001E02F0911F02808180688083E0911E02A5
:100C1000F0911F0280818F7D808361E08091AC0222
:100C20000E941B0161E08091AD020E941B0161E006
:100C30008091AE020E941B016FE88BEA92E00E9455
:100C4000E4036AE88BEA92E00E94E40360E48BEA42
:100C500092E00E94E40360E08091AC020E94ED000B
:100C600060EC8BEA92E00E94130310E160E08BEAF3
:100C700092E00E9413031150C9F761E08091AC0229
:100C80000E94ED000E9499040E9465038093020275
:100C90000E9403038E010F5F1F4FEE24E394F12C9B
:100CA00080E2D82ECC24C3948CE092E00E94B5015F
:100CB000181619060CF094C08CE092E00E94930183
:100CC000909101028A3019F08D3009F075C09111B0
:100CD00068C0E0910002EE2309F463C0F0E0E05444
:100CE000FE4F10828091C001882309F45AC08F33CF
:100CF00009F45FC0833409F459C0873309F051C047
:100D000030E020E0E32FF0E0EF53FE4F80818823B6
:100D1000F1F09F33E0F440ED480F4A3040F08E325E
:100D200091F08D3221F08A3311F0803271F4283045
:100D300070F42F5FE1E4F0E0EC0FFD1FE90FF11D0F
:100D400080839F5F02C09111F5CF3F5FDBCFE1E46D
:100D5000F0E0EC0FFD1FE90FF11D1082F80180E0BB
:100D6000322F380F3830A0F09E012F5B3F4FD80153
:100D7000A80FB11D980FFD01E01BF10B981759F05A
:100D80008F3349F08F5FF90141919F014D93F3CF6C
:100D90008F5FD192E5CFE00FF11F1082C8010E9452
:100DA0001F0410920002109201027ECF0E9499044B
:100DB000F8CF0E940303F5CF911176CFE0910002A6
:100DC000EF3348F491E09E0F90930002F0E0E0547E
:100DD000FE4F808369CF10920002C092010264CF5F
:100DE0000E946503C82E909002028915B9F1412C2A
:100DF000512C320198265701042C01C0AA0C0A94E8
:100E0000EAF7892D8A21E9F083E890E00E94440204
:100E10004AE0C301B2010E94BF0281E890E00E9453
:100E20004402AC2061E070E080E090E019F460E002
:100E300070E0CB014AE00E94BF0285E791E00E948A
:100E4000B202FFEF4F1A5F0A6F0A7F0A88E0481666
:100E500051046104710479F6C092020280E090E0CE
:100E6000892B09F41FCF0E94C101882309F418CFF0
:100E70000E94000012CFA1E21A2EAA1BBB1BFD018B
:100E80000DC0AA1FBB1FEE1FFF1FA217B307E40769
:100E9000F50720F0A21BB30BE40BF50B661F771FC1
:100EA000881F991F1A9469F76095709580959095A1
:100EB0009B01AC01BD01CF010895EE0FFF1F05900E
:0A0EC000F491E02D0994F894FFCF9F
:100ECA000086227E6DD24620290B21701040805266
:100EDA003F065B4F666D7D077F6F090D614843D3FF
:100EEA005F777C395E79713D76301E753815373FEC
:100EFA00736B336D783E3E2A766E5B39640F230836
:100F0A00025F7C585E7B716F74100C753014545CF0
:100F1A007367506D781C1C14766E5B00000000F736
:100F2A0001570184015F02B5019301A70100000086
:100F3A00007F0269040D0A005761726E696E6720AC
:100F4A003A20646973706C61794153434949203A84
:100F5A002041534349492063686172616374657231
:100F6A00206973206F75747369646520666F6E7487
:100F7A002072616E6765002020202020202020003A
:00000001FF
