:100000000C94E0000C9408010C9408010C94080175
:100010000C9408010C9408010C9408010C9408013C
:100020000C9408010C9408010C9499060C94080790
:100030000C9408010C9408010C9408010C9408011C
:100040000C9408010C9408010C9408010C9408010C
:100050000C9408010C9408010C9408010C944F06B0
:100060000C9408010C9408010C9408010C940801EC
:100070000C9408010C9408010C9408010C940801DC
:100080000C9408010C9408010C9408010C940801CC
:100090000C9408010C9408010C9408010C940801BC
:1000A0000C9408010C9408010C9408014B454E4433
:1000B000004B3A736567446973706C61793D746D88
:1000C0003136333800080B00020202000009040038
:1000D00000010202000005240010010524010101B5
:1000E00004240206052406000107058103100040D0
:1000F00009040100020A0000000705020240000096
:10010000070583024000000403090412010002EF06
:1001100002014041233780000101020301556E6B4B
:100120006E6F776E0041726475696E6F204D696302
:10013000726F003A00420000000000240027002AED
:10014000002D00300000000000250028002B002EAC
:10015000003100000000002300260029002C002FA1
:10016000000404040404030405020202020403025E
:10017000020202060606060606040402020204043F
:100180000408020110408040102040804080080296
:100190000401804020100201108010204040200007
:1001A00000000200090F0000030401000C00000021
:1001B00000000000000000000000000000006D09C9
:1001C00011241FBECFEFDAE0DEBFCDBF11E0A0E00B
:1001D000B1E0E6E1F7E102C005900D92A43DB10760
:1001E000D9F722E0A4EDB1E001C01D92AF38B2070B
:1001F000E1F710E0C0EED0E004C02197FE010E94BC
:10020000830BCF3DD107C9F70E9493090C94890B4A
:100210000C940000FC0180913502882311F13FB756
:10022000F89482E08093E9002091F200822F90E020
:100230001816190614F481E090E0882339F0289A02
:1002400044E6409334024091F1004083222339F088
:100250002091F200211103C02BE62093E8003FBF5C
:1002600008958FEF9FEF08952FB7F89483E0809360
:10027000E9009091E800892F807295FF04C0909169
:10028000F20080E4891B2FBF089580912C02811118
:100290000DC082E08093280284E0809329021092AE
:1002A0002B0210922A0281E080932C0288E292E0D5
:1002B000089581508F3008F047C0E82FF0E0ED59E5
:1002C000FE4F0C94830B80018401720178017C0144
:1002D000A401A401A40187018D01910195019B0155
:1002E000A4019F01809180008F7780938000089502
:1002F000809180008F7DF9CF80918000877FF5CF3E
:1003000084B58F7784BD089584B58F7DFBCF8091B0
:1003100090008F77809390000895809190008F7D5A
:10032000F9CF80919000877FF5CF8091C0008F77C3
:100330008093C00008958091C0008F7DF9CF809197
:10034000C200877F8093C2000895CF93DF93282F48
:1003500030E0F901E156FE4F8491F901E058FE4F7B
:10036000D491F901EF59FE4FC491CC23A1F0811132
:100370000E945901EC2FF0E0EE0FFF1FED5AFE4FE7
:10038000A591B491EC91ED2381E090E009F480E037
:10039000DF91CF91089580E090E0FACF1F93CF9343
:1003A000DF93282F30E0F901E156FE4F8491F901E7
:1003B000E058FE4FD491F901EF59FE4FC491CC2380
:1003C000A9F0162F81110E945901EC2FF0E0EE0FD9
:1003D000FF1FEB5BFE4FA591B4918FB7F894EC91A2
:1003E000111108C0D095DE23DC938FBFDF91CF9130
:1003F0001F910895DE2BF8CFCF93DF9390E0FC019F
:10040000E058FE4F24918F599E4FFC018491882320
:10041000D1F090E0880F991FFC01E95CFE4FA59197
:10042000B491FC01EB5BFE4FC591D49161110EC0FC
:100430009FB7F8948C91E22FE0958E238C932881BE
:10044000E223E8839FBFDF91CF9108958FB7F8949F
:10045000EC91E22BEC938FBFF6CF8230910538F010
:10046000880F991F880F991F05970197F1F7089535
:100470003FB7F8948091240290912502A091260222
:10048000B091270226B5A89B05C02F3F19F0019611
:10049000A11DB11D3FBFBA2FA92F982F8827BC01DE
:1004A000CD01620F711D811D911D42E0660F771F06
:1004B000881F991F4A95D1F70895CF92DF92EF9246
:1004C000FF920E9438026B017C010E9438026C1975
:1004D0007D098E099F09683E734081059105A8F347
:1004E000FF90EF90DF90CF9008954091D60150910A
:1004F000D7012091D4013091D50142175307B4F4AC
:100500009091E8009570E1F39091E80092FD19C098
:100510008093F1008091D6019091D70101968F735D
:100520009927892B19F48EEF8093E8008091D601EA
:100530009091D70101969093D7018093D60181E0E5
:10054000089580E00895DF92EF92FF920F931F933A
:10055000CF93DF93D82E8A01EB017B01E40EF51EC9
:10056000CE15DF0559F0D7FE12C0FE0184910E941E
:10057000750221968111F4CF0FEF1FEFC801DF91B3
:10058000CF911F910F91FF90EF90DF900895888198
:10059000EECF0F931F93CF93DF931F92CDB7DEB7AC
:1005A00082E0898342E450E065EC70E080E80E94DC
:1005B000A3020E944501DC0112960D911C910115C8
:1005C000110589F0D801ED91FC910280F381E02DB5
:1005D000BE016F5F7F4FC801099597FD04C0F80108
:1005E00000851185ECCF89810F90DF91CF911F910C
:1005F0000F910895615030F02091F100FC012083AB
:100600000196F8CF289A84E68093340208958F9259
:100610009F92AF92BF92CF92DF92EF92FF920F9391
:100620001F93CF93DF936C017B018A0180910B01B3
:10063000882309F458C080913502882309F453C0F7
:100640008091DA0180FF05C08091E0008260809394
:10065000E000E801B12C8AEFA82E93E0892E2AE36E
:10066000922E209711F4BB20B9F10E943401811120
:1006700006C0AA94AA20B9F10E945D02F2CF8C179D
:100680001D0611F00CF08C2F9FB7F8948092E900B2
:100690002091E80025FD02C09FBFE3CF282F30E066
:1006A000C21BD30BF701815020F041914093F10020
:1006B000FACFE20EF31EBB2021F09092E800B12C9D
:1006C000EBCF8091E80085FDE7CF9092E800BB2456
:1006D000B394209709F3F3CF5D9A84E68093D90110
:1006E000101611063CF081E090E0F60193838283BE
:1006F00010E000E0C801DF91CF911F910F91FF90B2
:10070000EF90DF90CF90BF90AF909F908F90089523
:10071000CF93DF931F92CDB7DEB76983DC01ED91F4
:10072000FC910280F381E02D41E050E0BE016F5F5B
:100730007F4F09950F90DF91CF9108950F931F93ED
:10074000CF93DF938C01D0E0C0E0F801EC0FFD1FE8
:100750006491662341F086E392E00E948803892B2E
:1007600011F02196F2CFCE01DF91CF911F910F9121
:10077000089583E08093E9008091F200882319F0C6
:100780008AE38093E80008950E94340190E0089580
:10079000CF93DF931F92CDB7DEB7FC01848595859B
:1007A00097FD08C02FEF3FEF358724870F90DF912B
:1007B000CF910895CE0101960E940A01019719F484
:1007C000898190E0F3CF8FEF9FEFF0CF0F931F93CE
:1007D000CF93DF931F92CDB7DEB78C01FC018485E8
:1007E000958597FF0BC0CE0101960E940A010197E3
:1007F00071F4898190E0F80195878487F8018485F8
:1008000095850F90DF91CF911F910F9108958FEFF4
:100810009FEFF1CFFC018485958597FD0BC09FB7B5
:10082000F89482E08093E9008091F2009FBF90E00D
:10083000019608959FB7F89482E08093E900809133
:10084000F2009FBF90E00895CF92DF92EF92FF9267
:100850000F931F93CF93DF937C018B011127D0E07F
:10086000C0E0CC24C394D12CC6010C2E02C0880F4A
:10087000991F0A94E2F78023912341E0892B09F420
:1008800040E0D701ED91FC910280F381E02D6C2FC7
:10089000C70109952196C830D10531F7DF91CF9175
:1008A0001F910F91FF90EF90DF90CF900895FC0182
:1008B00001900020E9F73197AF01481B590BBC01AB
:1008C00086E392E00C9407038F929F92AF92BF92BF
:1008D0000F931F93CF93DF93CDB7DEB7A1970FB6DA
:1008E000F894DEBF0FBECDBF19A2423008F44AE033
:1008F0008E010F5D1F4F842E912CB12CA12CA501D0
:1009000094010E94610BE62FB901CA01EA30F4F4A8
:10091000E05DD801EE938D01232B242B252B79F755
:1009200090E080E0109719F0CD010E945704A19645
:100930000FB6F894DEBF0FBECDBFDF91CF911F91F0
:100940000F91BF90AF909F908F900895E95CE1CF99
:1009500081EB90E00E949E0388E891E00E9457049A
:100960008CEA90E00E949E0388E891E00C94570482
:10097000CF92DF92EF92FF920F931F93CF93DF936B
:100980007C01C62FFC0113810281848181111AC070
:10099000D8E06C2F6170802F0E94CE01C69561E077
:1009A000812F0E94CE0160E0812F0E94CE01D150A4
:1009B00081F7DF91CF911F910F91FF90EF90DF9022
:1009C000CF900895D12CC12CD0E0BE010C2C02C0D8
:1009D000759567950A94E2F76170802F0E94CE01A9
:1009E00061E0812F0E94CE01F701868190E00E9494
:1009F0002D0260E0812F0E94CE01F701868190E0F8
:100A00000E942D02FFEFCF1ADF0A88E0C816D1043A
:100A1000E1F6CFCFCF92DF92EF92FF920F931F9329
:100A2000CF93DF9360E0809189020E94CE0162E45F
:100A300088E892E00E94B80460E080918A020E94F7
:100A4000FC0110E000E0D12CD0918B02C0908A0212
:100A500080918C02F12CE12CC0E0811137C061E063
:100A60008D2F0E94CE018C2D0E94A5010E2C01C05D
:100A7000880F0A94EAF7C82B60E08D2F0E94CE0100
:100A80008FEFE81AF80A88E0E816F10441F7002E23
:100A900001C0CC0F0A94EAF7DC2A0F5F1F4F043025
:100AA000110591F661E080918A020E94FC0161E0EB
:100AB000809189020E94CE018D2DDF91CF911F91EF
:100AC0000F91FF90EF90DF90CF90089561E08D2F10
:100AD0000E94CE0180918D0290E00E942D028C2D0B
:100AE0000E94A5010E2C01C0880F0A94EAF7C82BBA
:100AF00060E08D2F0E94CE0180918D0290E00E94D7
:100B00002D028FEFE81AF80A88E0E816F104F1F6F2
:100B1000BECF1F93CF93DF93EC01162F60E0898146
:100B20000E94CE01612FCE010E94B80461E089814C
:100B3000DF91CF911F910C94CE010F931F93CF9310
:100B4000DF93C82FD62F64E488E892E00E948905DD
:100B500006E812E060E0F80183810E94CE016C2F6C
:100B6000660F605488E892E00E94B8046D2F88E810
:100B700092E00E94B80461E0F8018381DF91CF9197
:100B80001F910F910C94CE010F931F93CF93DF937E
:100B9000EC0110E0E881EE23E1F11830D1F1012FF2
:100BA0001F5F80EE8E0F99819E32D9F4EE32C9F02C
:100BB0008B3568F080918802882341F08BE891E0C2
:100BC0000E94570488E891E00E945704E0E3F0E0B7
:100BD000ED50FF4F60816058802F0E949D05229646
:100BE000D9CF8B3568F080918802882341F08BE85B
:100BF00091E00E94570488E891E00E945704E0E3E6
:100C00002196F0E0ED50FF4F6081802F0E949D05FE
:100C1000C1CFDF91CF911F910F910895EF92FF9275
:100C20000F931F93CF93DF938C01C62FD42F61E0D6
:100C3000FC0184810E94FC017801F2E0EF0EF11CBE
:100C400064E4C7010E94890560E0F80183810E9485
:100C5000CE016C2F660F6F53C7010E94B8046D2F31
:100C6000C7010E94B80461E0F8018381DF91CF9150
:100C70001F910F91FF90EF900C94CE01CF938AECCF
:100C800091E00E94C405C0E040E06C2F86E892E04D
:100C90000E940E06CF5FC830B9F7CF9108951F921A
:100CA0000F920FB60F9211242F933F938F939F9320
:100CB000AF93BF938091200290912102A0912202D4
:100CC000B091230230911F0223E0230F2D3758F5F6
:100CD0000196A11DB11D20931F02809320029093C5
:100CE0002102A0932202B0932302809124029091CA
:100CF0002502A0912602B09127020196A11DB11DE7
:100D00008093240290932502A0932602B093270299
:100D1000BF91AF919F918F913F912F910F900FBEF7
:100D20000F901F90189526E8230F0296A11DB11D64
:100D3000D2CF1F920F920FB60F9211248F939F93D1
:100D40008091E1009091E100937F9093E10083FF17
:100D50000FC01092E90091E09093EB001092EC002C
:100D600092E39093ED001092350298E09093F0009A
:100D700082FF22C093E09093E9009091F2009923C2
:100D800019F09AE39093E8009091D901992341F0EA
:100D90009091D90191509093D901911101C05D9822
:100DA00090913402992341F09091340291509093A4
:100DB0003402911101C0289884FF18C08091E2008C
:100DC0008E7E81608093E2008091E1008F7E80932F
:100DD000E1008091DA018E7E80618093DA019F913B
:100DE0008F910F900FBE0F901F90189580FFF7CF37
:100DF0008091E2008E7E80618093E2008091E1002C
:100E00008E7E8093E1008091DA018E7E8160E5CF55
:100E10001F920F920FB60F921124CF92DF92EF9292
:100E2000FF920F931F932F933F934F935F936F9373
:100E30007F938F939F93AF93BF93EF93FF93CF9342
:100E4000DF93CDB7DEB76C97DEBFCDBF1092E90060
:100E50008091E80083FF25C068E0CE0145960E949E
:100E6000FA0282EF8093E8008D8987FF39C0909164
:100E7000E80090FFFCCF982F907609F034C19E894E
:100E80004F89588D2F89F88C911131C0803861F5C8
:100E90008091DB018093F1001092F1008EEF80933E
:100EA000E8006C960FB6F894DEBF0FBECDBFDF91A1
:100EB000CF91FF91EF91BF91AF919F918F917F91D2
:100EC0006F915F914F913F912F911F910F91FF90E3
:100ED000EF90DF90CF900F900FBE0F901F9018955E
:100EE0009EEF9093E800C7CF1092F100D5CF9130DC
:100EF00059F48111D3CF4130510581F68091DB0146
:100F00008D7F8093DB01CACF933049F48111C6CF26
:100F10004130510519F68091DB018260F2CF9530A6
:100F200041F48091E80080FFFCCF20682093E3002B
:100F3000B5CF963009F0A9C00B8D1C8D22E0109220
:100F4000E9001092D7011092D601F2122EC0109231
:100F5000D5011092D4010E94C9021F8299E09983A1
:100F6000FA8291E09E8390EA98879AEF9987209180
:100F7000D6013091D701275F3F4F3C832B838D8370
:100F80001092E9001092D7011092D6011093D5016A
:100F90000093D40149E050E0BE016F5F7F4F80E0D5
:100FA0000E94A3020E94C90279CF1093D501009339
:100FB000D4010E944501DC0112960D911C9101158E
:100FC000110509F451C1D801ED91FC910480F5811E
:100FD000E02DBE016B5E7F4FC8010995009709F0B7
:100FE0003EC1F80100851185EACFF3E0FF120EC083
:100FF0008F89882309F440C0823061F440E86DE0B5
:1010000085E291E00E943A09811148CF81E2809304
:10101000EB0047CF813029F440E867E08DE191E0B3
:10102000F1CF833099F70E944501DC011296ED90D3
:10103000FC908E010F5F1F4F6801E114F10479F0FD
:10104000D701ED91FC910680F781E02DB801C70131
:101050000995080F111DF701E084F184EECFD80146
:101060001C92F60101900020E9F73197BF016C193D
:101070007D0940E0C601C6CF67E071E0FB01449105
:1010800050E080E80E94A30209CF973009F4BECF58
:10109000983021F481E08093F10000CF993009F07D
:1010A000FDCE837009F0B2CFEDE0F1E081E031E0F8
:1010B00096E32191222371F08093E9003093EB00B5
:1010C000DF0111972C912093EC009093ED008F5F3E
:1010D000873079F78EE78093EA001092EA008F89D3
:1010E00080933502DBCE8B8D9C8D1092E90010929F
:1010F000D7011092D6019093D5018093D401898DA8
:10110000811192C08E899D89913A49F4813209F00A
:101110007DCF47E050E064E071E080E0B3CF9132F2
:1011200009F074CF833269F48F89988DB0E0A0E024
:101130008093000190930101A0930201B0930301F9
:10114000ADCE803269F48091E80082FFFCCF67E089
:1011500084E091E00E94FA028BEF8093E8009ECE3B
:10116000823209F09BCE8F8980930B01EEEFFFE76F
:10117000859194918B3F9C4D51F1E0E0F8E0809196
:10118000040190910501A0910601B0910701803BF7
:101190009440A105B105F1F480910B0180FD1AC0C6
:1011A000EE3F8AE0F80789F587E797E79183808328
:1011B000809160008093D80188E19BE00FB6F8949D
:1011C000A895809360000FBE9093600067CEEEEF0D
:1011D000FAE0D5CF808191818737974709F05ECEBD
:1011E000A895809160008861809360008091D8010B
:1011F00080936000EE3F2AE0F20789F08091FE0ABA
:101200009091FF0A9183808349CE808191818737B5
:10121000980751F29093FF0A8093FE0AC5CF10926F
:10122000FF0A1092FE0A3ACE0E944501DC01129696
:101230000D911C910115110509F4E8CED801ED912D
:10124000FC910190F081E02DBE016B5E7F4FC801E3
:101250000995811123CEF80100851185EBCF181671
:1012600019060CF41BCED2CEF1E0FF12BECE6BE01D
:1012700071E004CFEF92FF920F931F93CF93DF9310
:10128000F82E192FE62E042F81E0860F880F0E947A
:10129000750283E00E947502CF2DD12FEC0EFD2E3A
:1012A000F11CCE15DF05B9F007FF13C0FE018491D4
:1012B0000E947502182F80E00E94750281232196FA
:1012C0008111EFCFDF91CF911F910F91FF90EF90A0
:1012D00008958881EDCF81E0F5CFE6E3F2E0138257
:1012E000128288EE93E0A0E0B0E084839583A68329
:1012F000B78382E791E0918380838FEF9FEF95879B
:101300008487E6E8F2E0128281E08783808724E820
:1013100031E03183208397E0938398E0948399E0D0
:10132000958386830895CF93DF93CDB7DEB7C058FA
:10133000D1090FB6F894DEBF0FBECDBF789484B547
:10134000826084BD84B5816084BD85B5826085BDC1
:1013500085B5816085BD80916E00816080936E004F
:101360001092810080918100826080938100809141
:1013700081008160809381008091800081608093F2
:101380008000809191008260809391008091910013
:1013900081608093910080919000816080939000A3
:1013A0008091C10084608093C1008091C1008260FF
:1013B0008093C1008091C10081608093C1008091C1
:1013C000C30081608093C3008091C00082608093DD
:1013D000C0008091C20081608093C20080917A0039
:1013E000846080937A0080917A00826080937A0092
:1013F00080917A00816080937A0080917A00806881
:1014000080937A00109235021092DB011092DA017B
:101410008091D70081608093D70080EA8093D800C4
:1014200089B5806189BD89B5826089BD09B400FE36
:10143000FDCF0E945D028091D8008F7C80618093F7
:10144000D8008091E000807F8093E0008091E100EF
:101450008E7E8093E1008DE08093E200559A209A81
:101460005D9828988FEF9FEF9093430280934202FC
:1014700061E0809189020E94FC0161E080918A0212
:101480000E94FC0161E080918B020E94FC016FE8E8
:1014900088E892E00E9489056AE888E892E00E9464
:1014A000890560E488E892E00E94890560E0809107
:1014B00089020E94CE0160EC88E892E00E94B804A4
:1014C00010E160E088E892E00E94B8041150C9F78A
:1014D00061E0809189020E94CE010E943E060E9436
:1014E0000A0580931E020E94A8048E010F5F1F4F01
:1014F000EE24E394F12C80E2D82ECC24C39486E32E
:1015000092E00E940A04181619060CF094C086E3B3
:1015100092E00E94C80390911D028A3019F08D302C
:1015200009F075C0911168C0E0911C02EE2309F426
:1015300063C0F0E0E452FE4F10828091DC0188230A
:1015400009F45AC08F3309F45FC0833409F459C0D9
:10155000873309F051C030E020E0E32FF0E0E352A0
:10156000FE4F80818823F1F09F33E0F440ED480F77
:101570004A3040F08E3291F08D3221F08A3311F0F2
:10158000803271F4283070F42F5FE1E4F0E0EC0F6A
:10159000FD1FE90FF11D80839F5F02C09111F5CF00
:1015A0003F5FDBCFE1E4F0E0EC0FFD1FE90FF11D41
:1015B0001082F80180E0322F380F3830A0F09E0101
:1015C0002F5B3F4FD801A80FB11D980FFD01E01B05
:1015D000F10B891759F08F3349F08F5FF901419171
:1015E0009F014D93F3CF8F5FD192E5CFE00FF11FB5
:1015F0001082C8010E94C40510921C0210921D02A4
:101600007ECF0E943E06F8CF0E94A804F5CF91112C
:1016100076CFE0911C02EF3348F491E09E0F909357
:101620001C02F0E0E452FE4F808369CF10921C024E
:10163000C0921D0264CF0E940A05C82E90901E021F
:101640008915B9F1412C512C320198265701042CEF
:1016500001C0AA0C0A94EAF7892D8A21E9F085E3F2
:1016600091E00E949E034AE0C301B2010E9464041B
:1016700083E391E00E949E03AC2061E070E080E093
:1016800090E019F460E070E0CB014AE00E9464044D
:1016900088E891E00E945704FFEF4F1A5F0A6F0A33
:1016A0007F0A88E0481651046104710479F6C092FB
:1016B0001E0280E090E0892B09F41FCF0E940000F9
:1016C0001ACFA1E21A2EAA1BBB1BFD010DC0AA1F37
:1016D000BB1FEE1FFF1FA217B307E407F50720F09B
:1016E000A21BB30BE40BF50B661F771F881F991F16
:1016F0001A9469F760957095809590959B01AC015F
:10170000BD01CF010895EE0FFF1F0590F491E02D6C
:061710000994F894FFCFDC
:10171600FFFFFFFF00E100000000000000C1808124
:101726000000000086227E6DD24620290B21701013
:101736004080523F065B4F666D7D077F6F090D61E6
:101746004843D35F777C395E79713D76301E7538B4
:1017560015373F736B336D783E3E2A766E5B396480
:101766000F2308025F7C585E7B716F74100C753016
:1017760014545C7367506D781C1C14766E5B000005
:10178600000088030703C403B9030A04C803E60379
:101796000000000024040E060D0A005761726E69EF
:1017A6006E67203A20646973706C617941534349CE
:1017B60049203A2041534349492063686172616375
:1017C600746572206973206F757473696465206629
:1017D6006F6E742072616E676500202020202020C5
:0417E60020200000BF
:00000001FF
