:020000040000FA
:100000000C944D000C9475000C9475000C947500C4
:100010000C9475000C9475000C9475000C9475008C
:100020000C9475000C9475000C9475000C9475007C
:100030000C9475000C9475000C9475000C9475006C
:100040000C9426080C9475000C9496080C94700877
:100050000C9475000C9475000C9475000C9475004C
:100060000C9475000C9475004B3A6C61796F757443
:100070003D004B3A7267624D61747269783D387821
:1000800038004B454E44004B3A7267624D617472C2
:1000900069783D3878380000C80811241FBECFEFBA
:1000A000D8E0DEBFCDBF25E0A8E5B1E001C01D92DC
:1000B000A234B207E1F711E0A0E0B1E0E4EFFCE127
:1000C00002C005900D92A835B107D9F710E0CDE434
:1000D000D0E004C02197FE010E945B0ECC34D10712
:1000E000C9F70E9408090C94780E0C9400008FB791
:1000F000F89420918E0430918F0440919004509197
:1001000091048FBF8091940490919504A0919604DE
:10011000B0919704281B390B4A0B5B0B21F421E0AB
:1001200030E040E050E0E0919204F091930488EEDA
:1001300093E0E89FB001E99F700DF89F700D1124C6
:10014000072E000C880B990B0E94180E3093370570
:100150002093360510929304109292042FB7F894CE
:1001600080918E0490918F04A0919004B09191049D
:100170002FBF8093940490939504A0939604B0931A
:1001800097040895CF92DF92EF929C0120543F4F45
:10019000FB01C080D180E280FC01C192D192E1924A
:1001A000CF01E217F307A1F7EF90DF90CF9008950A
:1001B0003FB7F8948091740490917504A0917604EF
:1001C000B091770426B5A89B05C02F3F19F0019682
:1001D000A11DB11D3FBFBA2FA92F982F8827BC01A1
:1001E000CD01620F711D811D911D42E0660F771FC9
:1001F000881F991F4A95D1F70895AF92BF92DF9259
:10020000EF92FF920F931F93CF93DF93D09035051A
:100210008091380590913905A0913A05B0913B0540
:10022000892B8A2B8B2BD9F00E94D80000918A044D
:1002300010918B0420918C0430918D04601B710B04
:10024000820B930B009138051091390520913A05E6
:1002500030913B056017710782079307C8F20E942F
:10026000D80060938A0470938B0480938C049093DD
:100270008D04E0914005F0914105309759F040918F
:100280003C0550913D0560913E0570913F058D2DD7
:100290000995D82EC0918804D091890488E7E82E6A
:1002A00084E0F82E8701209749F184E00838180788
:1002B00029F18D858823F1F0E881F981A284B38446
:1002C0000680F781E02DCE010995BC01CE01F50134
:1002D0000995F801918380838091360590913705C7
:1002E0008436910508F41C860C80DD81C02D0E5FDC
:1002F0001F4FD9CFF80111821082EECFC091880430
:10030000D091890408E010E02097A9F08D8588231A
:1003100061F04E855F856A817B81E881F981028089
:10032000F381E02D2D2DCE0109950C80DD81C02DAE
:100330000150110949F7C0918804D0918904209790
:10034000C9F0F8E8EF16F4E0FF06A1F08D858823E8
:1003500051F0F70160817181E881F9810484F585AC
:10036000E02DCE0109950C80DD81C02DF2E0EF0E6D
:10037000F11CE5CF80919204909193049C012F5F32
:100380003F4F309393042093920449975CF0DF91A0
:10039000CF911F910F91FF90EF90DF90BF90AF90A2
:1003A0000C947700DF91CF911F910F91FF90EF9008
:1003B000DF90BF90AF90089580E991E00895AF92EB
:1003C000BF92CF92DF92EF92FF920F931F93CF9342
:1003D000DF936C017B018B01040F151FEB015E01A4
:1003E000AE18BF08C017D10759F06991D601ED9139
:1003F000FC910190F081E02DC6010995892B79F7D8
:10040000C501DF91CF911F910F91FF90EF90DF9089
:10041000CF90BF90AF90089542E050E064E471E067
:1004200088E994E00C94DF01FC01538D448D252F65
:1004300030E0842F90E0821B930B541710F0CF967E
:10044000089501970895FC01918D828D981761F0B0
:10045000A28DAE0FBF2FB11D5D968C91928D9F5FC7
:100460009F73928F90E008958FEF9FEF0895FC01A6
:10047000918D828D981731F0828DE80FF11D858D59
:1004800090E008958FEF9FEF0895FC01918D228DEC
:10049000892F90E0805C9F4F821B91098F73992771
:1004A000089588E994E00E94450221E0892B09F42F
:1004B00020E0822F089580E090E0892B29F00E94AF
:1004C000510281110C9400000895FC01A48DA80F25
:1004D000B92FB11DA35ABF4F2C91848D90E0019686
:1004E0008F739927848FA689B7892C93A089B189A6
:1004F0008C91837080648C93938D848D981306C047
:100500000288F389E02D80818F7D80830895EF92AA
:10051000FF920F931F93CF93DF93EC0181E0888FBD
:100520009B8D8C8D98131AC0E889F989808185FF8D
:1005300015C09FB7F894EE89FF896083E889F9892F
:1005400080818370806480839FBF81E090E0DF9131
:10055000CF911F910F91FF90EF900895F62E0B8D84
:1005600010E00F5F1F4F0F731127E02E8C8D8E113F
:100570000CC00FB607FCFACFE889F989808185FFA6
:10058000F5CFCE010E946502F1CFEB8DEC0FFD2F70
:10059000F11DE35AFF4FF0829FB7F8940B8FEA8961
:1005A000FB8980818062CFCF0F931F93CF93DF931E
:1005B0008C01D0E0C0E0F801EC0FFD1F64916623D0
:1005C00041F088E994E00E948702892B11F021967E
:1005D000F2CFCE01DF91CF911F910F910895CF936C
:1005E000DF930E94D402EC010E940C028C0F9D1F2D
:1005F000DF91CF910895CF93DF93EC01888D88230D
:10060000B9F0AA89BB89E889F9898C9185FD03C075
:10061000808186FD0DC00FB607FCF7CF8C9185FF5A
:10062000F2CF808185FFEDCFCE010E946502E9CF38
:10063000DF91CF910895AF92BF92CF92DF92EF9268
:10064000FF920F931F93CF93DF9300D01F92CDB7EC
:10065000DEB75A0119821A821B82882361F18B014D
:10066000E1E0F0E0E82EF12CD8012D918D0122235C
:10067000F1F06F01B1E0CB1AD108D501AC0DBD1D71
:100680004C914423A1F030E02F5F3F4FD7010E94EF
:100690003A0EA42FB0E011969B01AC010E94500EBF
:1006A000A1E0B0E0AC0FBD1FAC0DBD1D8C93319629
:1006B000E430F105C9F669817A818B810F900F9042
:1006C0000F90DF91CF911F910F91FF90EF90DF90EE
:1006D000CF90BF90AF90089581E090E008950F9380
:1006E0001F93CF93DF9320915D012F5F322F3770DF
:1006F00030935D0120FF2BC020E831FD2064347071
:1007000009F02062205FFC01EC01239600E011E07B
:100710006785662329F070E0C8010E94040E6F5FB0
:100720006187822F869F080E80E0811D1124811130
:1007300010C01682662311F0615061873196EC1764
:10074000FD0731F7DF91CF911F910F91089520E0C0
:10075000D4CF81508683EECF4F925F927F928F925B
:100760009F92AF92BF92CF92DF92EF92FF920F9340
:100770001F93CF93DF932C01EB010E94D800F2016D
:1007800026893789621B730B6A307105B0F3F894C0
:100790008A819B81181619060CF0CBC1E881F9817A
:1007A0000BB100647BB17F7B7BB9BA848F812B2D29
:1007B000281B822F2F834C85042E000C550BAA81F9
:1007C000BB81E888DF84C988E394D394C3949E8175
:1007D000388599848B84118120E0F32E622F322F8B
:1007E0003181112788943111380F08F43FEF81953A
:1007F0008894E0FC130F17958894E1FC130F17956C
:100800008894E2FC130F17958894E3FC130F179557
:100810008894E4FC130F17958894E5FC130F179543
:100820008894E6FC130F17958894E7FC130F17952F
:100830008894232FE110212F8B0D122F002C0BB940
:1008400000C017FF7BB930812227889400C000C008
:10085000002C7BB93111390F00C0002C0BB900C03E
:1008600016FF7BB908F43FEF9195889400C000C053
:10087000002C7BB9D0FC230F00C0002C0BB900C0AA
:1008800015FF7BB927958894D1FC230F00C000C0C9
:10089000002C7BB92795889400C0002C0BB900C0B0
:1008A00014FF7BB9D2FC230F2795889400C000C0A9
:1008B000002C7BB9D3FC230F00C0002C0BB900C067
:1008C00013FF7BB927958894D4FC230F00C000C088
:1008D000002C7BB92795889400C0002C0BB900C070
:1008E00012FF7BB9D5FC230F2795889400C000C068
:1008F000002C7BB9D6FC230F00C0002C0BB900C024
:1009000011FF7BB927958894D7FC230F00C000C046
:10091000002C7BB92795889400C0002C0BB900C02F
:1009200010FF7BB9132FD110122F990D00C000C0FA
:10093000002C7BB900C000C0002C0BB900C017FF11
:100940007BB932812227889400C000C0002C7BB97B
:1009500031113F0D00C0002C0BB900C016FF7BB950
:1009600008F43FEFE40FF51F00C000C0002C7BB976
:10097000C0FC230F00C0002C0BB900C015FF7BB9D1
:1009800027958894C1FC230F00C000C0002C7BB9C0
:100990002795889400C0002C0BB900C014FF7BB9C8
:1009A000C2FC230F2795889400C000C0002C7BB99F
:1009B000C3FC230F00C0002C0BB900C013FF7BB990
:1009C00027958894C4FC230F00C000C0002C7BB97D
:1009D0002795889400C0002C0BB900C012FF7BB98A
:1009E000C5FC230F2795889400C000C0002C7BB95C
:1009F000C6FC230F00C0002C0BB900C011FF7BB94F
:100A000027958894C7FC230F00C000C0002C7BB939
:100A10002795889400C0002C0BB900C010FF7BB94B
:100A2000132FC110122FF19400C000C0002C7BB90D
:100A3000F80C00C000C00BB900C017FF7BB93181B2
:100A40002227889400C000C0002C7BB93111380FD8
:100A500000C0002C0BB900C016FF7BB908F43FEFB3
:100A60008195889400C000C0002C7BB9E0FC230F66
:100A700000C0002C0BB900C015FF7BB927958894E6
:100A8000E1FC230F00C000C0002C7BB9279588949F
:100A900000C0002C0BB900C014FF7BB9E2FC230F8F
:100AA0002795889400C000C0002C7BB9E3FC230F7D
:100AB00000C0002C0BB900C013FF7BB927958894A8
:100AC000E4FC230F00C000C0002C7BB9279588945C
:100AD00000C0002C0BB900C012FF7BB9E5FC230F4E
:100AE0002795889400C000C0002C7BB9E6FC230F3A
:100AF00000C0002C0BB900C011FF7BB9279588946A
:100B0000E7FC230F00C000C0002C7BB92795889418
:100B100000C0002C0BB900C010FF7BB9132FE110EF
:100B2000122F8B0D00C000C0002C7BB9119709F06B
:100B300086CEEA81FB812EE130E0DF010E94490E82
:100B400030E020E0A901AAE9EA9F0E0E411DFA9FBC
:100B5000400D511D11244F0F511DDC01CB01840F9D
:100B6000951FA11DB11D893E43E09407A105B10564
:100B700008F434C0885E9340A109B10942E0B695FB
:100B8000A795979587954A95D1F747E0849F080EDA
:100B9000211D949F200D311D1124290F311D6091BD
:100BA0005C0170E0860F971F820F931F40918E04A7
:100BB00050918F046091900470919104292F3327F4
:100BC000420F531F611D711D40938E0450938F047B
:100BD000609390047093910480935C0178940E94D8
:100BE000D800F201778B668BDF91CF911F910F9127
:100BF000FF90EF90DF90CF90BF90AF909F908F903D
:100C00007F905F904F900895569A08956F927F92CB
:100C10008F92CF92DF92EF92FF920F931F93CF9319
:100C2000DF93CDB7DEB762970FB6F894DEBF0FBE85
:100C3000CDBF8C016B017A01822FA801475F5F4F06
:100C4000B8016A5F7F4F0E941B033B01882ED801C9
:100C50001C962C91C701F7FE04C0882799278E198E
:100C60009F09DA82C9829C838B839E838D83688AE5
:100C7000798A8A8A213049F5CE0101960E946F0354
:100C800083E08D871F861E86F7FE02C08DEF8D875D
:100C9000D801ED91FC910088F189E02DBE016F5FD4
:100CA0007F4FC801099562960FB6F894DEBF0FBE5C
:100CB000CDBFDF91CF911F910F91FF90EF90DF900B
:100CC000CF908F907F906F9008951C861B861A8618
:100CD000198618861F82D4CFCF92DF92EF92FF92AF
:100CE0000F931F93CF93DF93CDB7DEB762970FB605
:100CF000F894DEBF0FBECDBF8C016B017A01822F4D
:100D0000A801475F5F4FB8016A5F7F4F0E941B03D6
:100D10009B01482FD8011C968C91DA82C982FC82F3
:100D2000EB82FE82ED82288B398B4A8B813009F56C
:100D3000CE0101960E946F031D861F861E86D80174
:100D4000ED91FC910088F189E02DBE016F5F7F4F2E
:100D5000C801099562960FB6F894DEBF0FBECDBFED
:100D6000DF91CF911F910F91FF90EF90DF90CF9087
:100D700008951C861B861A86198618861F82DCCF6A
:100D80000895CF93DF9300D01F92CDB7DEB71982BD
:100D90001A821B82BE016F5F7F4F81E492E00E9446
:100DA000C20019821A821B82BE016F5F7F4F80E8EA
:100DB00091E00E94C2000E94FD00109272040F9008
:100DC0000F900F90DF91CF9108951F93CF93DF93F2
:100DD000CDB7DEB761970FB6F894DEBF0FBECDBFBB
:100DE00088E690E00E94D4021091400281E1E7E49D
:100DF000F1E0DE01119601900D928A95E1F7E12F65
:100E0000E295EF7081E090E08C0F9D1F8E0F911D99
:100E1000FC01608188E994E00E948702E12FEF7075
:100E200081E090E08C0F9D1F8E0F911DFC01608171
:100E300088E994E00E94870261960FB6F894DEBFBD
:100E40000FBECDBFDF91CF911F910C940C02CF92BA
:100E5000DF92EF921F93CF93DF9361E472E037E06C
:100E600027E0122F131BFB01A0E0B09140024B2F93
:100E700050E0922F9A1BB3FF9A2F812FB4FD832F3E
:100E8000559547954370552742305105B9F1433088
:100E90005105D9F14130510521F4422F481B892FCA
:100EA000942FB0FF05C080FF03C0422F491B942F31
:100EB000880F880F880F890F90E0EC01CC0FDD1FA1
:100EC000C80FD91FC058DE4FC190D190E190C882A1
:100ED000D982EA82AF5FA83041F63150685E7F4F19
:100EE0003F3F09F0BECF0E94FD0010927204DF91D7
:100EF000CF911F91EF90DF90CF900895422F491B23
:100F0000942F422F481B842FCCCF422F491B982F60
:100F1000FACF982F80ED890F8A3070F08FE9890F12
:100F2000863018F489EA890F08958FEB890F86308F
:100F300010F489ECF8CF80E0089590ED980F9A3086
:100F400040F08F7D9FEB980F81E0963018F080E0A5
:100F5000089581E00895AF92BF92CF92DF92EF9211
:100F6000FF920F931F93CF93DF93EC017B016C01F2
:100F70005C0186E0A80EB11CF60181916F010E9410
:100F80009D07082F882369F1CA14DB04A9F788811B
:100F90000E948907182F89810E948907F0E11F9F0D
:100FA00090011124822BF70180838A810E94890796
:100FB000182F8B810E948907F0E11F9F9001112457
:100FC000822BF70181838C810E948907182F8D81E4
:100FD0000E948907F0E11F9F90011124822BF701E5
:100FE0008283802FDF91CF911F910F91FF90EF901F
:100FF000DF90CF90BF90AF90089590E080E008958B
:10100000FC0164870895FC01848590E00895FC014B
:101010008685978508950E94610EFF920F931F9316
:10102000CF93DF93EC01F62E08811981C8010E944D
:10103000DA0DF81621F06F2DC8010E94E20DCE01E5
:10104000DF91CF911F910F91FF9008951F920F9202
:101050000FB60F9211242F933F938F939F93AF93CB
:10106000BF9380918E0490918F04A0919004B091D1
:1010700091043091730423E0230F2D3758F5019626
:10108000A11DB11D2093730480938E0490938F044F
:10109000A0939004B093910480917404909175048E
:1010A000A0917604B09177040196A11DB11D8093A3
:1010B000740490937504A0937604B0937704BF9161
:1010C000AF919F918F913F912F910F900FBE0F90F5
:1010D0001F90189526E8230F0296A11DB11DD2CFAF
:1010E0001F920F920FB60F9211242F933F934F939D
:1010F0005F936F937F938F939F93AF93BF93EF9380
:10110000FF9388E994E00E946502FF91EF91BF91FF
:10111000AF919F918F917F916F915F914F913F918F
:101120002F910F900FBE0F901F9018951F920F9246
:101130000FB60F9211242F938F939F93EF93FF93EA
:10114000E091A804F091A9048081E091AE04F091AF
:10115000AF0482FD1BC090818091B1048F5F8F73BB
:101160002091B204821741F0E091B104F0E0E8561A
:10117000FB4F958F8093B104FF91EF919F918F91D9
:101180002F910F900FBE0F901F9018958081F4CF74
:10119000E8E9F4E01382128288EE93E0A0E0B0E088
:1011A00084839583A683B78386E391E091838083CC
:1011B00085EC90E09587848784EC90E0978786871C
:1011C00080EC90E0918B808B81EC90E0938B828B14
:1011D00082EC90E0958B848B86EC90E0978B868BED
:1011E000118E128E138E148EE5E3F5E08FEF80835F
:1011F00012821182148613868FEF9FEFDC018783A2
:101200009087A187B287138214821582168208956F
:10121000CF93DF9300D01F92CDB7DEB7789484B51B
:10122000826084BD84B5816084BD85B5826085BDE2
:1012300085B5816085BD80916E00816080936E0070
:101240001092810080918100826080938100809162
:101250008100816080938100809180008160809313
:1012600080008091B10084608093B1008091B000D3
:1012700081608093B00080917A00846080937A00CE
:1012800080917A00826080937A0080917A008160F8
:1012900080937A0080917A00806880937A0010921F
:1012A000C100E091A804F091A90482E08083E0915C
:1012B000A404F091A5041082E091A604F091A70483
:1012C00080E180831092B004E091AC04F091AD0411
:1012D00086E08083E091AA04F091AB048081806174
:1012E0008083E091AA04F091AB04808188608083C0
:1012F000E091AA04F091AB04808180688083E09142
:10130000AA04F091AB0480818F7D80838091780165
:10131000811157C010926301109262018FEF809388
:1013200066018093670180936801809369018093CF
:101330006A0180936B0181E080936C0180936D0161
:1013400010926F0110926E0180E797E19093710106
:101350008093700183E090E0909373018093720119
:10136000109275011092740110926501109264013F
:101370008091880490918904892B31F480E691E072
:101380009093890480938804E0915E01F0915F015D
:10139000309721F080E691E09583848380E691E0A8
:1013A00090935F0180935E01109277011092760115
:1013B00088E191E0909361018093600181E08093E6
:1013C0007801569A80E891E09093630180936201DE
:1013D00080E490E090936F0180936E0180913805D6
:1013E00090913905A0913A05B0913B05843C29E0E4
:1013F0009207A105B10520F484EC99E0A0E0B0E0EB
:101400008093380590933905A0933A05B0933B0536
:1014100088E78093350519821A821B8280913805EE
:1014200090913905A0913A05B0913B05892B8A2B03
:101430008B2BD9F00E94D80000918A0410918B0464
:1014400020918C0430918D04601B710B820B930BE7
:10145000009138051091390520913A0530913B05EE
:101460006017710782079307C8F20E94D800609343
:101470008A0470938B0480938C0490938D04E09184
:101480004005F0914105B12C309759F040913C0551
:1014900050913D0560913E0570913F0580E00995B2
:1014A000B82E0091880410918904D12CC12C01150B
:1014B000110569F188E0C816D10449F1D8011D96DB
:1014C0008C911D977601EE0CFF1C8823D1F0ED91D5
:1014D000FC91828493840680F781E02DC8010995F0
:1014E000BC01C801F4010995F701E858FB4F91834D
:1014F0008083FFEFCF1ADF0AD80114960D911C915B
:10150000D6CFF701E858FB4F11821082F2CF00913D
:101510008804109189040115110531F1B8E0CB164A
:10152000D10411F1809136059091370584369105EB
:1015300010F4F8011486D8011D968C911D9788230C
:1015400079F01E964D915C911F97ED91FC91019061
:10155000F081E02D2B2DBE016F5F7F4FC8010995F3
:10156000F80104811581D7CF009188041091890476
:10157000F12CE12C01151105F9F0F8E0EF16F1045A
:10158000D9F0D8011D968C911D97882371F0F70131
:10159000EE0FFF1FE858FB4F60817181ED91FC91C8
:1015A0000484F585E02DC8010995BFEFEB1AFB0A0D
:1015B000F80104811581DECF80919204909193040B
:1015C0009C012F5F3F4F30939304209392044997DF
:1015D00014F00E947700009188041091890401158D
:1015E0001105B9F0D80112968D919C91139700972F
:1015F00061F01E962D913C91A901440F551F420F99
:10160000531F70E060E00E94660EF80104811581AE
:10161000E6CF19821A821B82BE016F5F7F4F81E481
:1016200092E00E94C20090E080E00E94DA0D8C34CB
:1016300009F08AC081E090E00E94DA0D80934002B8
:10164000198280E28A831B82BE016F5F7F4F80E830
:1016500091E00E94C2000E94FD000E94D8004B0150
:101660005C0174EBC72ED12CE12CF12C0E94D80028
:10167000681979098A099B09683E734081059105BB
:10168000A8F3F1E0CF1AD108E108F10828EE820EA4
:1016900023E0921EA11CB11CC114D104E104F10489
:1016A00029F70E94C10682E790E00E94EF020E94A3
:1016B000E50666E0662E712C55245A9433243A943C
:1016C000442443945AE0252E88E994E00E94450280
:1016D000181619060CF01AC288E994E00E94230239
:1016E000182F8D3089F380916D041A3009F0A2C152
:1016F000882309F442C08091CA03811122C08091DD
:10170000C8039091C9030097E1F0B3010E94F00D66
:10171000892BB9F4A1E0B3E0E1E4F2E080E090913C
:10172000C703891730F52D913D914C911297208375
:10173000318342838F5F13963396803481F70E9402
:10174000270710926D04C0CF81E0809340021A8277
:1017500019826CE4CE0101960E940D08609140024E
:1017600081E090E09A838983CE0101960E940D0862
:1017700067CF108211821282DDCF80916C048111BB
:1017800014C0E0916B04F0E0E553FC4F10828091AF
:10179000CB03882351F08D3409F4BAC05CF48F3345
:1017A00009F47FC0833409F479C010926B0410925D
:1017B0006C048ACF843509F4E3C0893509F47CC010
:1017C000813599F76AE370E08CEC93E00E946D0E2E
:1017D0007C01009751F3FC0110828CEC93E00E9495
:1017E000B40D5C01089708F787010F5F1F4F470191
:1017F00021E3820E911C6801D6018D916D01882331
:10180000A1F20E949D07882381F28C149D04A1F708
:10181000F70181A98111C9CFC50133E0880F991F54
:101820003A95E1F77C01EE0CFF1CE80EF91EC701AA
:101830008F5B9D4F7C01BE016F5F7F4FC8010E948F
:10184000AB07882309F4B1CF89819A81AB81F70175
:1018500081939193A1937F010A5F1F4F0C151D0582
:1018600051F7409272042FB7F89480918E049091B2
:101870008F04A0919004B09191042FBF80936E04C7
:1018800090936F04A0937004B0937104F7E0AF16C7
:10189000B10409F08ACF0E94270787CF0E94C106B2
:1018A00084CF87E890E00E94EF020E94E50682E87C
:1018B00090E00E94EF0279CF8091CC03882309F455
:1018C00074CF20E090E080E0E22FF0E0E453FC4FA2
:1018D00030813323C1F040ED430F4A3008F065CF2B
:1018E000289EA001299E500D1124CA01C097830F84
:1018F000911D37FD9A958F3F910519F010F08FEFEC
:1019000090E02F5FE1CF809335050E94FD004DCF21
:101910001091CC03812F0E949D07882309F445CFA5
:101920000091CD03802F0E949D07882309F43DCFAD
:101930008091CE03811139CF812F0E948907182F02
:10194000802F0E94890790E1199F90011124822B1A
:10195000809340021A8219826CE4CE0101960E94A3
:101960000D0860914002A1E0B0E0BA83A983CE01E6
:1019700001960E940D080E9427070E94E50615CFD8
:101980001091CC031053143008F00FCF8091CD0389
:1019900081110BCF19821A821B82BE016F5F7F4FAC
:1019A00081E492E00E94C200111107C0309241020E
:1019B00030924202309243026ECF113061F4E1E482
:1019C000F2E0508211821282339689E592E08E17FE
:1019D0009F07B9F760CFAAE2B1E021E432E012300C
:1019E00059F4E1E4F2E0108211825282789693E099
:1019F000E130F907C1F74FCF6D91F90190E080E038
:101A000040E850E0082E02C0559547950A94E2F749
:101A1000462319F0508251825282019633968830C3
:101A2000910571F7285E3F4FE2E3F1E0EA17FB070B
:101A300019F731CF882309F444C0812F0E949D07F4
:101A4000811103C04092CA033FCE2091C803309158
:101A5000C9032038F1E03F07A8F7C901B3010E948C
:101A6000F00DFC01EF53FC4F1083C90101969093D8
:101A7000C9038093C803B3010E94F00D892B09F0BC
:101A800023CEBE016F5F7F4F81EC93E00E94AB07D6
:101A90008823C1F28091C7038034A0F691E0980FAB
:101AA0009093C70390E0FC01EE0FFF1FE80FF91FB2
:101AB000EF5FFC4F89819A81AB8180839183A28300
:101AC00003CEE0916B04E1110DC0103559F4409242
:101AD0006D041092CA031092C9031092C8031092A9
:101AE000C703F2CD80916C048111EECDEF3948F43B
:101AF00081E08E0F80936B04F0E0E553FC4F108380
:101B0000E3CD10926B0440926C04DECD80917204A0
:101B10008823E9F02FB7F89480918E0490918F0478
:101B2000A0919004B09191042FBF40916E04509108
:101B30006F046091700470917104841B950BA60B67
:101B4000B70B0F97A105B10510F00E94270780E0A1
:101B500090E0892B09F4B4CD0E945102882309F446
:101B6000ABCD0E940000A8CDFC0188279927E894FE
:101B700021912032E9F3293010F02E30C8F32B32B6
:101B800041F02D3239F4689404C00E94D20D820FC6
:101B9000911D219120532A30C0F31EF49095819518
:101BA0009F4F08957AE0979F902D879F802D910DEC
:101BB00011240895F999FECF92BD81BDF89A992715
:101BC00080B50895262FF999FECF1FBA92BD81BD29
:101BD00020BD0FB6F894FA9AF99A0FBE01960895AF
:101BE000AA1BBB1B51E107C0AA1FBB1FA617B70743
:101BF00010F0A61BB70B881F991F5A95A9F780955F
:101C00009095BC01CD01089597FB072E16F4009422
:101C100007D077FD09D00E94F00D07FC05D03EF4F7
:101C2000909581959F4F0895709561957F4F089588
:101C3000A1E21A2EAA1BBB1BFD010DC0AA1FBB1FD0
:101C4000EE1FFF1FA217B307E407F50720F0A21B42
:101C5000B30BE40BF50B661F771F881F991F1A94AF
:101C600069F760957095809590959B01AC01BD01D9
:101C7000CF010895A29FB001B39FC001A39F700D33
:101C8000811D1124911DB29F700D811D1124911D84
:101C900008950E943A0EB7FF0895821B930B089592
:101CA0000E943A0EA59F900DB49F900DA49F800DA9
:101CB000911D11240895EE0FFF1F0590F491E02D62
:101CC000099481E090E0F8940C94780EDC0101C056
:101CD0006D9341505040E0F70895FC0181918617C3
:101CE00021F08823D9F7992708953197CF010895D6
:101CF000F894FFCF000000000B080B080B08070842
:101D00006C0303080008FD07000000006C060606CF
:101D1000040607086C0303080008DC01AC037C60C0
:101D2000607860606000000000008702DF0114023C
:101D3000FB024502230237020D0A003031323334F0
:0C1D40003536373839616263646566002F
:107E0000112484B714BE81FFF0D085E080938100F7
:107E100082E08093C00088E18093C10086E0809377
:107E2000C20080E18093C4008EE0C9D0259A86E02C
:107E300020E33CEF91E0309385002093840096BBD3
:107E4000B09BFECF1D9AA8958150A9F7CC24DD24C4
:107E500088248394B5E0AB2EA1E19A2EF3E0BF2EE7
:107E6000A2D0813461F49FD0082FAFD0023811F036
:107E7000013811F484E001C083E08DD089C08234E0
:107E800011F484E103C0853419F485E0A6D080C0E4
:107E9000853579F488D0E82EFF2485D0082F10E0AE
:107EA000102F00270E291F29000F111F8ED06801E7
:107EB0006FC0863521F484E090D080E0DECF843638
:107EC00009F040C070D06FD0082F6DD080E0C81688
:107ED00080E7D80618F4F601B7BEE895C0E0D1E017
:107EE00062D089930C17E1F7F0E0CF16F0E7DF06D8
:107EF00018F0F601B7BEE89568D007B600FCFDCFD4
:107F0000A601A0E0B1E02C9130E011968C91119780
:107F100090E0982F8827822B932B1296FA010C0160
:107F200087BEE89511244E5F5F4FF1E0A038BF0790
:107F300051F7F601A7BEE89507B600FCFDCF97BE46
:107F4000E89526C08437B1F42ED02DD0F82E2BD052
:107F50003CD0F601EF2C8F010F5F1F4F84911BD097
:107F6000EA94F801C1F70894C11CD11CFA94CF0C13
:107F7000D11C0EC0853739F428D08EE10CD085E9AC
:107F80000AD08FE07ACF813511F488E018D01DD067
:107F900080E101D065CF982F8091C00085FFFCCF94
:107FA0009093C60008958091C00087FFFCCF809118
:107FB000C00084FD01C0A8958091C6000895E0E648
:107FC000F0E098E1908380830895EDDF803219F02E
:107FD00088E0F5DFFFCF84E1DECF1F93182FE3DFCA
:107FE0001150E9F7F2DF1F91089580E0E8DFEE27F6
:047FF000FF270994CA
:027FFE00040479
:00000001FF
